{"contracts/facets/CompetitionFacet.sol":{"CompetitionFacet":{"abi":[{"anonymous":false,"inputs":[{"indexed":true,"internalType":"uint32","name":"","type":"uint32"}],"name":"Closed","type":"event"},{"anonymous":false,"inputs":[{"indexed":true,"internalType":"uint32","name":"","type":"uint32"}],"name":"Created","type":"event"},{"anonymous":false,"inputs":[{"indexed":true,"internalType":"uint32","name":"","type":"uint32"}],"name":"Drawn","type":"event"},{"anonymous":false,"inputs":[{"indexed":true,"internalType":"uint32","name":"","type":"uint32"}],"name":"Finished","type":"event"},{"anonymous":false,"inputs":[{"indexed":true,"internalType":"uint32","name":"","type":"uint32"},{"indexed":true,"internalType":"address","name":"","type":"address"},{"indexed":false,"internalType":"uint32","name":"","type":"uint32"}],"name":"Sold","type":"event"},{"anonymous":false,"inputs":[{"indexed":true,"internalType":"uint32","name":"","type":"uint32"}],"name":"Started","type":"event"},{"anonymous":false,"inputs":[{"indexed":true,"internalType":"uint32","name":"","type":"uint32"}],"name":"Updated","type":"event"},{"inputs":[{"internalType":"uint32","name":"_index","type":"uint32"}],"name":"buy","outputs":[],"stateMutability":"payable","type":"function"},{"inputs":[{"internalType":"uint32","name":"_index","type":"uint32"}],"name":"claim","outputs":[],"stateMutability":"nonpayable","type":"function"},{"inputs":[{"internalType":"uint32","name":"_countTotal","type":"uint32"},{"internalType":"uint256","name":"_price","type":"uint256"},{"internalType":"address","name":"_currency","type":"address"}],"name":"create","outputs":[],"stateMutability":"nonpayable","type":"function"},{"inputs":[{"internalType":"uint32","name":"_index","type":"uint32"}],"name":"draw","outputs":[],"stateMutability":"nonpayable","type":"function"},{"inputs":[{"internalType":"uint32","name":"_index","type":"uint32"}],"name":"finish","outputs":[],"stateMutability":"nonpayable","type":"function"},{"inputs":[{"internalType":"uint32","name":"_index","type":"uint32"}],"name":"mine","outputs":[{"internalType":"uint32[]","name":"","type":"uint32[]"}],"stateMutability":"view","type":"function"},{"inputs":[{"internalType":"uint32","name":"_index","type":"uint32"}],"name":"prizes","outputs":[{"internalType":"uint256[]","name":"","type":"uint256[]"}],"stateMutability":"view","type":"function"},{"inputs":[{"internalType":"uint256","name":"_requestId","type":"uint256"},{"internalType":"uint256[]","name":"_randomWords","type":"uint256[]"}],"name":"rawFulfillRandomWords","outputs":[],"stateMutability":"nonpayable","type":"function"},{"inputs":[{"internalType":"uint32","name":"_index","type":"uint32"}],"name":"remains","outputs":[{"internalType":"uint32[]","name":"","type":"uint32[]"}],"stateMutability":"view","type":"function"},{"inputs":[{"internalType":"uint32","name":"_index","type":"uint32"}],"name":"start","outputs":[],"stateMutability":"nonpayable","type":"function"},{"inputs":[{"internalType":"uint32","name":"_index","type":"uint32"},{"internalType":"uint32","name":"_countTotal","type":"uint32"},{"internalType":"uint256","name":"_price","type":"uint256"},{"internalType":"address","name":"_currency","type":"address"}],"name":"update","outputs":[],"stateMutability":"nonpayable","type":"function"},{"inputs":[{"internalType":"address","name":"_token","type":"address"},{"internalType":"uint256","name":"_threshold","type":"uint256"}],"name":"updateThreshold","outputs":[],"stateMutability":"nonpayable","type":"function"},{"inputs":[{"internalType":"address","name":"_coordinator","type":"address"},{"internalType":"uint64","name":"_subscription","type":"uint64"},{"internalType":"bytes32","name":"_hash","type":"bytes32"}],"name":"updateVRF","outputs":[],"stateMutability":"nonpayable","type":"function"}],"evm":{"bytecode":{"linkReferences":{},"object":"608060405234801561001057600080fd5b506124e6806100206000396000f3fe6080604052600436106100c25760003560e01c80637db5bd521161007f5780639dbdadee116100595780639dbdadee146101ff578063b63e0cd81461021f578063c305163d1461023f578063e6f363281461025f57600080fd5b80637db5bd52146101ac578063924af1bc146101bf5780639cf9a4f8146101df57600080fd5b806304951891146100c75780631fe543e3146100e957806336ceea0d1461010957806354efc1391461012957806372ab8441146101495780637bb9f9ef1461017f575b600080fd5b3480156100d357600080fd5b506100e76100e236600461201d565b61027f565b005b3480156100f557600080fd5b506100e7610104366004612055565b610605565b34801561011557600080fd5b506100e761012436600461201d565b610755565b34801561013557600080fd5b506100e7610144366004612136565b610c23565b34801561015557600080fd5b5061016961016436600461201d565b610df8565b6040516101769190612183565b60405180910390f35b34801561018b57600080fd5b5061019f61019a36600461201d565b611184565b60405161017691906121c7565b6100e76101ba36600461201d565b6112cc565b3480156101cb57600080fd5b506100e76101da366004612205565b6118ad565b3480156101eb57600080fd5b506100e76101fa36600461222f565b6118ea565b34801561020b57600080fd5b5061019f61021a36600461201d565b61192f565b34801561022b57600080fd5b506100e761023a36600461201d565b611a60565b34801561024b57600080fd5b506100e761025a36600461227b565b611b72565b34801561026b57600080fd5b506100e761027a36600461201d565b611d0f565b60005463ffffffff90811690821611156102d85760405162461bcd60e51b815260206004820152601560248201527421b630b4b69d1034b73b30b634b2103937bab7321760591b60448201526064015b60405180910390fd5b63ffffffff811660009081526001602052604090206009810154600160e01b900460ff1660031461034b5760405162461bcd60e51b815260206004820152601e60248201527f436c61696d3a20726f756e6420776173206e6f742066696e69736865642e000060448201526064016102cf565b33600090815260038201602052604090205460ff16156103ad5760405162461bcd60e51b815260206004820152601760248201527f436c61696d3a20616c726561647920636c61696d65642e00000000000000000060448201526064016102cf565b33600090815260048201602052604090205463ffffffff166104115760405162461bcd60e51b815260206004820152601a60248201527f436c61696d3a20646964206e6f7420627579207469636b65742e00000000000060448201526064016102cf565b600061041c8361192f565b905060008061042a85610df8565b905060005b83518163ffffffff1610156104bb5781856007016000868463ffffffff168151811061045d5761045d6122b7565b60209081029190910181015163ffffffff9081168352908201929092526040016000205482519116908110610494576104946122b7565b6020026020010151836104a791906122e3565b9250806104b3816122fb565b91505061042f565b50600082116105035760405162461bcd60e51b815260206004820152601460248201527321b630b4b69d1037379031b630b4b6b0b136329760611b60448201526064016102cf565b8354600160601b90046001600160a01b03166105665760405133908390600081818185875af1925050503d8060008114610559576040519150601f19603f3d011682016040523d82523d6000602084013e61055e565b606091505b5050506105e2565b835460405163a9059cbb60e01b815233600482015260248101849052600160601b9091046001600160a01b03169063a9059cbb906044016020604051808303816000875af11580156105bc573d6000803e3d6000fd5b505050506040513d601f19601f820116820180604052508101906105e0919061231e565b505b505033600090815260039092016020525060409020805460ff1916600117905550565b6005546001600160a01b031633148015610632575060008281526002602052604090205463ffffffff1615155b15610751576000828152600260205260408120546106589060019063ffffffff16612340565b63ffffffff811660009081526001602052604081209192505b815461068c90600190600160401b900463ffffffff16612340565b63ffffffff168163ffffffff1610156106ee57838163ffffffff16815181106106b7576106b76122b7565b60209081029190910181015163ffffffff8316600090815260088501909252604090912055806106e6816122fb565b915050610671565b5060098101805460ff60e01b1916600160e11b179055600084815260026020526040808220805463ffffffff191690558254905163ffffffff909116917fd17f1b6062bdec6b66d7c7202aa93ca5242807f46aa32c20fdd8f6d0586293ed91a250505b5050565b61075d611e4c565b60005463ffffffff90811690821611156107b25760405162461bcd60e51b81526020600482015260166024820152752334b734b9b41d1034b73b30b634b2103937bab7321760511b60448201526064016102cf565b63ffffffff811660009081526001602052604090206009810154600160e01b900460ff166002146108255760405162461bcd60e51b815260206004820152601c60248201527f46696e6973683a20726f756e6420776173206e6f7420647261776e2e0000000060448201526064016102cf565b60098101805463ffffffff428116600160c01b0264ffffffffff60c01b1990921691909117600360e01b179091558154600091600160401b9091041667ffffffffffffffff8111156108795761087961203f565b6040519080825280602002602001820160405280156108a2578160200160208202803683370190505b5090506000805b835463ffffffff600160201b9091048116908216101561093a5763ffffffff811660009081526005850160205260409020546001600160a01b031615610928578083836108f5816122fb565b945063ffffffff168151811061090d5761090d6122b7565b602002602001019063ffffffff16908163ffffffff16815250505b80610932816122fb565b9150506108a9565b5060005b835461095990600190600160401b900463ffffffff16612340565b63ffffffff168163ffffffff161015610af0576000838263ffffffff1681518110610986576109866122b7565b6020026020010151905081600161099d9190612365565b92505b845463ffffffff600160401b90910481169084161015610add57846008016000858563ffffffff16815181106109d8576109d86122b7565b602002602001015163ffffffff1663ffffffff168152602001908152602001600020548560080160008363ffffffff1663ffffffff168152602001908152602001600020541115610acb57838363ffffffff1681518110610a3b57610a3b6122b7565b60200260200101519050838263ffffffff1681518110610a5d57610a5d6122b7565b6020026020010151848463ffffffff1681518110610a7d57610a7d6122b7565b602002602001019063ffffffff16908163ffffffff168152505080848363ffffffff1681518110610ab057610ab06122b7565b602002602001019063ffffffff16908163ffffffff16815250505b82610ad5816122fb565b9350506109a0565b5080610ae8816122fb565b91505061093e565b5060005b835463ffffffff600160401b90910481169082161015610be857828163ffffffff1681518110610b2657610b266122b7565b6020026020010151846006016000836001610b419190612365565b63ffffffff90811682526020820192909252604001600020805463ffffffff191692909116919091179055610b77816001612365565b846007016000858463ffffffff1681518110610b9557610b956122b7565b602002602001015163ffffffff1663ffffffff16815260200190815260200160002060006101000a81548163ffffffff021916908363ffffffff1602179055508080610be0906122fb565b915050610af4565b50825460405163ffffffff909116907f0b4aae5dcd713cfbcaf3e6aa1be4e9e01a579e6c5e930d1aef33ab13fd5002d790600090a250505050565b610c2b611e4c565b60005463ffffffff90811690851610610c865760405162461bcd60e51b815260206004820152601d60248201527f5570646174653a20726f756e6420646f6573206e6f742065786973742e00000060448201526064016102cf565b60008363ffffffff1611610ce65760405162461bcd60e51b815260206004820152602160248201527f5570646174653a207469636b657420636f756e74206973206e656761746976656044820152601760f91b60648201526084016102cf565b60008211610d365760405162461bcd60e51b815260206004820152601a60248201527f5570646174653a207072696365206973206e656761746976652e00000000000060448201526064016102cf565b63ffffffff841660009081526001602052604090206009810154600160e01b900460ff1615610d775760405162461bcd60e51b81526004016102cf9061238d565b8054600282018490556bffffffff00000000ffffffff16600160201b63ffffffff868116919091026bffffffffffffffffffffffff1691909117600160601b6001600160a01b03851602178083556040519116907f4dac4ac23a642d0ff36b603f2bf73fd8163de4e86d607db04b40edd8ec0eb50890600090a25050505050565b63ffffffff81166000908152600160205260409020600981015460609190600160e01b900460ff16600314610e6f5760405162461bcd60e51b815260206004820152601c60248201527f5072697a653a20726f756e64206973206e6f742066696e697365642e0000000060448201526064016102cf565b600354815460028301546000926127109263ffffffff91821692610e9e92600160401b909204909116906123d7565b610ea891906123d7565b610eb2919061240c565b8254909150600090600160401b900463ffffffff1667ffffffffffffffff811115610edf57610edf61203f565b604051908082528060200260200182016040528015610f08578160200160208202803683370190505b50905060005b835463ffffffff600160401b9091048116908216108015610f35575060038163ffffffff16105b15610f8457610f4560028461240c565b82610f51836001612365565b63ffffffff1681518110610f6757610f676122b7565b602090810291909101015280610f7c816122fb565b915050610f0e565b50610f9060088361240c565b83549092506004600160401b90910463ffffffff161115611132576000612710610fbb84600a6123d7565b610fc69060086123d7565b610fd0919061240c565b8454909150600090610ff190600490600160401b900463ffffffff16612340565b855463ffffffff9182169161101191600391600160401b90910416612340565b865463ffffffff918216916127109161103491600160401b909104166014612420565b61104090610a00612340565b63ffffffff166110518860086123d7565b61105b91906123d7565b611065919061240c565b61106f919061240c565b611079919061240c565b855490915060009061109a90600290600160401b900463ffffffff16612340565b90505b60038163ffffffff161061112e576110b582846122e3565b925082846110c4836001612365565b63ffffffff16815181106110da576110da6122b7565b6020908102919091010152836110f1826001612365565b63ffffffff1681518110611107576111076122b7565b60200260200101518561111a919061244c565b94508061112681612463565b91505061109d565b5050505b82546003600160401b90910463ffffffff16111561117c578254815183918391600160401b90910463ffffffff1690811061116f5761116f6122b7565b6020026020010181815250505b949350505050565b63ffffffff808216600090815260016020526040812080546060939192916111be91600160401b8104821691600160201b90910416612340565b63ffffffff1667ffffffffffffffff8111156111dc576111dc61203f565b604051908082528060200260200182016040528015611205578160200160208202803683370190505b50825490915063ffffffff600160401b82048116600160201b909204160361122e579392505050565b6000805b835463ffffffff600160201b909104811690821610156112c25763ffffffff811660009081526005850160205260409020546001600160a01b03166112b05780838361127d816122fb565b945063ffffffff1681518110611295576112956122b7565b602002602001019063ffffffff16908163ffffffff16815250505b806112ba816122fb565b915050611232565b5090949350505050565b60005463ffffffff908116908216111561131e5760405162461bcd60e51b8152602060048201526013602482015272213abc9d1034b73b30b634b2103937bab7321760691b60448201526064016102cf565b63ffffffff8116600090815260016020819052604090912060098101549091600160e01b90910460ff16146113955760405162461bcd60e51b815260206004820152601b60248201527f4275793a20726f756e6420776173206e6f7420737461727465642e000000000060448201526064016102cf565b805463ffffffff600160401b82048116600160201b90920416116114055760405162461bcd60e51b815260206004820152602160248201527f4275793a20616c6c207469636b6574206861766520616c726561647920736f6c6044820152601960fa1b60648201526084016102cf565b600181015433600090815260048301602052604090205463ffffffff91821691161061146b5760405162461bcd60e51b8152602060048201526015602482015274213abc9d1031b0b73737ba10313abc9036b7b9329760591b60448201526064016102cf565b600354600160401b90046001600160a01b03161580159061148d575060045415155b1561155a57600480546003546040516370a0823160e01b815233938101939093529091600160401b9091046001600160a01b0316906370a0823190602401602060405180830381865afa1580156114e8573d6000803e3d6000fd5b505050506040513d601f19601f8201168201806040525081019061150c9190612483565b101561155a5760405162461bcd60e51b815260206004820152601d60248201527f4275793a20696e73756666696369656e74206d656d626572736869702e00000060448201526064016102cf565b8054600160601b90046001600160a01b03166115c157806002015434146115bc5760405162461bcd60e51b8152602060048201526016602482015275213abc9d1034b739bab33334b1b4b2b73a1022aa241760511b60448201526064016102cf565b61170d565b600281015481546040516370a0823160e01b8152336004820152600160601b9091046001600160a01b0316906370a0823190602401602060405180830381865afa158015611613573d6000803e3d6000fd5b505050506040513d601f19601f820116820180604052508101906116379190612483565b10156116855760405162461bcd60e51b815260206004820152601960248201527f4275793a20696e737566666963656e742062616c616e63652e0000000000000060448201526064016102cf565b805460028201546040516323b872dd60e01b81523360048201523060248201526044810191909152600160601b9091046001600160a01b0316906323b872dd906064016020604051808303816000875af11580156116e7573d6000803e3d6000fd5b505050506040513d601f19601f8201168201806040525081019061170b919061231e565b505b80546000906117329063ffffffff600160401b8204811691600160201b900416612340565b825460408051426020820152449181019190915263ffffffff918216606082015233608082015291169060a0016040516020818303038152906040528051906020012060001c611782919061249c565b9050600061178f84611184565b905060008183815181106117a5576117a56122b7565b6020908102919091018101513360009081526004870190925260408220805491935063ffffffff909116916117d9836122fb565b82546101009290920a63ffffffff818102199093169183160217909155828116600090815260058701602052604090208054336001600160a01b03199091161790558554600160401b9004169050846008611833836122fb565b91906101000a81548163ffffffff021916908363ffffffff16021790555050336001600160a01b03168563ffffffff167ffddd5b9f0be592b6fbf70226cba434658b6522ec30a80e30101fb43f1fb148428360405161189e919063ffffffff91909116815260200190565b60405180910390a35050505050565b6118b5611e4c565b600380546001600160a01b03909316600160401b0268010000000000000000600160e01b031990931692909217909155600455565b6118f2611e4c565b6005805467ffffffffffffffff909316600160a01b026001600160e01b03199093166001600160a01b039094169390931791909117909155600655565b63ffffffff8082166000908152600160209081526040808320338452600481019092528220546060939192911667ffffffffffffffff8111156119745761197461203f565b60405190808252806020026020018201604052801561199d578160200160208202803683370190505b5033600090815260048401602052604081205491925063ffffffff90911690036119c8579392505050565b6000805b835463ffffffff600160201b909104811690821610156112c25763ffffffff81166000908152600585016020526040902054336001600160a01b0390911603611a4e57808383611a1b816122fb565b945063ffffffff1681518110611a3357611a336122b7565b602002602001019063ffffffff16908163ffffffff16815250505b80611a58816122fb565b9150506119cc565b611a68611e4c565b60005463ffffffff90811690821610611ac35760405162461bcd60e51b815260206004820152601c60248201527f53746172743a20726f756e6420646f6573206e6f742065786973742e0000000060448201526064016102cf565b63ffffffff811660009081526001602052604090206009810154600160e01b900460ff1615611b045760405162461bcd60e51b81526004016102cf9061238d565b60098101805460ff60e01b1963ffffffff428116600160a01b029190911668ff00000000ffffffff60a01b1990921691909117600160e01b1790915581546040519116907f44fab5c68287771a7158cdf4fe25913e0913501736be127ee0c8525fd0ae03f290600090a25050565b611b7a611e4c565b60008363ffffffff1611611bda5760405162461bcd60e51b815260206004820152602160248201527f4372656174653a207469636b657420636f756e74206973206e656761746976656044820152601760f91b60648201526084016102cf565b60008211611c2a5760405162461bcd60e51b815260206004820152601a60248201527f4372656174653a207072696365206973206e656761746976652e00000000000060448201526064016102cf565b60008054600190829063ffffffff168180611c44836122fb565b82546101009290920a63ffffffff8181021990931691831602179091559081168252602082019290925260409081016000908120815481546002830189905590851667ffffffffffffffff1990911617600160201b89861602176bffffffffffffffffffffffff8116600160601b6001600160a01b0389160290811783556001838101805463ffffffff19169091179055935191955084169290931691909117917fbe18715b5860cd7b6bc97c775900d5482d00c1cce75dd8f7186b527757006d989190a250505050565b611d17611e4c565b611d2081611ed5565b5063ffffffff81811660009081526001602081905260408220600554600654825492956001600160a01b03831695948694635d3b1d3094600160a01b900467ffffffffffffffff1692600392620186a092611d8392600160401b90910416612340565b6040516001600160e01b031960e088901b168152600481019590955267ffffffffffffffff909316602485015261ffff909116604484015263ffffffff908116606484015216608482015260a4016020604051808303816000875af1158015611df0573d6000803e3d6000fd5b505050506040513d601f19601f82011682018060405250810190611e149190612483565b9050611e21846001612365565b600091825260026020526040909120805463ffffffff191663ffffffff909216919091179055505050565b7fc8fcad8db84d3cc18b4c41d551ea0ee66dd599cde068d998e57d5e09332c131c600401546001600160a01b03163314611ed35760405162461bcd60e51b815260206004820152602260248201527f4c69624469616d6f6e643a204d75737420626520636f6e7472616374206f776e60448201526132b960f11b60648201526084016102cf565b565b6000805463ffffffff9081169083161115611f295760405162461bcd60e51b8152602060048201526014602482015273223930bb9d1034b73b30b634b2103937bab7321760611b60448201526064016102cf565b63ffffffff8216600090815260016020819052604090912060098101549091600160e01b90910460ff1614611fa05760405162461bcd60e51b815260206004820152601c60248201527f447261773a20726f756e6420776173206e6f7420737461727465642e0000000060448201526064016102cf565b8054600160401b900463ffffffff16611ffb5760405162461bcd60e51b815260206004820152601960248201527f447261773a204e6f207469636b65742077617320736f6c642e0000000000000060448201526064016102cf565b50600192915050565b803563ffffffff8116811461201857600080fd5b919050565b60006020828403121561202f57600080fd5b61203882612004565b9392505050565b634e487b7160e01b600052604160045260246000fd5b6000806040838503121561206857600080fd5b8235915060208084013567ffffffffffffffff8082111561208857600080fd5b818601915086601f83011261209c57600080fd5b8135818111156120ae576120ae61203f565b8060051b604051601f19603f830116810181811085821117156120d3576120d361203f565b6040529182528482019250838101850191898311156120f157600080fd5b938501935b8285101561210f578435845293850193928501926120f6565b8096505050505050509250929050565b80356001600160a01b038116811461201857600080fd5b6000806000806080858703121561214c57600080fd5b61215585612004565b935061216360208601612004565b9250604085013591506121786060860161211f565b905092959194509250565b6020808252825182820181905260009190848201906040850190845b818110156121bb5783518352928401929184019160010161219f565b50909695505050505050565b6020808252825182820181905260009190848201906040850190845b818110156121bb57835163ffffffff16835292840192918401916001016121e3565b6000806040838503121561221857600080fd5b6122218361211f565b946020939093013593505050565b60008060006060848603121561224457600080fd5b61224d8461211f565b9250602084013567ffffffffffffffff8116811461226a57600080fd5b929592945050506040919091013590565b60008060006060848603121561229057600080fd5b61229984612004565b9250602084013591506122ae6040850161211f565b90509250925092565b634e487b7160e01b600052603260045260246000fd5b634e487b7160e01b600052601160045260246000fd5b600082198211156122f6576122f66122cd565b500190565b600063ffffffff808316818103612314576123146122cd565b6001019392505050565b60006020828403121561233057600080fd5b8151801515811461203857600080fd5b600063ffffffff8381169083168181101561235d5761235d6122cd565b039392505050565b600063ffffffff808316818516808303821115612384576123846122cd565b01949350505050565b6020808252602a908201527f5570646174653a20726f756e64207761732073746172746564206f722066696e60408201526934b9b432b2103cb2ba1760b11b606082015260800190565b60008160001904831182151516156123f1576123f16122cd565b500290565b634e487b7160e01b600052601260045260246000fd5b60008261241b5761241b6123f6565b500490565b600063ffffffff80831681851681830481118215151615612443576124436122cd565b02949350505050565b60008282101561245e5761245e6122cd565b500390565b600063ffffffff821680612479576124796122cd565b6000190192915050565b60006020828403121561249557600080fd5b5051919050565b6000826124ab576124ab6123f6565b50069056fea2646970667358221220a1cc96e1485f49b4b6506fbc858bc1ebec6822d55cb6a44e5cbcdce9a2a5ad7364736f6c634300080d0033","opcodes":"PUSH1 0x80 PUSH1 0x40 MSTORE CALLVALUE DUP1 ISZERO PUSH2 0x10 JUMPI PUSH1 0x0 DUP1 REVERT JUMPDEST POP PUSH2 0x24E6 DUP1 PUSH2 0x20 PUSH1 0x0 CODECOPY PUSH1 0x0 RETURN INVALID PUSH1 0x80 PUSH1 0x40 MSTORE PUSH1 0x4 CALLDATASIZE LT PUSH2 0xC2 JUMPI PUSH1 0x0 CALLDATALOAD PUSH1 0xE0 SHR DUP1 PUSH4 0x7DB5BD52 GT PUSH2 0x7F JUMPI DUP1 PUSH4 0x9DBDADEE GT PUSH2 0x59 JUMPI DUP1 PUSH4 0x9DBDADEE EQ PUSH2 0x1FF JUMPI DUP1 PUSH4 0xB63E0CD8 EQ PUSH2 0x21F JUMPI DUP1 PUSH4 0xC305163D EQ PUSH2 0x23F JUMPI DUP1 PUSH4 0xE6F36328 EQ PUSH2 0x25F JUMPI PUSH1 0x0 DUP1 REVERT JUMPDEST DUP1 PUSH4 0x7DB5BD52 EQ PUSH2 0x1AC JUMPI DUP1 PUSH4 0x924AF1BC EQ PUSH2 0x1BF JUMPI DUP1 PUSH4 0x9CF9A4F8 EQ PUSH2 0x1DF JUMPI PUSH1 0x0 DUP1 REVERT JUMPDEST DUP1 PUSH4 0x4951891 EQ PUSH2 0xC7 JUMPI DUP1 PUSH4 0x1FE543E3 EQ PUSH2 0xE9 JUMPI DUP1 PUSH4 0x36CEEA0D EQ PUSH2 0x109 JUMPI DUP1 PUSH4 0x54EFC139 EQ PUSH2 0x129 JUMPI DUP1 PUSH4 0x72AB8441 EQ PUSH2 0x149 JUMPI DUP1 PUSH4 0x7BB9F9EF EQ PUSH2 0x17F JUMPI JUMPDEST PUSH1 0x0 DUP1 REVERT JUMPDEST CALLVALUE DUP1 ISZERO PUSH2 0xD3 JUMPI PUSH1 0x0 DUP1 REVERT JUMPDEST POP PUSH2 0xE7 PUSH2 0xE2 CALLDATASIZE PUSH1 0x4 PUSH2 0x201D JUMP JUMPDEST PUSH2 0x27F JUMP JUMPDEST STOP JUMPDEST CALLVALUE DUP1 ISZERO PUSH2 0xF5 JUMPI PUSH1 0x0 DUP1 REVERT JUMPDEST POP PUSH2 0xE7 PUSH2 0x104 CALLDATASIZE PUSH1 0x4 PUSH2 0x2055 JUMP JUMPDEST PUSH2 0x605 JUMP JUMPDEST CALLVALUE DUP1 ISZERO PUSH2 0x115 JUMPI PUSH1 0x0 DUP1 REVERT JUMPDEST POP PUSH2 0xE7 PUSH2 0x124 CALLDATASIZE PUSH1 0x4 PUSH2 0x201D JUMP JUMPDEST PUSH2 0x755 JUMP JUMPDEST CALLVALUE DUP1 ISZERO PUSH2 0x135 JUMPI PUSH1 0x0 DUP1 REVERT JUMPDEST POP PUSH2 0xE7 PUSH2 0x144 CALLDATASIZE PUSH1 0x4 PUSH2 0x2136 JUMP JUMPDEST PUSH2 0xC23 JUMP JUMPDEST CALLVALUE DUP1 ISZERO PUSH2 0x155 JUMPI PUSH1 0x0 DUP1 REVERT JUMPDEST POP PUSH2 0x169 PUSH2 0x164 CALLDATASIZE PUSH1 0x4 PUSH2 0x201D JUMP JUMPDEST PUSH2 0xDF8 JUMP JUMPDEST PUSH1 0x40 MLOAD PUSH2 0x176 SWAP2 SWAP1 PUSH2 0x2183 JUMP JUMPDEST PUSH1 0x40 MLOAD DUP1 SWAP2 SUB SWAP1 RETURN JUMPDEST CALLVALUE DUP1 ISZERO PUSH2 0x18B JUMPI PUSH1 0x0 DUP1 REVERT JUMPDEST POP PUSH2 0x19F PUSH2 0x19A CALLDATASIZE PUSH1 0x4 PUSH2 0x201D JUMP JUMPDEST PUSH2 0x1184 JUMP JUMPDEST PUSH1 0x40 MLOAD PUSH2 0x176 SWAP2 SWAP1 PUSH2 0x21C7 JUMP JUMPDEST PUSH2 0xE7 PUSH2 0x1BA CALLDATASIZE PUSH1 0x4 PUSH2 0x201D JUMP JUMPDEST PUSH2 0x12CC JUMP JUMPDEST CALLVALUE DUP1 ISZERO PUSH2 0x1CB JUMPI PUSH1 0x0 DUP1 REVERT JUMPDEST POP PUSH2 0xE7 PUSH2 0x1DA CALLDATASIZE PUSH1 0x4 PUSH2 0x2205 JUMP JUMPDEST PUSH2 0x18AD JUMP JUMPDEST CALLVALUE DUP1 ISZERO PUSH2 0x1EB JUMPI PUSH1 0x0 DUP1 REVERT JUMPDEST POP PUSH2 0xE7 PUSH2 0x1FA CALLDATASIZE PUSH1 0x4 PUSH2 0x222F JUMP JUMPDEST PUSH2 0x18EA JUMP JUMPDEST CALLVALUE DUP1 ISZERO PUSH2 0x20B JUMPI PUSH1 0x0 DUP1 REVERT JUMPDEST POP PUSH2 0x19F PUSH2 0x21A CALLDATASIZE PUSH1 0x4 PUSH2 0x201D JUMP JUMPDEST PUSH2 0x192F JUMP JUMPDEST CALLVALUE DUP1 ISZERO PUSH2 0x22B JUMPI PUSH1 0x0 DUP1 REVERT JUMPDEST POP PUSH2 0xE7 PUSH2 0x23A CALLDATASIZE PUSH1 0x4 PUSH2 0x201D JUMP JUMPDEST PUSH2 0x1A60 JUMP JUMPDEST CALLVALUE DUP1 ISZERO PUSH2 0x24B JUMPI PUSH1 0x0 DUP1 REVERT JUMPDEST POP PUSH2 0xE7 PUSH2 0x25A CALLDATASIZE PUSH1 0x4 PUSH2 0x227B JUMP JUMPDEST PUSH2 0x1B72 JUMP JUMPDEST CALLVALUE DUP1 ISZERO PUSH2 0x26B JUMPI PUSH1 0x0 DUP1 REVERT JUMPDEST POP PUSH2 0xE7 PUSH2 0x27A CALLDATASIZE PUSH1 0x4 PUSH2 0x201D JUMP JUMPDEST PUSH2 0x1D0F JUMP JUMPDEST PUSH1 0x0 SLOAD PUSH4 0xFFFFFFFF SWAP1 DUP2 AND SWAP1 DUP3 AND GT ISZERO PUSH2 0x2D8 JUMPI PUSH1 0x40 MLOAD PUSH3 0x461BCD PUSH1 0xE5 SHL DUP2 MSTORE PUSH1 0x20 PUSH1 0x4 DUP3 ADD MSTORE PUSH1 0x15 PUSH1 0x24 DUP3 ADD MSTORE PUSH21 0x21B630B4B69D1034B73B30B634B2103937BAB73217 PUSH1 0x59 SHL PUSH1 0x44 DUP3 ADD MSTORE PUSH1 0x64 ADD JUMPDEST PUSH1 0x40 MLOAD DUP1 SWAP2 SUB SWAP1 REVERT JUMPDEST PUSH4 0xFFFFFFFF DUP2 AND PUSH1 0x0 SWAP1 DUP2 MSTORE PUSH1 0x1 PUSH1 0x20 MSTORE PUSH1 0x40 SWAP1 KECCAK256 PUSH1 0x9 DUP2 ADD SLOAD PUSH1 0x1 PUSH1 0xE0 SHL SWAP1 DIV PUSH1 0xFF AND PUSH1 0x3 EQ PUSH2 0x34B JUMPI PUSH1 0x40 MLOAD PUSH3 0x461BCD PUSH1 0xE5 SHL DUP2 MSTORE PUSH1 0x20 PUSH1 0x4 DUP3 ADD MSTORE PUSH1 0x1E PUSH1 0x24 DUP3 ADD MSTORE PUSH32 0x436C61696D3A20726F756E6420776173206E6F742066696E69736865642E0000 PUSH1 0x44 DUP3 ADD MSTORE PUSH1 0x64 ADD PUSH2 0x2CF JUMP JUMPDEST CALLER PUSH1 0x0 SWAP1 DUP2 MSTORE PUSH1 0x3 DUP3 ADD PUSH1 0x20 MSTORE PUSH1 0x40 SWAP1 KECCAK256 SLOAD PUSH1 0xFF AND ISZERO PUSH2 0x3AD JUMPI PUSH1 0x40 MLOAD PUSH3 0x461BCD PUSH1 0xE5 SHL DUP2 MSTORE PUSH1 0x20 PUSH1 0x4 DUP3 ADD MSTORE PUSH1 0x17 PUSH1 0x24 DUP3 ADD MSTORE PUSH32 0x436C61696D3A20616C726561647920636C61696D65642E000000000000000000 PUSH1 0x44 DUP3 ADD MSTORE PUSH1 0x64 ADD PUSH2 0x2CF JUMP JUMPDEST CALLER PUSH1 0x0 SWAP1 DUP2 MSTORE PUSH1 0x4 DUP3 ADD PUSH1 0x20 MSTORE PUSH1 0x40 SWAP1 KECCAK256 SLOAD PUSH4 0xFFFFFFFF AND PUSH2 0x411 JUMPI PUSH1 0x40 MLOAD PUSH3 0x461BCD PUSH1 0xE5 SHL DUP2 MSTORE PUSH1 0x20 PUSH1 0x4 DUP3 ADD MSTORE PUSH1 0x1A PUSH1 0x24 DUP3 ADD MSTORE PUSH32 0x436C61696D3A20646964206E6F7420627579207469636B65742E000000000000 PUSH1 0x44 DUP3 ADD MSTORE PUSH1 0x64 ADD PUSH2 0x2CF JUMP JUMPDEST PUSH1 0x0 PUSH2 0x41C DUP4 PUSH2 0x192F JUMP JUMPDEST SWAP1 POP PUSH1 0x0 DUP1 PUSH2 0x42A DUP6 PUSH2 0xDF8 JUMP JUMPDEST SWAP1 POP PUSH1 0x0 JUMPDEST DUP4 MLOAD DUP2 PUSH4 0xFFFFFFFF AND LT ISZERO PUSH2 0x4BB JUMPI DUP2 DUP6 PUSH1 0x7 ADD PUSH1 0x0 DUP7 DUP5 PUSH4 0xFFFFFFFF AND DUP2 MLOAD DUP2 LT PUSH2 0x45D JUMPI PUSH2 0x45D PUSH2 0x22B7 JUMP JUMPDEST PUSH1 0x20 SWAP1 DUP2 MUL SWAP2 SWAP1 SWAP2 ADD DUP2 ADD MLOAD PUSH4 0xFFFFFFFF SWAP1 DUP2 AND DUP4 MSTORE SWAP1 DUP3 ADD SWAP3 SWAP1 SWAP3 MSTORE PUSH1 0x40 ADD PUSH1 0x0 KECCAK256 SLOAD DUP3 MLOAD SWAP2 AND SWAP1 DUP2 LT PUSH2 0x494 JUMPI PUSH2 0x494 PUSH2 0x22B7 JUMP JUMPDEST PUSH1 0x20 MUL PUSH1 0x20 ADD ADD MLOAD DUP4 PUSH2 0x4A7 SWAP2 SWAP1 PUSH2 0x22E3 JUMP JUMPDEST SWAP3 POP DUP1 PUSH2 0x4B3 DUP2 PUSH2 0x22FB JUMP JUMPDEST SWAP2 POP POP PUSH2 0x42F JUMP JUMPDEST POP PUSH1 0x0 DUP3 GT PUSH2 0x503 JUMPI PUSH1 0x40 MLOAD PUSH3 0x461BCD PUSH1 0xE5 SHL DUP2 MSTORE PUSH1 0x20 PUSH1 0x4 DUP3 ADD MSTORE PUSH1 0x14 PUSH1 0x24 DUP3 ADD MSTORE PUSH20 0x21B630B4B69D1037379031B630B4B6B0B1363297 PUSH1 0x61 SHL PUSH1 0x44 DUP3 ADD MSTORE PUSH1 0x64 ADD PUSH2 0x2CF JUMP JUMPDEST DUP4 SLOAD PUSH1 0x1 PUSH1 0x60 SHL SWAP1 DIV PUSH1 0x1 PUSH1 0x1 PUSH1 0xA0 SHL SUB AND PUSH2 0x566 JUMPI PUSH1 0x40 MLOAD CALLER SWAP1 DUP4 SWAP1 PUSH1 0x0 DUP2 DUP2 DUP2 DUP6 DUP8 GAS CALL SWAP3 POP POP POP RETURNDATASIZE DUP1 PUSH1 0x0 DUP2 EQ PUSH2 0x559 JUMPI PUSH1 0x40 MLOAD SWAP2 POP PUSH1 0x1F NOT PUSH1 0x3F RETURNDATASIZE ADD AND DUP3 ADD PUSH1 0x40 MSTORE RETURNDATASIZE DUP3 MSTORE RETURNDATASIZE PUSH1 0x0 PUSH1 0x20 DUP5 ADD RETURNDATACOPY PUSH2 0x55E JUMP JUMPDEST PUSH1 0x60 SWAP2 POP JUMPDEST POP POP POP PUSH2 0x5E2 JUMP JUMPDEST DUP4 SLOAD PUSH1 0x40 MLOAD PUSH4 0xA9059CBB PUSH1 0xE0 SHL DUP2 MSTORE CALLER PUSH1 0x4 DUP3 ADD MSTORE PUSH1 0x24 DUP2 ADD DUP5 SWAP1 MSTORE PUSH1 0x1 PUSH1 0x60 SHL SWAP1 SWAP2 DIV PUSH1 0x1 PUSH1 0x1 PUSH1 0xA0 SHL SUB AND SWAP1 PUSH4 0xA9059CBB SWAP1 PUSH1 0x44 ADD PUSH1 0x20 PUSH1 0x40 MLOAD DUP1 DUP4 SUB DUP2 PUSH1 0x0 DUP8 GAS CALL ISZERO DUP1 ISZERO PUSH2 0x5BC JUMPI RETURNDATASIZE PUSH1 0x0 DUP1 RETURNDATACOPY RETURNDATASIZE PUSH1 0x0 REVERT JUMPDEST POP POP POP POP PUSH1 0x40 MLOAD RETURNDATASIZE PUSH1 0x1F NOT PUSH1 0x1F DUP3 ADD AND DUP3 ADD DUP1 PUSH1 0x40 MSTORE POP DUP2 ADD SWAP1 PUSH2 0x5E0 SWAP2 SWAP1 PUSH2 0x231E JUMP JUMPDEST POP JUMPDEST POP POP CALLER PUSH1 0x0 SWAP1 DUP2 MSTORE PUSH1 0x3 SWAP1 SWAP3 ADD PUSH1 0x20 MSTORE POP PUSH1 0x40 SWAP1 KECCAK256 DUP1 SLOAD PUSH1 0xFF NOT AND PUSH1 0x1 OR SWAP1 SSTORE POP JUMP JUMPDEST PUSH1 0x5 SLOAD PUSH1 0x1 PUSH1 0x1 PUSH1 0xA0 SHL SUB AND CALLER EQ DUP1 ISZERO PUSH2 0x632 JUMPI POP PUSH1 0x0 DUP3 DUP2 MSTORE PUSH1 0x2 PUSH1 0x20 MSTORE PUSH1 0x40 SWAP1 KECCAK256 SLOAD PUSH4 0xFFFFFFFF AND ISZERO ISZERO JUMPDEST ISZERO PUSH2 0x751 JUMPI PUSH1 0x0 DUP3 DUP2 MSTORE PUSH1 0x2 PUSH1 0x20 MSTORE PUSH1 0x40 DUP2 KECCAK256 SLOAD PUSH2 0x658 SWAP1 PUSH1 0x1 SWAP1 PUSH4 0xFFFFFFFF AND PUSH2 0x2340 JUMP JUMPDEST PUSH4 0xFFFFFFFF DUP2 AND PUSH1 0x0 SWAP1 DUP2 MSTORE PUSH1 0x1 PUSH1 0x20 MSTORE PUSH1 0x40 DUP2 KECCAK256 SWAP2 SWAP3 POP JUMPDEST DUP2 SLOAD PUSH2 0x68C SWAP1 PUSH1 0x1 SWAP1 PUSH1 0x1 PUSH1 0x40 SHL SWAP1 DIV PUSH4 0xFFFFFFFF AND PUSH2 0x2340 JUMP JUMPDEST PUSH4 0xFFFFFFFF AND DUP2 PUSH4 0xFFFFFFFF AND LT ISZERO PUSH2 0x6EE JUMPI DUP4 DUP2 PUSH4 0xFFFFFFFF AND DUP2 MLOAD DUP2 LT PUSH2 0x6B7 JUMPI PUSH2 0x6B7 PUSH2 0x22B7 JUMP JUMPDEST PUSH1 0x20 SWAP1 DUP2 MUL SWAP2 SWAP1 SWAP2 ADD DUP2 ADD MLOAD PUSH4 0xFFFFFFFF DUP4 AND PUSH1 0x0 SWAP1 DUP2 MSTORE PUSH1 0x8 DUP6 ADD SWAP1 SWAP3 MSTORE PUSH1 0x40 SWAP1 SWAP2 KECCAK256 SSTORE DUP1 PUSH2 0x6E6 DUP2 PUSH2 0x22FB JUMP JUMPDEST SWAP2 POP POP PUSH2 0x671 JUMP JUMPDEST POP PUSH1 0x9 DUP2 ADD DUP1 SLOAD PUSH1 0xFF PUSH1 0xE0 SHL NOT AND PUSH1 0x1 PUSH1 0xE1 SHL OR SWAP1 SSTORE PUSH1 0x0 DUP5 DUP2 MSTORE PUSH1 0x2 PUSH1 0x20 MSTORE PUSH1 0x40 DUP1 DUP3 KECCAK256 DUP1 SLOAD PUSH4 0xFFFFFFFF NOT AND SWAP1 SSTORE DUP3 SLOAD SWAP1 MLOAD PUSH4 0xFFFFFFFF SWAP1 SWAP2 AND SWAP2 PUSH32 0xD17F1B6062BDEC6B66D7C7202AA93CA5242807F46AA32C20FDD8F6D0586293ED SWAP2 LOG2 POP POP JUMPDEST POP POP JUMP JUMPDEST PUSH2 0x75D PUSH2 0x1E4C JUMP JUMPDEST PUSH1 0x0 SLOAD PUSH4 0xFFFFFFFF SWAP1 DUP2 AND SWAP1 DUP3 AND GT ISZERO PUSH2 0x7B2 JUMPI PUSH1 0x40 MLOAD PUSH3 0x461BCD PUSH1 0xE5 SHL DUP2 MSTORE PUSH1 0x20 PUSH1 0x4 DUP3 ADD MSTORE PUSH1 0x16 PUSH1 0x24 DUP3 ADD MSTORE PUSH22 0x2334B734B9B41D1034B73B30B634B2103937BAB73217 PUSH1 0x51 SHL PUSH1 0x44 DUP3 ADD MSTORE PUSH1 0x64 ADD PUSH2 0x2CF JUMP JUMPDEST PUSH4 0xFFFFFFFF DUP2 AND PUSH1 0x0 SWAP1 DUP2 MSTORE PUSH1 0x1 PUSH1 0x20 MSTORE PUSH1 0x40 SWAP1 KECCAK256 PUSH1 0x9 DUP2 ADD SLOAD PUSH1 0x1 PUSH1 0xE0 SHL SWAP1 DIV PUSH1 0xFF AND PUSH1 0x2 EQ PUSH2 0x825 JUMPI PUSH1 0x40 MLOAD PUSH3 0x461BCD PUSH1 0xE5 SHL DUP2 MSTORE PUSH1 0x20 PUSH1 0x4 DUP3 ADD MSTORE PUSH1 0x1C PUSH1 0x24 DUP3 ADD MSTORE PUSH32 0x46696E6973683A20726F756E6420776173206E6F7420647261776E2E00000000 PUSH1 0x44 DUP3 ADD MSTORE PUSH1 0x64 ADD PUSH2 0x2CF JUMP JUMPDEST PUSH1 0x9 DUP2 ADD DUP1 SLOAD PUSH4 0xFFFFFFFF TIMESTAMP DUP2 AND PUSH1 0x1 PUSH1 0xC0 SHL MUL PUSH5 0xFFFFFFFFFF PUSH1 0xC0 SHL NOT SWAP1 SWAP3 AND SWAP2 SWAP1 SWAP2 OR PUSH1 0x3 PUSH1 0xE0 SHL OR SWAP1 SWAP2 SSTORE DUP2 SLOAD PUSH1 0x0 SWAP2 PUSH1 0x1 PUSH1 0x40 SHL SWAP1 SWAP2 DIV AND PUSH8 0xFFFFFFFFFFFFFFFF DUP2 GT ISZERO PUSH2 0x879 JUMPI PUSH2 0x879 PUSH2 0x203F JUMP JUMPDEST PUSH1 0x40 MLOAD SWAP1 DUP1 DUP3 MSTORE DUP1 PUSH1 0x20 MUL PUSH1 0x20 ADD DUP3 ADD PUSH1 0x40 MSTORE DUP1 ISZERO PUSH2 0x8A2 JUMPI DUP2 PUSH1 0x20 ADD PUSH1 0x20 DUP3 MUL DUP1 CALLDATASIZE DUP4 CALLDATACOPY ADD SWAP1 POP JUMPDEST POP SWAP1 POP PUSH1 0x0 DUP1 JUMPDEST DUP4 SLOAD PUSH4 0xFFFFFFFF PUSH1 0x1 PUSH1 0x20 SHL SWAP1 SWAP2 DIV DUP2 AND SWAP1 DUP3 AND LT ISZERO PUSH2 0x93A JUMPI PUSH4 0xFFFFFFFF DUP2 AND PUSH1 0x0 SWAP1 DUP2 MSTORE PUSH1 0x5 DUP6 ADD PUSH1 0x20 MSTORE PUSH1 0x40 SWAP1 KECCAK256 SLOAD PUSH1 0x1 PUSH1 0x1 PUSH1 0xA0 SHL SUB AND ISZERO PUSH2 0x928 JUMPI DUP1 DUP4 DUP4 PUSH2 0x8F5 DUP2 PUSH2 0x22FB JUMP JUMPDEST SWAP5 POP PUSH4 0xFFFFFFFF AND DUP2 MLOAD DUP2 LT PUSH2 0x90D JUMPI PUSH2 0x90D PUSH2 0x22B7 JUMP JUMPDEST PUSH1 0x20 MUL PUSH1 0x20 ADD ADD SWAP1 PUSH4 0xFFFFFFFF AND SWAP1 DUP2 PUSH4 0xFFFFFFFF AND DUP2 MSTORE POP POP JUMPDEST DUP1 PUSH2 0x932 DUP2 PUSH2 0x22FB JUMP JUMPDEST SWAP2 POP POP PUSH2 0x8A9 JUMP JUMPDEST POP PUSH1 0x0 JUMPDEST DUP4 SLOAD PUSH2 0x959 SWAP1 PUSH1 0x1 SWAP1 PUSH1 0x1 PUSH1 0x40 SHL SWAP1 DIV PUSH4 0xFFFFFFFF AND PUSH2 0x2340 JUMP JUMPDEST PUSH4 0xFFFFFFFF AND DUP2 PUSH4 0xFFFFFFFF AND LT ISZERO PUSH2 0xAF0 JUMPI PUSH1 0x0 DUP4 DUP3 PUSH4 0xFFFFFFFF AND DUP2 MLOAD DUP2 LT PUSH2 0x986 JUMPI PUSH2 0x986 PUSH2 0x22B7 JUMP JUMPDEST PUSH1 0x20 MUL PUSH1 0x20 ADD ADD MLOAD SWAP1 POP DUP2 PUSH1 0x1 PUSH2 0x99D SWAP2 SWAP1 PUSH2 0x2365 JUMP JUMPDEST SWAP3 POP JUMPDEST DUP5 SLOAD PUSH4 0xFFFFFFFF PUSH1 0x1 PUSH1 0x40 SHL SWAP1 SWAP2 DIV DUP2 AND SWAP1 DUP5 AND LT ISZERO PUSH2 0xADD JUMPI DUP5 PUSH1 0x8 ADD PUSH1 0x0 DUP6 DUP6 PUSH4 0xFFFFFFFF AND DUP2 MLOAD DUP2 LT PUSH2 0x9D8 JUMPI PUSH2 0x9D8 PUSH2 0x22B7 JUMP JUMPDEST PUSH1 0x20 MUL PUSH1 0x20 ADD ADD MLOAD PUSH4 0xFFFFFFFF AND PUSH4 0xFFFFFFFF AND DUP2 MSTORE PUSH1 0x20 ADD SWAP1 DUP2 MSTORE PUSH1 0x20 ADD PUSH1 0x0 KECCAK256 SLOAD DUP6 PUSH1 0x8 ADD PUSH1 0x0 DUP4 PUSH4 0xFFFFFFFF AND PUSH4 0xFFFFFFFF AND DUP2 MSTORE PUSH1 0x20 ADD SWAP1 DUP2 MSTORE PUSH1 0x20 ADD PUSH1 0x0 KECCAK256 SLOAD GT ISZERO PUSH2 0xACB JUMPI DUP4 DUP4 PUSH4 0xFFFFFFFF AND DUP2 MLOAD DUP2 LT PUSH2 0xA3B JUMPI PUSH2 0xA3B PUSH2 0x22B7 JUMP JUMPDEST PUSH1 0x20 MUL PUSH1 0x20 ADD ADD MLOAD SWAP1 POP DUP4 DUP3 PUSH4 0xFFFFFFFF AND DUP2 MLOAD DUP2 LT PUSH2 0xA5D JUMPI PUSH2 0xA5D PUSH2 0x22B7 JUMP JUMPDEST PUSH1 0x20 MUL PUSH1 0x20 ADD ADD MLOAD DUP5 DUP5 PUSH4 0xFFFFFFFF AND DUP2 MLOAD DUP2 LT PUSH2 0xA7D JUMPI PUSH2 0xA7D PUSH2 0x22B7 JUMP JUMPDEST PUSH1 0x20 MUL PUSH1 0x20 ADD ADD SWAP1 PUSH4 0xFFFFFFFF AND SWAP1 DUP2 PUSH4 0xFFFFFFFF AND DUP2 MSTORE POP POP DUP1 DUP5 DUP4 PUSH4 0xFFFFFFFF AND DUP2 MLOAD DUP2 LT PUSH2 0xAB0 JUMPI PUSH2 0xAB0 PUSH2 0x22B7 JUMP JUMPDEST PUSH1 0x20 MUL PUSH1 0x20 ADD ADD SWAP1 PUSH4 0xFFFFFFFF AND SWAP1 DUP2 PUSH4 0xFFFFFFFF AND DUP2 MSTORE POP POP JUMPDEST DUP3 PUSH2 0xAD5 DUP2 PUSH2 0x22FB JUMP JUMPDEST SWAP4 POP POP PUSH2 0x9A0 JUMP JUMPDEST POP DUP1 PUSH2 0xAE8 DUP2 PUSH2 0x22FB JUMP JUMPDEST SWAP2 POP POP PUSH2 0x93E JUMP JUMPDEST POP PUSH1 0x0 JUMPDEST DUP4 SLOAD PUSH4 0xFFFFFFFF PUSH1 0x1 PUSH1 0x40 SHL SWAP1 SWAP2 DIV DUP2 AND SWAP1 DUP3 AND LT ISZERO PUSH2 0xBE8 JUMPI DUP3 DUP2 PUSH4 0xFFFFFFFF AND DUP2 MLOAD DUP2 LT PUSH2 0xB26 JUMPI PUSH2 0xB26 PUSH2 0x22B7 JUMP JUMPDEST PUSH1 0x20 MUL PUSH1 0x20 ADD ADD MLOAD DUP5 PUSH1 0x6 ADD PUSH1 0x0 DUP4 PUSH1 0x1 PUSH2 0xB41 SWAP2 SWAP1 PUSH2 0x2365 JUMP JUMPDEST PUSH4 0xFFFFFFFF SWAP1 DUP2 AND DUP3 MSTORE PUSH1 0x20 DUP3 ADD SWAP3 SWAP1 SWAP3 MSTORE PUSH1 0x40 ADD PUSH1 0x0 KECCAK256 DUP1 SLOAD PUSH4 0xFFFFFFFF NOT AND SWAP3 SWAP1 SWAP2 AND SWAP2 SWAP1 SWAP2 OR SWAP1 SSTORE PUSH2 0xB77 DUP2 PUSH1 0x1 PUSH2 0x2365 JUMP JUMPDEST DUP5 PUSH1 0x7 ADD PUSH1 0x0 DUP6 DUP5 PUSH4 0xFFFFFFFF AND DUP2 MLOAD DUP2 LT PUSH2 0xB95 JUMPI PUSH2 0xB95 PUSH2 0x22B7 JUMP JUMPDEST PUSH1 0x20 MUL PUSH1 0x20 ADD ADD MLOAD PUSH4 0xFFFFFFFF AND PUSH4 0xFFFFFFFF AND DUP2 MSTORE PUSH1 0x20 ADD SWAP1 DUP2 MSTORE PUSH1 0x20 ADD PUSH1 0x0 KECCAK256 PUSH1 0x0 PUSH2 0x100 EXP DUP2 SLOAD DUP2 PUSH4 0xFFFFFFFF MUL NOT AND SWAP1 DUP4 PUSH4 0xFFFFFFFF AND MUL OR SWAP1 SSTORE POP DUP1 DUP1 PUSH2 0xBE0 SWAP1 PUSH2 0x22FB JUMP JUMPDEST SWAP2 POP POP PUSH2 0xAF4 JUMP JUMPDEST POP DUP3 SLOAD PUSH1 0x40 MLOAD PUSH4 0xFFFFFFFF SWAP1 SWAP2 AND SWAP1 PUSH32 0xB4AAE5DCD713CFBCAF3E6AA1BE4E9E01A579E6C5E930D1AEF33AB13FD5002D7 SWAP1 PUSH1 0x0 SWAP1 LOG2 POP POP POP POP JUMP JUMPDEST PUSH2 0xC2B PUSH2 0x1E4C JUMP JUMPDEST PUSH1 0x0 SLOAD PUSH4 0xFFFFFFFF SWAP1 DUP2 AND SWAP1 DUP6 AND LT PUSH2 0xC86 JUMPI PUSH1 0x40 MLOAD PUSH3 0x461BCD PUSH1 0xE5 SHL DUP2 MSTORE PUSH1 0x20 PUSH1 0x4 DUP3 ADD MSTORE PUSH1 0x1D PUSH1 0x24 DUP3 ADD MSTORE PUSH32 0x5570646174653A20726F756E6420646F6573206E6F742065786973742E000000 PUSH1 0x44 DUP3 ADD MSTORE PUSH1 0x64 ADD PUSH2 0x2CF JUMP JUMPDEST PUSH1 0x0 DUP4 PUSH4 0xFFFFFFFF AND GT PUSH2 0xCE6 JUMPI PUSH1 0x40 MLOAD PUSH3 0x461BCD PUSH1 0xE5 SHL DUP2 MSTORE PUSH1 0x20 PUSH1 0x4 DUP3 ADD MSTORE PUSH1 0x21 PUSH1 0x24 DUP3 ADD MSTORE PUSH32 0x5570646174653A207469636B657420636F756E74206973206E65676174697665 PUSH1 0x44 DUP3 ADD MSTORE PUSH1 0x17 PUSH1 0xF9 SHL PUSH1 0x64 DUP3 ADD MSTORE PUSH1 0x84 ADD PUSH2 0x2CF JUMP JUMPDEST PUSH1 0x0 DUP3 GT PUSH2 0xD36 JUMPI PUSH1 0x40 MLOAD PUSH3 0x461BCD PUSH1 0xE5 SHL DUP2 MSTORE PUSH1 0x20 PUSH1 0x4 DUP3 ADD MSTORE PUSH1 0x1A PUSH1 0x24 DUP3 ADD MSTORE PUSH32 0x5570646174653A207072696365206973206E656761746976652E000000000000 PUSH1 0x44 DUP3 ADD MSTORE PUSH1 0x64 ADD PUSH2 0x2CF JUMP JUMPDEST PUSH4 0xFFFFFFFF DUP5 AND PUSH1 0x0 SWAP1 DUP2 MSTORE PUSH1 0x1 PUSH1 0x20 MSTORE PUSH1 0x40 SWAP1 KECCAK256 PUSH1 0x9 DUP2 ADD SLOAD PUSH1 0x1 PUSH1 0xE0 SHL SWAP1 DIV PUSH1 0xFF AND ISZERO PUSH2 0xD77 JUMPI PUSH1 0x40 MLOAD PUSH3 0x461BCD PUSH1 0xE5 SHL DUP2 MSTORE PUSH1 0x4 ADD PUSH2 0x2CF SWAP1 PUSH2 0x238D JUMP JUMPDEST DUP1 SLOAD PUSH1 0x2 DUP3 ADD DUP5 SWAP1 SSTORE PUSH12 0xFFFFFFFF00000000FFFFFFFF AND PUSH1 0x1 PUSH1 0x20 SHL PUSH4 0xFFFFFFFF DUP7 DUP2 AND SWAP2 SWAP1 SWAP2 MUL PUSH12 0xFFFFFFFFFFFFFFFFFFFFFFFF AND SWAP2 SWAP1 SWAP2 OR PUSH1 0x1 PUSH1 0x60 SHL PUSH1 0x1 PUSH1 0x1 PUSH1 0xA0 SHL SUB DUP6 AND MUL OR DUP1 DUP4 SSTORE PUSH1 0x40 MLOAD SWAP2 AND SWAP1 PUSH32 0x4DAC4AC23A642D0FF36B603F2BF73FD8163DE4E86D607DB04B40EDD8EC0EB508 SWAP1 PUSH1 0x0 SWAP1 LOG2 POP POP POP POP POP JUMP JUMPDEST PUSH4 0xFFFFFFFF DUP2 AND PUSH1 0x0 SWAP1 DUP2 MSTORE PUSH1 0x1 PUSH1 0x20 MSTORE PUSH1 0x40 SWAP1 KECCAK256 PUSH1 0x9 DUP2 ADD SLOAD PUSH1 0x60 SWAP2 SWAP1 PUSH1 0x1 PUSH1 0xE0 SHL SWAP1 DIV PUSH1 0xFF AND PUSH1 0x3 EQ PUSH2 0xE6F JUMPI PUSH1 0x40 MLOAD PUSH3 0x461BCD PUSH1 0xE5 SHL DUP2 MSTORE PUSH1 0x20 PUSH1 0x4 DUP3 ADD MSTORE PUSH1 0x1C PUSH1 0x24 DUP3 ADD MSTORE PUSH32 0x5072697A653A20726F756E64206973206E6F742066696E697365642E00000000 PUSH1 0x44 DUP3 ADD MSTORE PUSH1 0x64 ADD PUSH2 0x2CF JUMP JUMPDEST PUSH1 0x3 SLOAD DUP2 SLOAD PUSH1 0x2 DUP4 ADD SLOAD PUSH1 0x0 SWAP3 PUSH2 0x2710 SWAP3 PUSH4 0xFFFFFFFF SWAP2 DUP3 AND SWAP3 PUSH2 0xE9E SWAP3 PUSH1 0x1 PUSH1 0x40 SHL SWAP1 SWAP3 DIV SWAP1 SWAP2 AND SWAP1 PUSH2 0x23D7 JUMP JUMPDEST PUSH2 0xEA8 SWAP2 SWAP1 PUSH2 0x23D7 JUMP JUMPDEST PUSH2 0xEB2 SWAP2 SWAP1 PUSH2 0x240C JUMP JUMPDEST DUP3 SLOAD SWAP1 SWAP2 POP PUSH1 0x0 SWAP1 PUSH1 0x1 PUSH1 0x40 SHL SWAP1 DIV PUSH4 0xFFFFFFFF AND PUSH8 0xFFFFFFFFFFFFFFFF DUP2 GT ISZERO PUSH2 0xEDF JUMPI PUSH2 0xEDF PUSH2 0x203F JUMP JUMPDEST PUSH1 0x40 MLOAD SWAP1 DUP1 DUP3 MSTORE DUP1 PUSH1 0x20 MUL PUSH1 0x20 ADD DUP3 ADD PUSH1 0x40 MSTORE DUP1 ISZERO PUSH2 0xF08 JUMPI DUP2 PUSH1 0x20 ADD PUSH1 0x20 DUP3 MUL DUP1 CALLDATASIZE DUP4 CALLDATACOPY ADD SWAP1 POP JUMPDEST POP SWAP1 POP PUSH1 0x0 JUMPDEST DUP4 SLOAD PUSH4 0xFFFFFFFF PUSH1 0x1 PUSH1 0x40 SHL SWAP1 SWAP2 DIV DUP2 AND SWAP1 DUP3 AND LT DUP1 ISZERO PUSH2 0xF35 JUMPI POP PUSH1 0x3 DUP2 PUSH4 0xFFFFFFFF AND LT JUMPDEST ISZERO PUSH2 0xF84 JUMPI PUSH2 0xF45 PUSH1 0x2 DUP5 PUSH2 0x240C JUMP JUMPDEST DUP3 PUSH2 0xF51 DUP4 PUSH1 0x1 PUSH2 0x2365 JUMP JUMPDEST PUSH4 0xFFFFFFFF AND DUP2 MLOAD DUP2 LT PUSH2 0xF67 JUMPI PUSH2 0xF67 PUSH2 0x22B7 JUMP JUMPDEST PUSH1 0x20 SWAP1 DUP2 MUL SWAP2 SWAP1 SWAP2 ADD ADD MSTORE DUP1 PUSH2 0xF7C DUP2 PUSH2 0x22FB JUMP JUMPDEST SWAP2 POP POP PUSH2 0xF0E JUMP JUMPDEST POP PUSH2 0xF90 PUSH1 0x8 DUP4 PUSH2 0x240C JUMP JUMPDEST DUP4 SLOAD SWAP1 SWAP3 POP PUSH1 0x4 PUSH1 0x1 PUSH1 0x40 SHL SWAP1 SWAP2 DIV PUSH4 0xFFFFFFFF AND GT ISZERO PUSH2 0x1132 JUMPI PUSH1 0x0 PUSH2 0x2710 PUSH2 0xFBB DUP5 PUSH1 0xA PUSH2 0x23D7 JUMP JUMPDEST PUSH2 0xFC6 SWAP1 PUSH1 0x8 PUSH2 0x23D7 JUMP JUMPDEST PUSH2 0xFD0 SWAP2 SWAP1 PUSH2 0x240C JUMP JUMPDEST DUP5 SLOAD SWAP1 SWAP2 POP PUSH1 0x0 SWAP1 PUSH2 0xFF1 SWAP1 PUSH1 0x4 SWAP1 PUSH1 0x1 PUSH1 0x40 SHL SWAP1 DIV PUSH4 0xFFFFFFFF AND PUSH2 0x2340 JUMP JUMPDEST DUP6 SLOAD PUSH4 0xFFFFFFFF SWAP2 DUP3 AND SWAP2 PUSH2 0x1011 SWAP2 PUSH1 0x3 SWAP2 PUSH1 0x1 PUSH1 0x40 SHL SWAP1 SWAP2 DIV AND PUSH2 0x2340 JUMP JUMPDEST DUP7 SLOAD PUSH4 0xFFFFFFFF SWAP2 DUP3 AND SWAP2 PUSH2 0x2710 SWAP2 PUSH2 0x1034 SWAP2 PUSH1 0x1 PUSH1 0x40 SHL SWAP1 SWAP2 DIV AND PUSH1 0x14 PUSH2 0x2420 JUMP JUMPDEST PUSH2 0x1040 SWAP1 PUSH2 0xA00 PUSH2 0x2340 JUMP JUMPDEST PUSH4 0xFFFFFFFF AND PUSH2 0x1051 DUP9 PUSH1 0x8 PUSH2 0x23D7 JUMP JUMPDEST PUSH2 0x105B SWAP2 SWAP1 PUSH2 0x23D7 JUMP JUMPDEST PUSH2 0x1065 SWAP2 SWAP1 PUSH2 0x240C JUMP JUMPDEST PUSH2 0x106F SWAP2 SWAP1 PUSH2 0x240C JUMP JUMPDEST PUSH2 0x1079 SWAP2 SWAP1 PUSH2 0x240C JUMP JUMPDEST DUP6 SLOAD SWAP1 SWAP2 POP PUSH1 0x0 SWAP1 PUSH2 0x109A SWAP1 PUSH1 0x2 SWAP1 PUSH1 0x1 PUSH1 0x40 SHL SWAP1 DIV PUSH4 0xFFFFFFFF AND PUSH2 0x2340 JUMP JUMPDEST SWAP1 POP JUMPDEST PUSH1 0x3 DUP2 PUSH4 0xFFFFFFFF AND LT PUSH2 0x112E JUMPI PUSH2 0x10B5 DUP3 DUP5 PUSH2 0x22E3 JUMP JUMPDEST SWAP3 POP DUP3 DUP5 PUSH2 0x10C4 DUP4 PUSH1 0x1 PUSH2 0x2365 JUMP JUMPDEST PUSH4 0xFFFFFFFF AND DUP2 MLOAD DUP2 LT PUSH2 0x10DA JUMPI PUSH2 0x10DA PUSH2 0x22B7 JUMP JUMPDEST PUSH1 0x20 SWAP1 DUP2 MUL SWAP2 SWAP1 SWAP2 ADD ADD MSTORE DUP4 PUSH2 0x10F1 DUP3 PUSH1 0x1 PUSH2 0x2365 JUMP JUMPDEST PUSH4 0xFFFFFFFF AND DUP2 MLOAD DUP2 LT PUSH2 0x1107 JUMPI PUSH2 0x1107 PUSH2 0x22B7 JUMP JUMPDEST PUSH1 0x20 MUL PUSH1 0x20 ADD ADD MLOAD DUP6 PUSH2 0x111A SWAP2 SWAP1 PUSH2 0x244C JUMP JUMPDEST SWAP5 POP DUP1 PUSH2 0x1126 DUP2 PUSH2 0x2463 JUMP JUMPDEST SWAP2 POP POP PUSH2 0x109D JUMP JUMPDEST POP POP POP JUMPDEST DUP3 SLOAD PUSH1 0x3 PUSH1 0x1 PUSH1 0x40 SHL SWAP1 SWAP2 DIV PUSH4 0xFFFFFFFF AND GT ISZERO PUSH2 0x117C JUMPI DUP3 SLOAD DUP2 MLOAD DUP4 SWAP2 DUP4 SWAP2 PUSH1 0x1 PUSH1 0x40 SHL SWAP1 SWAP2 DIV PUSH4 0xFFFFFFFF AND SWAP1 DUP2 LT PUSH2 0x116F JUMPI PUSH2 0x116F PUSH2 0x22B7 JUMP JUMPDEST PUSH1 0x20 MUL PUSH1 0x20 ADD ADD DUP2 DUP2 MSTORE POP POP JUMPDEST SWAP5 SWAP4 POP POP POP POP JUMP JUMPDEST PUSH4 0xFFFFFFFF DUP1 DUP3 AND PUSH1 0x0 SWAP1 DUP2 MSTORE PUSH1 0x1 PUSH1 0x20 MSTORE PUSH1 0x40 DUP2 KECCAK256 DUP1 SLOAD PUSH1 0x60 SWAP4 SWAP2 SWAP3 SWAP2 PUSH2 0x11BE SWAP2 PUSH1 0x1 PUSH1 0x40 SHL DUP2 DIV DUP3 AND SWAP2 PUSH1 0x1 PUSH1 0x20 SHL SWAP1 SWAP2 DIV AND PUSH2 0x2340 JUMP JUMPDEST PUSH4 0xFFFFFFFF AND PUSH8 0xFFFFFFFFFFFFFFFF DUP2 GT ISZERO PUSH2 0x11DC JUMPI PUSH2 0x11DC PUSH2 0x203F JUMP JUMPDEST PUSH1 0x40 MLOAD SWAP1 DUP1 DUP3 MSTORE DUP1 PUSH1 0x20 MUL PUSH1 0x20 ADD DUP3 ADD PUSH1 0x40 MSTORE DUP1 ISZERO PUSH2 0x1205 JUMPI DUP2 PUSH1 0x20 ADD PUSH1 0x20 DUP3 MUL DUP1 CALLDATASIZE DUP4 CALLDATACOPY ADD SWAP1 POP JUMPDEST POP DUP3 SLOAD SWAP1 SWAP2 POP PUSH4 0xFFFFFFFF PUSH1 0x1 PUSH1 0x40 SHL DUP3 DIV DUP2 AND PUSH1 0x1 PUSH1 0x20 SHL SWAP1 SWAP3 DIV AND SUB PUSH2 0x122E JUMPI SWAP4 SWAP3 POP POP POP JUMP JUMPDEST PUSH1 0x0 DUP1 JUMPDEST DUP4 SLOAD PUSH4 0xFFFFFFFF PUSH1 0x1 PUSH1 0x20 SHL SWAP1 SWAP2 DIV DUP2 AND SWAP1 DUP3 AND LT ISZERO PUSH2 0x12C2 JUMPI PUSH4 0xFFFFFFFF DUP2 AND PUSH1 0x0 SWAP1 DUP2 MSTORE PUSH1 0x5 DUP6 ADD PUSH1 0x20 MSTORE PUSH1 0x40 SWAP1 KECCAK256 SLOAD PUSH1 0x1 PUSH1 0x1 PUSH1 0xA0 SHL SUB AND PUSH2 0x12B0 JUMPI DUP1 DUP4 DUP4 PUSH2 0x127D DUP2 PUSH2 0x22FB JUMP JUMPDEST SWAP5 POP PUSH4 0xFFFFFFFF AND DUP2 MLOAD DUP2 LT PUSH2 0x1295 JUMPI PUSH2 0x1295 PUSH2 0x22B7 JUMP JUMPDEST PUSH1 0x20 MUL PUSH1 0x20 ADD ADD SWAP1 PUSH4 0xFFFFFFFF AND SWAP1 DUP2 PUSH4 0xFFFFFFFF AND DUP2 MSTORE POP POP JUMPDEST DUP1 PUSH2 0x12BA DUP2 PUSH2 0x22FB JUMP JUMPDEST SWAP2 POP POP PUSH2 0x1232 JUMP JUMPDEST POP SWAP1 SWAP5 SWAP4 POP POP POP POP JUMP JUMPDEST PUSH1 0x0 SLOAD PUSH4 0xFFFFFFFF SWAP1 DUP2 AND SWAP1 DUP3 AND GT ISZERO PUSH2 0x131E JUMPI PUSH1 0x40 MLOAD PUSH3 0x461BCD PUSH1 0xE5 SHL DUP2 MSTORE PUSH1 0x20 PUSH1 0x4 DUP3 ADD MSTORE PUSH1 0x13 PUSH1 0x24 DUP3 ADD MSTORE PUSH19 0x213ABC9D1034B73B30B634B2103937BAB73217 PUSH1 0x69 SHL PUSH1 0x44 DUP3 ADD MSTORE PUSH1 0x64 ADD PUSH2 0x2CF JUMP JUMPDEST PUSH4 0xFFFFFFFF DUP2 AND PUSH1 0x0 SWAP1 DUP2 MSTORE PUSH1 0x1 PUSH1 0x20 DUP2 SWAP1 MSTORE PUSH1 0x40 SWAP1 SWAP2 KECCAK256 PUSH1 0x9 DUP2 ADD SLOAD SWAP1 SWAP2 PUSH1 0x1 PUSH1 0xE0 SHL SWAP1 SWAP2 DIV PUSH1 0xFF AND EQ PUSH2 0x1395 JUMPI PUSH1 0x40 MLOAD PUSH3 0x461BCD PUSH1 0xE5 SHL DUP2 MSTORE PUSH1 0x20 PUSH1 0x4 DUP3 ADD MSTORE PUSH1 0x1B PUSH1 0x24 DUP3 ADD MSTORE PUSH32 0x4275793A20726F756E6420776173206E6F7420737461727465642E0000000000 PUSH1 0x44 DUP3 ADD MSTORE PUSH1 0x64 ADD PUSH2 0x2CF JUMP JUMPDEST DUP1 SLOAD PUSH4 0xFFFFFFFF PUSH1 0x1 PUSH1 0x40 SHL DUP3 DIV DUP2 AND PUSH1 0x1 PUSH1 0x20 SHL SWAP1 SWAP3 DIV AND GT PUSH2 0x1405 JUMPI PUSH1 0x40 MLOAD PUSH3 0x461BCD PUSH1 0xE5 SHL DUP2 MSTORE PUSH1 0x20 PUSH1 0x4 DUP3 ADD MSTORE PUSH1 0x21 PUSH1 0x24 DUP3 ADD MSTORE PUSH32 0x4275793A20616C6C207469636B6574206861766520616C726561647920736F6C PUSH1 0x44 DUP3 ADD MSTORE PUSH1 0x19 PUSH1 0xFA SHL PUSH1 0x64 DUP3 ADD MSTORE PUSH1 0x84 ADD PUSH2 0x2CF JUMP JUMPDEST PUSH1 0x1 DUP2 ADD SLOAD CALLER PUSH1 0x0 SWAP1 DUP2 MSTORE PUSH1 0x4 DUP4 ADD PUSH1 0x20 MSTORE PUSH1 0x40 SWAP1 KECCAK256 SLOAD PUSH4 0xFFFFFFFF SWAP2 DUP3 AND SWAP2 AND LT PUSH2 0x146B JUMPI PUSH1 0x40 MLOAD PUSH3 0x461BCD PUSH1 0xE5 SHL DUP2 MSTORE PUSH1 0x20 PUSH1 0x4 DUP3 ADD MSTORE PUSH1 0x15 PUSH1 0x24 DUP3 ADD MSTORE PUSH21 0x213ABC9D1031B0B73737BA10313ABC9036B7B93297 PUSH1 0x59 SHL PUSH1 0x44 DUP3 ADD MSTORE PUSH1 0x64 ADD PUSH2 0x2CF JUMP JUMPDEST PUSH1 0x3 SLOAD PUSH1 0x1 PUSH1 0x40 SHL SWAP1 DIV PUSH1 0x1 PUSH1 0x1 PUSH1 0xA0 SHL SUB AND ISZERO DUP1 ISZERO SWAP1 PUSH2 0x148D JUMPI POP PUSH1 0x4 SLOAD ISZERO ISZERO JUMPDEST ISZERO PUSH2 0x155A JUMPI PUSH1 0x4 DUP1 SLOAD PUSH1 0x3 SLOAD PUSH1 0x40 MLOAD PUSH4 0x70A08231 PUSH1 0xE0 SHL DUP2 MSTORE CALLER SWAP4 DUP2 ADD SWAP4 SWAP1 SWAP4 MSTORE SWAP1 SWAP2 PUSH1 0x1 PUSH1 0x40 SHL SWAP1 SWAP2 DIV PUSH1 0x1 PUSH1 0x1 PUSH1 0xA0 SHL SUB AND SWAP1 PUSH4 0x70A08231 SWAP1 PUSH1 0x24 ADD PUSH1 0x20 PUSH1 0x40 MLOAD DUP1 DUP4 SUB DUP2 DUP7 GAS STATICCALL ISZERO DUP1 ISZERO PUSH2 0x14E8 JUMPI RETURNDATASIZE PUSH1 0x0 DUP1 RETURNDATACOPY RETURNDATASIZE PUSH1 0x0 REVERT JUMPDEST POP POP POP POP PUSH1 0x40 MLOAD RETURNDATASIZE PUSH1 0x1F NOT PUSH1 0x1F DUP3 ADD AND DUP3 ADD DUP1 PUSH1 0x40 MSTORE POP DUP2 ADD SWAP1 PUSH2 0x150C SWAP2 SWAP1 PUSH2 0x2483 JUMP JUMPDEST LT ISZERO PUSH2 0x155A JUMPI PUSH1 0x40 MLOAD PUSH3 0x461BCD PUSH1 0xE5 SHL DUP2 MSTORE PUSH1 0x20 PUSH1 0x4 DUP3 ADD MSTORE PUSH1 0x1D PUSH1 0x24 DUP3 ADD MSTORE PUSH32 0x4275793A20696E73756666696369656E74206D656D626572736869702E000000 PUSH1 0x44 DUP3 ADD MSTORE PUSH1 0x64 ADD PUSH2 0x2CF JUMP JUMPDEST DUP1 SLOAD PUSH1 0x1 PUSH1 0x60 SHL SWAP1 DIV PUSH1 0x1 PUSH1 0x1 PUSH1 0xA0 SHL SUB AND PUSH2 0x15C1 JUMPI DUP1 PUSH1 0x2 ADD SLOAD CALLVALUE EQ PUSH2 0x15BC JUMPI PUSH1 0x40 MLOAD PUSH3 0x461BCD PUSH1 0xE5 SHL DUP2 MSTORE PUSH1 0x20 PUSH1 0x4 DUP3 ADD MSTORE PUSH1 0x16 PUSH1 0x24 DUP3 ADD MSTORE PUSH22 0x213ABC9D1034B739BAB33334B1B4B2B73A1022AA2417 PUSH1 0x51 SHL PUSH1 0x44 DUP3 ADD MSTORE PUSH1 0x64 ADD PUSH2 0x2CF JUMP JUMPDEST PUSH2 0x170D JUMP JUMPDEST PUSH1 0x2 DUP2 ADD SLOAD DUP2 SLOAD PUSH1 0x40 MLOAD PUSH4 0x70A08231 PUSH1 0xE0 SHL DUP2 MSTORE CALLER PUSH1 0x4 DUP3 ADD MSTORE PUSH1 0x1 PUSH1 0x60 SHL SWAP1 SWAP2 DIV PUSH1 0x1 PUSH1 0x1 PUSH1 0xA0 SHL SUB AND SWAP1 PUSH4 0x70A08231 SWAP1 PUSH1 0x24 ADD PUSH1 0x20 PUSH1 0x40 MLOAD DUP1 DUP4 SUB DUP2 DUP7 GAS STATICCALL ISZERO DUP1 ISZERO PUSH2 0x1613 JUMPI RETURNDATASIZE PUSH1 0x0 DUP1 RETURNDATACOPY RETURNDATASIZE PUSH1 0x0 REVERT JUMPDEST POP POP POP POP PUSH1 0x40 MLOAD RETURNDATASIZE PUSH1 0x1F NOT PUSH1 0x1F DUP3 ADD AND DUP3 ADD DUP1 PUSH1 0x40 MSTORE POP DUP2 ADD SWAP1 PUSH2 0x1637 SWAP2 SWAP1 PUSH2 0x2483 JUMP JUMPDEST LT ISZERO PUSH2 0x1685 JUMPI PUSH1 0x40 MLOAD PUSH3 0x461BCD PUSH1 0xE5 SHL DUP2 MSTORE PUSH1 0x20 PUSH1 0x4 DUP3 ADD MSTORE PUSH1 0x19 PUSH1 0x24 DUP3 ADD MSTORE PUSH32 0x4275793A20696E737566666963656E742062616C616E63652E00000000000000 PUSH1 0x44 DUP3 ADD MSTORE PUSH1 0x64 ADD PUSH2 0x2CF JUMP JUMPDEST DUP1 SLOAD PUSH1 0x2 DUP3 ADD SLOAD PUSH1 0x40 MLOAD PUSH4 0x23B872DD PUSH1 0xE0 SHL DUP2 MSTORE CALLER PUSH1 0x4 DUP3 ADD MSTORE ADDRESS PUSH1 0x24 DUP3 ADD MSTORE PUSH1 0x44 DUP2 ADD SWAP2 SWAP1 SWAP2 MSTORE PUSH1 0x1 PUSH1 0x60 SHL SWAP1 SWAP2 DIV PUSH1 0x1 PUSH1 0x1 PUSH1 0xA0 SHL SUB AND SWAP1 PUSH4 0x23B872DD SWAP1 PUSH1 0x64 ADD PUSH1 0x20 PUSH1 0x40 MLOAD DUP1 DUP4 SUB DUP2 PUSH1 0x0 DUP8 GAS CALL ISZERO DUP1 ISZERO PUSH2 0x16E7 JUMPI RETURNDATASIZE PUSH1 0x0 DUP1 RETURNDATACOPY RETURNDATASIZE PUSH1 0x0 REVERT JUMPDEST POP POP POP POP PUSH1 0x40 MLOAD RETURNDATASIZE PUSH1 0x1F NOT PUSH1 0x1F DUP3 ADD AND DUP3 ADD DUP1 PUSH1 0x40 MSTORE POP DUP2 ADD SWAP1 PUSH2 0x170B SWAP2 SWAP1 PUSH2 0x231E JUMP JUMPDEST POP JUMPDEST DUP1 SLOAD PUSH1 0x0 SWAP1 PUSH2 0x1732 SWAP1 PUSH4 0xFFFFFFFF PUSH1 0x1 PUSH1 0x40 SHL DUP3 DIV DUP2 AND SWAP2 PUSH1 0x1 PUSH1 0x20 SHL SWAP1 DIV AND PUSH2 0x2340 JUMP JUMPDEST DUP3 SLOAD PUSH1 0x40 DUP1 MLOAD TIMESTAMP PUSH1 0x20 DUP3 ADD MSTORE DIFFICULTY SWAP2 DUP2 ADD SWAP2 SWAP1 SWAP2 MSTORE PUSH4 0xFFFFFFFF SWAP2 DUP3 AND PUSH1 0x60 DUP3 ADD MSTORE CALLER PUSH1 0x80 DUP3 ADD MSTORE SWAP2 AND SWAP1 PUSH1 0xA0 ADD PUSH1 0x40 MLOAD PUSH1 0x20 DUP2 DUP4 SUB SUB DUP2 MSTORE SWAP1 PUSH1 0x40 MSTORE DUP1 MLOAD SWAP1 PUSH1 0x20 ADD KECCAK256 PUSH1 0x0 SHR PUSH2 0x1782 SWAP2 SWAP1 PUSH2 0x249C JUMP JUMPDEST SWAP1 POP PUSH1 0x0 PUSH2 0x178F DUP5 PUSH2 0x1184 JUMP JUMPDEST SWAP1 POP PUSH1 0x0 DUP2 DUP4 DUP2 MLOAD DUP2 LT PUSH2 0x17A5 JUMPI PUSH2 0x17A5 PUSH2 0x22B7 JUMP JUMPDEST PUSH1 0x20 SWAP1 DUP2 MUL SWAP2 SWAP1 SWAP2 ADD DUP2 ADD MLOAD CALLER PUSH1 0x0 SWAP1 DUP2 MSTORE PUSH1 0x4 DUP8 ADD SWAP1 SWAP3 MSTORE PUSH1 0x40 DUP3 KECCAK256 DUP1 SLOAD SWAP2 SWAP4 POP PUSH4 0xFFFFFFFF SWAP1 SWAP2 AND SWAP2 PUSH2 0x17D9 DUP4 PUSH2 0x22FB JUMP JUMPDEST DUP3 SLOAD PUSH2 0x100 SWAP3 SWAP1 SWAP3 EXP PUSH4 0xFFFFFFFF DUP2 DUP2 MUL NOT SWAP1 SWAP4 AND SWAP2 DUP4 AND MUL OR SWAP1 SWAP2 SSTORE DUP3 DUP2 AND PUSH1 0x0 SWAP1 DUP2 MSTORE PUSH1 0x5 DUP8 ADD PUSH1 0x20 MSTORE PUSH1 0x40 SWAP1 KECCAK256 DUP1 SLOAD CALLER PUSH1 0x1 PUSH1 0x1 PUSH1 0xA0 SHL SUB NOT SWAP1 SWAP2 AND OR SWAP1 SSTORE DUP6 SLOAD PUSH1 0x1 PUSH1 0x40 SHL SWAP1 DIV AND SWAP1 POP DUP5 PUSH1 0x8 PUSH2 0x1833 DUP4 PUSH2 0x22FB JUMP JUMPDEST SWAP2 SWAP1 PUSH2 0x100 EXP DUP2 SLOAD DUP2 PUSH4 0xFFFFFFFF MUL NOT AND SWAP1 DUP4 PUSH4 0xFFFFFFFF AND MUL OR SWAP1 SSTORE POP POP CALLER PUSH1 0x1 PUSH1 0x1 PUSH1 0xA0 SHL SUB AND DUP6 PUSH4 0xFFFFFFFF AND PUSH32 0xFDDD5B9F0BE592B6FBF70226CBA434658B6522EC30A80E30101FB43F1FB14842 DUP4 PUSH1 0x40 MLOAD PUSH2 0x189E SWAP2 SWAP1 PUSH4 0xFFFFFFFF SWAP2 SWAP1 SWAP2 AND DUP2 MSTORE PUSH1 0x20 ADD SWAP1 JUMP JUMPDEST PUSH1 0x40 MLOAD DUP1 SWAP2 SUB SWAP1 LOG3 POP POP POP POP POP JUMP JUMPDEST PUSH2 0x18B5 PUSH2 0x1E4C JUMP JUMPDEST PUSH1 0x3 DUP1 SLOAD PUSH1 0x1 PUSH1 0x1 PUSH1 0xA0 SHL SUB SWAP1 SWAP4 AND PUSH1 0x1 PUSH1 0x40 SHL MUL PUSH9 0x10000000000000000 PUSH1 0x1 PUSH1 0xE0 SHL SUB NOT SWAP1 SWAP4 AND SWAP3 SWAP1 SWAP3 OR SWAP1 SWAP2 SSTORE PUSH1 0x4 SSTORE JUMP JUMPDEST PUSH2 0x18F2 PUSH2 0x1E4C JUMP JUMPDEST PUSH1 0x5 DUP1 SLOAD PUSH8 0xFFFFFFFFFFFFFFFF SWAP1 SWAP4 AND PUSH1 0x1 PUSH1 0xA0 SHL MUL PUSH1 0x1 PUSH1 0x1 PUSH1 0xE0 SHL SUB NOT SWAP1 SWAP4 AND PUSH1 0x1 PUSH1 0x1 PUSH1 0xA0 SHL SUB SWAP1 SWAP5 AND SWAP4 SWAP1 SWAP4 OR SWAP2 SWAP1 SWAP2 OR SWAP1 SWAP2 SSTORE PUSH1 0x6 SSTORE JUMP JUMPDEST PUSH4 0xFFFFFFFF DUP1 DUP3 AND PUSH1 0x0 SWAP1 DUP2 MSTORE PUSH1 0x1 PUSH1 0x20 SWAP1 DUP2 MSTORE PUSH1 0x40 DUP1 DUP4 KECCAK256 CALLER DUP5 MSTORE PUSH1 0x4 DUP2 ADD SWAP1 SWAP3 MSTORE DUP3 KECCAK256 SLOAD PUSH1 0x60 SWAP4 SWAP2 SWAP3 SWAP2 AND PUSH8 0xFFFFFFFFFFFFFFFF DUP2 GT ISZERO PUSH2 0x1974 JUMPI PUSH2 0x1974 PUSH2 0x203F JUMP JUMPDEST PUSH1 0x40 MLOAD SWAP1 DUP1 DUP3 MSTORE DUP1 PUSH1 0x20 MUL PUSH1 0x20 ADD DUP3 ADD PUSH1 0x40 MSTORE DUP1 ISZERO PUSH2 0x199D JUMPI DUP2 PUSH1 0x20 ADD PUSH1 0x20 DUP3 MUL DUP1 CALLDATASIZE DUP4 CALLDATACOPY ADD SWAP1 POP JUMPDEST POP CALLER PUSH1 0x0 SWAP1 DUP2 MSTORE PUSH1 0x4 DUP5 ADD PUSH1 0x20 MSTORE PUSH1 0x40 DUP2 KECCAK256 SLOAD SWAP2 SWAP3 POP PUSH4 0xFFFFFFFF SWAP1 SWAP2 AND SWAP1 SUB PUSH2 0x19C8 JUMPI SWAP4 SWAP3 POP POP POP JUMP JUMPDEST PUSH1 0x0 DUP1 JUMPDEST DUP4 SLOAD PUSH4 0xFFFFFFFF PUSH1 0x1 PUSH1 0x20 SHL SWAP1 SWAP2 DIV DUP2 AND SWAP1 DUP3 AND LT ISZERO PUSH2 0x12C2 JUMPI PUSH4 0xFFFFFFFF DUP2 AND PUSH1 0x0 SWAP1 DUP2 MSTORE PUSH1 0x5 DUP6 ADD PUSH1 0x20 MSTORE PUSH1 0x40 SWAP1 KECCAK256 SLOAD CALLER PUSH1 0x1 PUSH1 0x1 PUSH1 0xA0 SHL SUB SWAP1 SWAP2 AND SUB PUSH2 0x1A4E JUMPI DUP1 DUP4 DUP4 PUSH2 0x1A1B DUP2 PUSH2 0x22FB JUMP JUMPDEST SWAP5 POP PUSH4 0xFFFFFFFF AND DUP2 MLOAD DUP2 LT PUSH2 0x1A33 JUMPI PUSH2 0x1A33 PUSH2 0x22B7 JUMP JUMPDEST PUSH1 0x20 MUL PUSH1 0x20 ADD ADD SWAP1 PUSH4 0xFFFFFFFF AND SWAP1 DUP2 PUSH4 0xFFFFFFFF AND DUP2 MSTORE POP POP JUMPDEST DUP1 PUSH2 0x1A58 DUP2 PUSH2 0x22FB JUMP JUMPDEST SWAP2 POP POP PUSH2 0x19CC JUMP JUMPDEST PUSH2 0x1A68 PUSH2 0x1E4C JUMP JUMPDEST PUSH1 0x0 SLOAD PUSH4 0xFFFFFFFF SWAP1 DUP2 AND SWAP1 DUP3 AND LT PUSH2 0x1AC3 JUMPI PUSH1 0x40 MLOAD PUSH3 0x461BCD PUSH1 0xE5 SHL DUP2 MSTORE PUSH1 0x20 PUSH1 0x4 DUP3 ADD MSTORE PUSH1 0x1C PUSH1 0x24 DUP3 ADD MSTORE PUSH32 0x53746172743A20726F756E6420646F6573206E6F742065786973742E00000000 PUSH1 0x44 DUP3 ADD MSTORE PUSH1 0x64 ADD PUSH2 0x2CF JUMP JUMPDEST PUSH4 0xFFFFFFFF DUP2 AND PUSH1 0x0 SWAP1 DUP2 MSTORE PUSH1 0x1 PUSH1 0x20 MSTORE PUSH1 0x40 SWAP1 KECCAK256 PUSH1 0x9 DUP2 ADD SLOAD PUSH1 0x1 PUSH1 0xE0 SHL SWAP1 DIV PUSH1 0xFF AND ISZERO PUSH2 0x1B04 JUMPI PUSH1 0x40 MLOAD PUSH3 0x461BCD PUSH1 0xE5 SHL DUP2 MSTORE PUSH1 0x4 ADD PUSH2 0x2CF SWAP1 PUSH2 0x238D JUMP JUMPDEST PUSH1 0x9 DUP2 ADD DUP1 SLOAD PUSH1 0xFF PUSH1 0xE0 SHL NOT PUSH4 0xFFFFFFFF TIMESTAMP DUP2 AND PUSH1 0x1 PUSH1 0xA0 SHL MUL SWAP2 SWAP1 SWAP2 AND PUSH9 0xFF00000000FFFFFFFF PUSH1 0xA0 SHL NOT SWAP1 SWAP3 AND SWAP2 SWAP1 SWAP2 OR PUSH1 0x1 PUSH1 0xE0 SHL OR SWAP1 SWAP2 SSTORE DUP2 SLOAD PUSH1 0x40 MLOAD SWAP2 AND SWAP1 PUSH32 0x44FAB5C68287771A7158CDF4FE25913E0913501736BE127EE0C8525FD0AE03F2 SWAP1 PUSH1 0x0 SWAP1 LOG2 POP POP JUMP JUMPDEST PUSH2 0x1B7A PUSH2 0x1E4C JUMP JUMPDEST PUSH1 0x0 DUP4 PUSH4 0xFFFFFFFF AND GT PUSH2 0x1BDA JUMPI PUSH1 0x40 MLOAD PUSH3 0x461BCD PUSH1 0xE5 SHL DUP2 MSTORE PUSH1 0x20 PUSH1 0x4 DUP3 ADD MSTORE PUSH1 0x21 PUSH1 0x24 DUP3 ADD MSTORE PUSH32 0x4372656174653A207469636B657420636F756E74206973206E65676174697665 PUSH1 0x44 DUP3 ADD MSTORE PUSH1 0x17 PUSH1 0xF9 SHL PUSH1 0x64 DUP3 ADD MSTORE PUSH1 0x84 ADD PUSH2 0x2CF JUMP JUMPDEST PUSH1 0x0 DUP3 GT PUSH2 0x1C2A JUMPI PUSH1 0x40 MLOAD PUSH3 0x461BCD PUSH1 0xE5 SHL DUP2 MSTORE PUSH1 0x20 PUSH1 0x4 DUP3 ADD MSTORE PUSH1 0x1A PUSH1 0x24 DUP3 ADD MSTORE PUSH32 0x4372656174653A207072696365206973206E656761746976652E000000000000 PUSH1 0x44 DUP3 ADD MSTORE PUSH1 0x64 ADD PUSH2 0x2CF JUMP JUMPDEST PUSH1 0x0 DUP1 SLOAD PUSH1 0x1 SWAP1 DUP3 SWAP1 PUSH4 0xFFFFFFFF AND DUP2 DUP1 PUSH2 0x1C44 DUP4 PUSH2 0x22FB JUMP JUMPDEST DUP3 SLOAD PUSH2 0x100 SWAP3 SWAP1 SWAP3 EXP PUSH4 0xFFFFFFFF DUP2 DUP2 MUL NOT SWAP1 SWAP4 AND SWAP2 DUP4 AND MUL OR SWAP1 SWAP2 SSTORE SWAP1 DUP2 AND DUP3 MSTORE PUSH1 0x20 DUP3 ADD SWAP3 SWAP1 SWAP3 MSTORE PUSH1 0x40 SWAP1 DUP2 ADD PUSH1 0x0 SWAP1 DUP2 KECCAK256 DUP2 SLOAD DUP2 SLOAD PUSH1 0x2 DUP4 ADD DUP10 SWAP1 SSTORE SWAP1 DUP6 AND PUSH8 0xFFFFFFFFFFFFFFFF NOT SWAP1 SWAP2 AND OR PUSH1 0x1 PUSH1 0x20 SHL DUP10 DUP7 AND MUL OR PUSH12 0xFFFFFFFFFFFFFFFFFFFFFFFF DUP2 AND PUSH1 0x1 PUSH1 0x60 SHL PUSH1 0x1 PUSH1 0x1 PUSH1 0xA0 SHL SUB DUP10 AND MUL SWAP1 DUP2 OR DUP4 SSTORE PUSH1 0x1 DUP4 DUP2 ADD DUP1 SLOAD PUSH4 0xFFFFFFFF NOT AND SWAP1 SWAP2 OR SWAP1 SSTORE SWAP4 MLOAD SWAP2 SWAP6 POP DUP5 AND SWAP3 SWAP1 SWAP4 AND SWAP2 SWAP1 SWAP2 OR SWAP2 PUSH32 0xBE18715B5860CD7B6BC97C775900D5482D00C1CCE75DD8F7186B527757006D98 SWAP2 SWAP1 LOG2 POP POP POP POP JUMP JUMPDEST PUSH2 0x1D17 PUSH2 0x1E4C JUMP JUMPDEST PUSH2 0x1D20 DUP2 PUSH2 0x1ED5 JUMP JUMPDEST POP PUSH4 0xFFFFFFFF DUP2 DUP2 AND PUSH1 0x0 SWAP1 DUP2 MSTORE PUSH1 0x1 PUSH1 0x20 DUP2 SWAP1 MSTORE PUSH1 0x40 DUP3 KECCAK256 PUSH1 0x5 SLOAD PUSH1 0x6 SLOAD DUP3 SLOAD SWAP3 SWAP6 PUSH1 0x1 PUSH1 0x1 PUSH1 0xA0 SHL SUB DUP4 AND SWAP6 SWAP5 DUP7 SWAP5 PUSH4 0x5D3B1D30 SWAP5 PUSH1 0x1 PUSH1 0xA0 SHL SWAP1 DIV PUSH8 0xFFFFFFFFFFFFFFFF AND SWAP3 PUSH1 0x3 SWAP3 PUSH3 0x186A0 SWAP3 PUSH2 0x1D83 SWAP3 PUSH1 0x1 PUSH1 0x40 SHL SWAP1 SWAP2 DIV AND PUSH2 0x2340 JUMP JUMPDEST PUSH1 0x40 MLOAD PUSH1 0x1 PUSH1 0x1 PUSH1 0xE0 SHL SUB NOT PUSH1 0xE0 DUP9 SWAP1 SHL AND DUP2 MSTORE PUSH1 0x4 DUP2 ADD SWAP6 SWAP1 SWAP6 MSTORE PUSH8 0xFFFFFFFFFFFFFFFF SWAP1 SWAP4 AND PUSH1 0x24 DUP6 ADD MSTORE PUSH2 0xFFFF SWAP1 SWAP2 AND PUSH1 0x44 DUP5 ADD MSTORE PUSH4 0xFFFFFFFF SWAP1 DUP2 AND PUSH1 0x64 DUP5 ADD MSTORE AND PUSH1 0x84 DUP3 ADD MSTORE PUSH1 0xA4 ADD PUSH1 0x20 PUSH1 0x40 MLOAD DUP1 DUP4 SUB DUP2 PUSH1 0x0 DUP8 GAS CALL ISZERO DUP1 ISZERO PUSH2 0x1DF0 JUMPI RETURNDATASIZE PUSH1 0x0 DUP1 RETURNDATACOPY RETURNDATASIZE PUSH1 0x0 REVERT JUMPDEST POP POP POP POP PUSH1 0x40 MLOAD RETURNDATASIZE PUSH1 0x1F NOT PUSH1 0x1F DUP3 ADD AND DUP3 ADD DUP1 PUSH1 0x40 MSTORE POP DUP2 ADD SWAP1 PUSH2 0x1E14 SWAP2 SWAP1 PUSH2 0x2483 JUMP JUMPDEST SWAP1 POP PUSH2 0x1E21 DUP5 PUSH1 0x1 PUSH2 0x2365 JUMP JUMPDEST PUSH1 0x0 SWAP2 DUP3 MSTORE PUSH1 0x2 PUSH1 0x20 MSTORE PUSH1 0x40 SWAP1 SWAP2 KECCAK256 DUP1 SLOAD PUSH4 0xFFFFFFFF NOT AND PUSH4 0xFFFFFFFF SWAP1 SWAP3 AND SWAP2 SWAP1 SWAP2 OR SWAP1 SSTORE POP POP POP JUMP JUMPDEST PUSH32 0xC8FCAD8DB84D3CC18B4C41D551EA0EE66DD599CDE068D998E57D5E09332C131C PUSH1 0x4 ADD SLOAD PUSH1 0x1 PUSH1 0x1 PUSH1 0xA0 SHL SUB AND CALLER EQ PUSH2 0x1ED3 JUMPI PUSH1 0x40 MLOAD PUSH3 0x461BCD PUSH1 0xE5 SHL DUP2 MSTORE PUSH1 0x20 PUSH1 0x4 DUP3 ADD MSTORE PUSH1 0x22 PUSH1 0x24 DUP3 ADD MSTORE PUSH32 0x4C69624469616D6F6E643A204D75737420626520636F6E7472616374206F776E PUSH1 0x44 DUP3 ADD MSTORE PUSH2 0x32B9 PUSH1 0xF1 SHL PUSH1 0x64 DUP3 ADD MSTORE PUSH1 0x84 ADD PUSH2 0x2CF JUMP JUMPDEST JUMP JUMPDEST PUSH1 0x0 DUP1 SLOAD PUSH4 0xFFFFFFFF SWAP1 DUP2 AND SWAP1 DUP4 AND GT ISZERO PUSH2 0x1F29 JUMPI PUSH1 0x40 MLOAD PUSH3 0x461BCD PUSH1 0xE5 SHL DUP2 MSTORE PUSH1 0x20 PUSH1 0x4 DUP3 ADD MSTORE PUSH1 0x14 PUSH1 0x24 DUP3 ADD MSTORE PUSH20 0x223930BB9D1034B73B30B634B2103937BAB73217 PUSH1 0x61 SHL PUSH1 0x44 DUP3 ADD MSTORE PUSH1 0x64 ADD PUSH2 0x2CF JUMP JUMPDEST PUSH4 0xFFFFFFFF DUP3 AND PUSH1 0x0 SWAP1 DUP2 MSTORE PUSH1 0x1 PUSH1 0x20 DUP2 SWAP1 MSTORE PUSH1 0x40 SWAP1 SWAP2 KECCAK256 PUSH1 0x9 DUP2 ADD SLOAD SWAP1 SWAP2 PUSH1 0x1 PUSH1 0xE0 SHL SWAP1 SWAP2 DIV PUSH1 0xFF AND EQ PUSH2 0x1FA0 JUMPI PUSH1 0x40 MLOAD PUSH3 0x461BCD PUSH1 0xE5 SHL DUP2 MSTORE PUSH1 0x20 PUSH1 0x4 DUP3 ADD MSTORE PUSH1 0x1C PUSH1 0x24 DUP3 ADD MSTORE PUSH32 0x447261773A20726F756E6420776173206E6F7420737461727465642E00000000 PUSH1 0x44 DUP3 ADD MSTORE PUSH1 0x64 ADD PUSH2 0x2CF JUMP JUMPDEST DUP1 SLOAD PUSH1 0x1 PUSH1 0x40 SHL SWAP1 DIV PUSH4 0xFFFFFFFF AND PUSH2 0x1FFB JUMPI PUSH1 0x40 MLOAD PUSH3 0x461BCD PUSH1 0xE5 SHL DUP2 MSTORE PUSH1 0x20 PUSH1 0x4 DUP3 ADD MSTORE PUSH1 0x19 PUSH1 0x24 DUP3 ADD MSTORE PUSH32 0x447261773A204E6F207469636B65742077617320736F6C642E00000000000000 PUSH1 0x44 DUP3 ADD MSTORE PUSH1 0x64 ADD PUSH2 0x2CF JUMP JUMPDEST POP PUSH1 0x1 SWAP3 SWAP2 POP POP JUMP JUMPDEST DUP1 CALLDATALOAD PUSH4 0xFFFFFFFF DUP2 AND DUP2 EQ PUSH2 0x2018 JUMPI PUSH1 0x0 DUP1 REVERT JUMPDEST SWAP2 SWAP1 POP JUMP JUMPDEST PUSH1 0x0 PUSH1 0x20 DUP3 DUP5 SUB SLT ISZERO PUSH2 0x202F JUMPI PUSH1 0x0 DUP1 REVERT JUMPDEST PUSH2 0x2038 DUP3 PUSH2 0x2004 JUMP JUMPDEST SWAP4 SWAP3 POP POP POP JUMP JUMPDEST PUSH4 0x4E487B71 PUSH1 0xE0 SHL PUSH1 0x0 MSTORE PUSH1 0x41 PUSH1 0x4 MSTORE PUSH1 0x24 PUSH1 0x0 REVERT JUMPDEST PUSH1 0x0 DUP1 PUSH1 0x40 DUP4 DUP6 SUB SLT ISZERO PUSH2 0x2068 JUMPI PUSH1 0x0 DUP1 REVERT JUMPDEST DUP3 CALLDATALOAD SWAP2 POP PUSH1 0x20 DUP1 DUP5 ADD CALLDATALOAD PUSH8 0xFFFFFFFFFFFFFFFF DUP1 DUP3 GT ISZERO PUSH2 0x2088 JUMPI PUSH1 0x0 DUP1 REVERT JUMPDEST DUP2 DUP7 ADD SWAP2 POP DUP7 PUSH1 0x1F DUP4 ADD SLT PUSH2 0x209C JUMPI PUSH1 0x0 DUP1 REVERT JUMPDEST DUP2 CALLDATALOAD DUP2 DUP2 GT ISZERO PUSH2 0x20AE JUMPI PUSH2 0x20AE PUSH2 0x203F JUMP JUMPDEST DUP1 PUSH1 0x5 SHL PUSH1 0x40 MLOAD PUSH1 0x1F NOT PUSH1 0x3F DUP4 ADD AND DUP2 ADD DUP2 DUP2 LT DUP6 DUP3 GT OR ISZERO PUSH2 0x20D3 JUMPI PUSH2 0x20D3 PUSH2 0x203F JUMP JUMPDEST PUSH1 0x40 MSTORE SWAP2 DUP3 MSTORE DUP5 DUP3 ADD SWAP3 POP DUP4 DUP2 ADD DUP6 ADD SWAP2 DUP10 DUP4 GT ISZERO PUSH2 0x20F1 JUMPI PUSH1 0x0 DUP1 REVERT JUMPDEST SWAP4 DUP6 ADD SWAP4 JUMPDEST DUP3 DUP6 LT ISZERO PUSH2 0x210F JUMPI DUP5 CALLDATALOAD DUP5 MSTORE SWAP4 DUP6 ADD SWAP4 SWAP3 DUP6 ADD SWAP3 PUSH2 0x20F6 JUMP JUMPDEST DUP1 SWAP7 POP POP POP POP POP POP POP SWAP3 POP SWAP3 SWAP1 POP JUMP JUMPDEST DUP1 CALLDATALOAD PUSH1 0x1 PUSH1 0x1 PUSH1 0xA0 SHL SUB DUP2 AND DUP2 EQ PUSH2 0x2018 JUMPI PUSH1 0x0 DUP1 REVERT JUMPDEST PUSH1 0x0 DUP1 PUSH1 0x0 DUP1 PUSH1 0x80 DUP6 DUP8 SUB SLT ISZERO PUSH2 0x214C JUMPI PUSH1 0x0 DUP1 REVERT JUMPDEST PUSH2 0x2155 DUP6 PUSH2 0x2004 JUMP JUMPDEST SWAP4 POP PUSH2 0x2163 PUSH1 0x20 DUP7 ADD PUSH2 0x2004 JUMP JUMPDEST SWAP3 POP PUSH1 0x40 DUP6 ADD CALLDATALOAD SWAP2 POP PUSH2 0x2178 PUSH1 0x60 DUP7 ADD PUSH2 0x211F JUMP JUMPDEST SWAP1 POP SWAP3 SWAP6 SWAP2 SWAP5 POP SWAP3 POP JUMP JUMPDEST PUSH1 0x20 DUP1 DUP3 MSTORE DUP3 MLOAD DUP3 DUP3 ADD DUP2 SWAP1 MSTORE PUSH1 0x0 SWAP2 SWAP1 DUP5 DUP3 ADD SWAP1 PUSH1 0x40 DUP6 ADD SWAP1 DUP5 JUMPDEST DUP2 DUP2 LT ISZERO PUSH2 0x21BB JUMPI DUP4 MLOAD DUP4 MSTORE SWAP3 DUP5 ADD SWAP3 SWAP2 DUP5 ADD SWAP2 PUSH1 0x1 ADD PUSH2 0x219F JUMP JUMPDEST POP SWAP1 SWAP7 SWAP6 POP POP POP POP POP POP JUMP JUMPDEST PUSH1 0x20 DUP1 DUP3 MSTORE DUP3 MLOAD DUP3 DUP3 ADD DUP2 SWAP1 MSTORE PUSH1 0x0 SWAP2 SWAP1 DUP5 DUP3 ADD SWAP1 PUSH1 0x40 DUP6 ADD SWAP1 DUP5 JUMPDEST DUP2 DUP2 LT ISZERO PUSH2 0x21BB JUMPI DUP4 MLOAD PUSH4 0xFFFFFFFF AND DUP4 MSTORE SWAP3 DUP5 ADD SWAP3 SWAP2 DUP5 ADD SWAP2 PUSH1 0x1 ADD PUSH2 0x21E3 JUMP JUMPDEST PUSH1 0x0 DUP1 PUSH1 0x40 DUP4 DUP6 SUB SLT ISZERO PUSH2 0x2218 JUMPI PUSH1 0x0 DUP1 REVERT JUMPDEST PUSH2 0x2221 DUP4 PUSH2 0x211F JUMP JUMPDEST SWAP5 PUSH1 0x20 SWAP4 SWAP1 SWAP4 ADD CALLDATALOAD SWAP4 POP POP POP JUMP JUMPDEST PUSH1 0x0 DUP1 PUSH1 0x0 PUSH1 0x60 DUP5 DUP7 SUB SLT ISZERO PUSH2 0x2244 JUMPI PUSH1 0x0 DUP1 REVERT JUMPDEST PUSH2 0x224D DUP5 PUSH2 0x211F JUMP JUMPDEST SWAP3 POP PUSH1 0x20 DUP5 ADD CALLDATALOAD PUSH8 0xFFFFFFFFFFFFFFFF DUP2 AND DUP2 EQ PUSH2 0x226A JUMPI PUSH1 0x0 DUP1 REVERT JUMPDEST SWAP3 SWAP6 SWAP3 SWAP5 POP POP POP PUSH1 0x40 SWAP2 SWAP1 SWAP2 ADD CALLDATALOAD SWAP1 JUMP JUMPDEST PUSH1 0x0 DUP1 PUSH1 0x0 PUSH1 0x60 DUP5 DUP7 SUB SLT ISZERO PUSH2 0x2290 JUMPI PUSH1 0x0 DUP1 REVERT JUMPDEST PUSH2 0x2299 DUP5 PUSH2 0x2004 JUMP JUMPDEST SWAP3 POP PUSH1 0x20 DUP5 ADD CALLDATALOAD SWAP2 POP PUSH2 0x22AE PUSH1 0x40 DUP6 ADD PUSH2 0x211F JUMP JUMPDEST SWAP1 POP SWAP3 POP SWAP3 POP SWAP3 JUMP JUMPDEST PUSH4 0x4E487B71 PUSH1 0xE0 SHL PUSH1 0x0 MSTORE PUSH1 0x32 PUSH1 0x4 MSTORE PUSH1 0x24 PUSH1 0x0 REVERT JUMPDEST PUSH4 0x4E487B71 PUSH1 0xE0 SHL PUSH1 0x0 MSTORE PUSH1 0x11 PUSH1 0x4 MSTORE PUSH1 0x24 PUSH1 0x0 REVERT JUMPDEST PUSH1 0x0 DUP3 NOT DUP3 GT ISZERO PUSH2 0x22F6 JUMPI PUSH2 0x22F6 PUSH2 0x22CD JUMP JUMPDEST POP ADD SWAP1 JUMP JUMPDEST PUSH1 0x0 PUSH4 0xFFFFFFFF DUP1 DUP4 AND DUP2 DUP2 SUB PUSH2 0x2314 JUMPI PUSH2 0x2314 PUSH2 0x22CD JUMP JUMPDEST PUSH1 0x1 ADD SWAP4 SWAP3 POP POP POP JUMP JUMPDEST PUSH1 0x0 PUSH1 0x20 DUP3 DUP5 SUB SLT ISZERO PUSH2 0x2330 JUMPI PUSH1 0x0 DUP1 REVERT JUMPDEST DUP2 MLOAD DUP1 ISZERO ISZERO DUP2 EQ PUSH2 0x2038 JUMPI PUSH1 0x0 DUP1 REVERT JUMPDEST PUSH1 0x0 PUSH4 0xFFFFFFFF DUP4 DUP2 AND SWAP1 DUP4 AND DUP2 DUP2 LT ISZERO PUSH2 0x235D JUMPI PUSH2 0x235D PUSH2 0x22CD JUMP JUMPDEST SUB SWAP4 SWAP3 POP POP POP JUMP JUMPDEST PUSH1 0x0 PUSH4 0xFFFFFFFF DUP1 DUP4 AND DUP2 DUP6 AND DUP1 DUP4 SUB DUP3 GT ISZERO PUSH2 0x2384 JUMPI PUSH2 0x2384 PUSH2 0x22CD JUMP JUMPDEST ADD SWAP5 SWAP4 POP POP POP POP JUMP JUMPDEST PUSH1 0x20 DUP1 DUP3 MSTORE PUSH1 0x2A SWAP1 DUP3 ADD MSTORE PUSH32 0x5570646174653A20726F756E64207761732073746172746564206F722066696E PUSH1 0x40 DUP3 ADD MSTORE PUSH10 0x34B9B432B2103CB2BA17 PUSH1 0xB1 SHL PUSH1 0x60 DUP3 ADD MSTORE PUSH1 0x80 ADD SWAP1 JUMP JUMPDEST PUSH1 0x0 DUP2 PUSH1 0x0 NOT DIV DUP4 GT DUP3 ISZERO ISZERO AND ISZERO PUSH2 0x23F1 JUMPI PUSH2 0x23F1 PUSH2 0x22CD JUMP JUMPDEST POP MUL SWAP1 JUMP JUMPDEST PUSH4 0x4E487B71 PUSH1 0xE0 SHL PUSH1 0x0 MSTORE PUSH1 0x12 PUSH1 0x4 MSTORE PUSH1 0x24 PUSH1 0x0 REVERT JUMPDEST PUSH1 0x0 DUP3 PUSH2 0x241B JUMPI PUSH2 0x241B PUSH2 0x23F6 JUMP JUMPDEST POP DIV SWAP1 JUMP JUMPDEST PUSH1 0x0 PUSH4 0xFFFFFFFF DUP1 DUP4 AND DUP2 DUP6 AND DUP2 DUP4 DIV DUP2 GT DUP3 ISZERO ISZERO AND ISZERO PUSH2 0x2443 JUMPI PUSH2 0x2443 PUSH2 0x22CD JUMP JUMPDEST MUL SWAP5 SWAP4 POP POP POP POP JUMP JUMPDEST PUSH1 0x0 DUP3 DUP3 LT ISZERO PUSH2 0x245E JUMPI PUSH2 0x245E PUSH2 0x22CD JUMP JUMPDEST POP SUB SWAP1 JUMP JUMPDEST PUSH1 0x0 PUSH4 0xFFFFFFFF DUP3 AND DUP1 PUSH2 0x2479 JUMPI PUSH2 0x2479 PUSH2 0x22CD JUMP JUMPDEST PUSH1 0x0 NOT ADD SWAP3 SWAP2 POP POP JUMP JUMPDEST PUSH1 0x0 PUSH1 0x20 DUP3 DUP5 SUB SLT ISZERO PUSH2 0x2495 JUMPI PUSH1 0x0 DUP1 REVERT JUMPDEST POP MLOAD SWAP2 SWAP1 POP JUMP JUMPDEST PUSH1 0x0 DUP3 PUSH2 0x24AB JUMPI PUSH2 0x24AB PUSH2 0x23F6 JUMP JUMPDEST POP MOD SWAP1 JUMP INVALID LOG2 PUSH5 0x6970667358 0x22 SLT KECCAK256 LOG1 0xCC SWAP7 0xE1 BASEFEE 0x5F 0x49 0xB4 0xB6 POP PUSH16 0xBC858BC1EBEC6822D55CB6A44E5CBCDC 0xE9 LOG2 0xA5 0xAD PUSH20 0x64736F6C634300080D0033000000000000000000 "},"methodIdentifiers":{"buy(uint32)":"7db5bd52","claim(uint32)":"04951891","create(uint32,uint256,address)":"c305163d","draw(uint32)":"e6f36328","finish(uint32)":"36ceea0d","mine(uint32)":"9dbdadee","prizes(uint32)":"72ab8441","rawFulfillRandomWords(uint256,uint256[])":"1fe543e3","remains(uint32)":"7bb9f9ef","start(uint32)":"b63e0cd8","update(uint32,uint32,uint256,address)":"54efc139","updateThreshold(address,uint256)":"924af1bc","updateVRF(address,uint64,bytes32)":"9cf9a4f8"}}}}}