{
  "_format": "hh-sol-artifact-1",
  "contractName": "Competitions",
  "sourceName": "contracts/Competition.sol",
  "abi": [
    {
      "anonymous": false,
      "inputs": [
        {
          "indexed": true,
          "internalType": "uint256",
          "name": "",
          "type": "uint256"
        }
      ],
      "name": "Allowed",
      "type": "event"
    },
    {
      "anonymous": false,
      "inputs": [
        {
          "indexed": true,
          "internalType": "address",
          "name": "owner",
          "type": "address"
        },
        {
          "indexed": true,
          "internalType": "address",
          "name": "spender",
          "type": "address"
        },
        {
          "indexed": false,
          "internalType": "uint256",
          "name": "value",
          "type": "uint256"
        }
      ],
      "name": "Approval",
      "type": "event"
    },
    {
      "anonymous": false,
      "inputs": [
        {
          "indexed": true,
          "internalType": "uint256",
          "name": "",
          "type": "uint256"
        }
      ],
      "name": "Closed",
      "type": "event"
    },
    {
      "anonymous": false,
      "inputs": [
        {
          "indexed": true,
          "internalType": "uint256",
          "name": "",
          "type": "uint256"
        }
      ],
      "name": "Created",
      "type": "event"
    },
    {
      "anonymous": false,
      "inputs": [
        {
          "indexed": true,
          "internalType": "uint256",
          "name": "",
          "type": "uint256"
        },
        {
          "indexed": false,
          "internalType": "uint256",
          "name": "",
          "type": "uint256"
        }
      ],
      "name": "Drawn",
      "type": "event"
    },
    {
      "anonymous": false,
      "inputs": [
        {
          "indexed": true,
          "internalType": "uint256",
          "name": "",
          "type": "uint256"
        },
        {
          "indexed": false,
          "internalType": "address",
          "name": "",
          "type": "address"
        }
      ],
      "name": "Finished",
      "type": "event"
    },
    {
      "anonymous": false,
      "inputs": [
        {
          "indexed": false,
          "internalType": "uint8",
          "name": "version",
          "type": "uint8"
        }
      ],
      "name": "Initialized",
      "type": "event"
    },
    {
      "anonymous": false,
      "inputs": [
        {
          "indexed": true,
          "internalType": "address",
          "name": "from",
          "type": "address"
        },
        {
          "indexed": true,
          "internalType": "address",
          "name": "to",
          "type": "address"
        },
        {
          "indexed": false,
          "internalType": "uint256",
          "name": "value",
          "type": "uint256"
        }
      ],
      "name": "Transfer",
      "type": "event"
    },
    {
      "anonymous": false,
      "inputs": [
        {
          "indexed": true,
          "internalType": "uint256",
          "name": "",
          "type": "uint256"
        }
      ],
      "name": "Updated",
      "type": "event"
    },
    {
      "inputs": [
        {
          "internalType": "uint256",
          "name": "_id",
          "type": "uint256"
        }
      ],
      "name": "allow",
      "outputs": [],
      "stateMutability": "nonpayable",
      "type": "function"
    },
    {
      "inputs": [
        {
          "internalType": "address",
          "name": "owner",
          "type": "address"
        },
        {
          "internalType": "address",
          "name": "spender",
          "type": "address"
        }
      ],
      "name": "allowance",
      "outputs": [
        {
          "internalType": "uint256",
          "name": "",
          "type": "uint256"
        }
      ],
      "stateMutability": "view",
      "type": "function"
    },
    {
      "inputs": [
        {
          "internalType": "uint256",
          "name": "",
          "type": "uint256"
        }
      ],
      "name": "allowed",
      "outputs": [
        {
          "internalType": "bool",
          "name": "",
          "type": "bool"
        }
      ],
      "stateMutability": "view",
      "type": "function"
    },
    {
      "inputs": [
        {
          "internalType": "address",
          "name": "spender",
          "type": "address"
        },
        {
          "internalType": "uint256",
          "name": "amount",
          "type": "uint256"
        }
      ],
      "name": "approve",
      "outputs": [
        {
          "internalType": "bool",
          "name": "",
          "type": "bool"
        }
      ],
      "stateMutability": "nonpayable",
      "type": "function"
    },
    {
      "inputs": [
        {
          "internalType": "address",
          "name": "account",
          "type": "address"
        }
      ],
      "name": "balanceOf",
      "outputs": [
        {
          "internalType": "uint256",
          "name": "",
          "type": "uint256"
        }
      ],
      "stateMutability": "view",
      "type": "function"
    },
    {
      "inputs": [
        {
          "internalType": "uint256",
          "name": "_id",
          "type": "uint256"
        },
        {
          "internalType": "uint32",
          "name": "_count",
          "type": "uint32"
        },
        {
          "internalType": "address",
          "name": "_buyer",
          "type": "address"
        }
      ],
      "name": "buy",
      "outputs": [],
      "stateMutability": "nonpayable",
      "type": "function"
    },
    {
      "inputs": [
        {
          "internalType": "uint256",
          "name": "id",
          "type": "uint256"
        }
      ],
      "name": "canDraw",
      "outputs": [
        {
          "internalType": "bool",
          "name": "",
          "type": "bool"
        }
      ],
      "stateMutability": "view",
      "type": "function"
    },
    {
      "inputs": [],
      "name": "canDrawMiddle",
      "outputs": [
        {
          "internalType": "bool",
          "name": "",
          "type": "bool"
        }
      ],
      "stateMutability": "view",
      "type": "function"
    },
    {
      "inputs": [
        {
          "internalType": "uint256",
          "name": "_id",
          "type": "uint256"
        },
        {
          "internalType": "uint32",
          "name": "_count",
          "type": "uint32"
        }
      ],
      "name": "cancel",
      "outputs": [],
      "stateMutability": "nonpayable",
      "type": "function"
    },
    {
      "inputs": [
        {
          "internalType": "uint32",
          "name": "_id",
          "type": "uint32"
        }
      ],
      "name": "close",
      "outputs": [],
      "stateMutability": "nonpayable",
      "type": "function"
    },
    {
      "inputs": [
        {
          "internalType": "uint256",
          "name": "",
          "type": "uint256"
        }
      ],
      "name": "competitions",
      "outputs": [
        {
          "internalType": "uint256",
          "name": "id",
          "type": "uint256"
        },
        {
          "internalType": "uint32",
          "name": "countTotal",
          "type": "uint32"
        },
        {
          "internalType": "uint32",
          "name": "countSold",
          "type": "uint32"
        },
        {
          "internalType": "uint256",
          "name": "price",
          "type": "uint256"
        },
        {
          "internalType": "uint32",
          "name": "maxPerPerson",
          "type": "uint32"
        },
        {
          "internalType": "uint256",
          "name": "timeStart",
          "type": "uint256"
        },
        {
          "internalType": "uint256",
          "name": "timeEnd",
          "type": "uint256"
        },
        {
          "internalType": "address",
          "name": "winner",
          "type": "address"
        },
        {
          "internalType": "address",
          "name": "sponser",
          "type": "address"
        },
        {
          "internalType": "string",
          "name": "url",
          "type": "string"
        },
        {
          "internalType": "uint8",
          "name": "status",
          "type": "uint8"
        }
      ],
      "stateMutability": "view",
      "type": "function"
    },
    {
      "inputs": [
        {
          "internalType": "uint32",
          "name": "countTotal",
          "type": "uint32"
        },
        {
          "internalType": "uint256",
          "name": "price",
          "type": "uint256"
        },
        {
          "internalType": "uint32",
          "name": "maxPerPerson",
          "type": "uint32"
        },
        {
          "internalType": "string",
          "name": "url",
          "type": "string"
        }
      ],
      "name": "create",
      "outputs": [],
      "stateMutability": "payable",
      "type": "function"
    },
    {
      "inputs": [],
      "name": "decimals",
      "outputs": [
        {
          "internalType": "uint8",
          "name": "",
          "type": "uint8"
        }
      ],
      "stateMutability": "view",
      "type": "function"
    },
    {
      "inputs": [
        {
          "internalType": "address",
          "name": "spender",
          "type": "address"
        },
        {
          "internalType": "uint256",
          "name": "subtractedValue",
          "type": "uint256"
        }
      ],
      "name": "decreaseAllowance",
      "outputs": [
        {
          "internalType": "bool",
          "name": "",
          "type": "bool"
        }
      ],
      "stateMutability": "nonpayable",
      "type": "function"
    },
    {
      "inputs": [],
      "name": "discount10",
      "outputs": [
        {
          "internalType": "uint256",
          "name": "",
          "type": "uint256"
        }
      ],
      "stateMutability": "view",
      "type": "function"
    },
    {
      "inputs": [],
      "name": "discount5",
      "outputs": [
        {
          "internalType": "uint256",
          "name": "",
          "type": "uint256"
        }
      ],
      "stateMutability": "view",
      "type": "function"
    },
    {
      "inputs": [
        {
          "internalType": "uint256",
          "name": "_id",
          "type": "uint256"
        }
      ],
      "name": "draw",
      "outputs": [],
      "stateMutability": "nonpayable",
      "type": "function"
    },
    {
      "inputs": [
        {
          "internalType": "uint256",
          "name": "_id",
          "type": "uint256"
        }
      ],
      "name": "finish",
      "outputs": [],
      "stateMutability": "nonpayable",
      "type": "function"
    },
    {
      "inputs": [],
      "name": "getCompetitions",
      "outputs": [
        {
          "components": [
            {
              "internalType": "uint256",
              "name": "id",
              "type": "uint256"
            },
            {
              "internalType": "uint32",
              "name": "countTotal",
              "type": "uint32"
            },
            {
              "internalType": "uint32",
              "name": "countSold",
              "type": "uint32"
            },
            {
              "internalType": "uint256",
              "name": "price",
              "type": "uint256"
            },
            {
              "internalType": "uint32",
              "name": "maxPerPerson",
              "type": "uint32"
            },
            {
              "internalType": "uint256",
              "name": "timeStart",
              "type": "uint256"
            },
            {
              "internalType": "uint256",
              "name": "timeEnd",
              "type": "uint256"
            },
            {
              "internalType": "address",
              "name": "winner",
              "type": "address"
            },
            {
              "internalType": "address",
              "name": "sponser",
              "type": "address"
            },
            {
              "internalType": "string",
              "name": "url",
              "type": "string"
            },
            {
              "internalType": "uint8",
              "name": "status",
              "type": "uint8"
            }
          ],
          "internalType": "struct Competition[]",
          "name": "",
          "type": "tuple[]"
        }
      ],
      "stateMutability": "view",
      "type": "function"
    },
    {
      "inputs": [
        {
          "internalType": "uint256",
          "name": "",
          "type": "uint256"
        },
        {
          "internalType": "uint256",
          "name": "",
          "type": "uint256"
        }
      ],
      "name": "histories",
      "outputs": [
        {
          "internalType": "address",
          "name": "account",
          "type": "address"
        },
        {
          "internalType": "uint32",
          "name": "index",
          "type": "uint32"
        },
        {
          "internalType": "uint32",
          "name": "amount",
          "type": "uint32"
        },
        {
          "internalType": "uint32",
          "name": "time",
          "type": "uint32"
        }
      ],
      "stateMutability": "view",
      "type": "function"
    },
    {
      "inputs": [
        {
          "internalType": "address",
          "name": "spender",
          "type": "address"
        },
        {
          "internalType": "uint256",
          "name": "addedValue",
          "type": "uint256"
        }
      ],
      "name": "increaseAllowance",
      "outputs": [
        {
          "internalType": "bool",
          "name": "",
          "type": "bool"
        }
      ],
      "stateMutability": "nonpayable",
      "type": "function"
    },
    {
      "inputs": [
        {
          "internalType": "address",
          "name": "tokenAddress",
          "type": "address"
        }
      ],
      "name": "initialize",
      "outputs": [],
      "stateMutability": "nonpayable",
      "type": "function"
    },
    {
      "inputs": [],
      "name": "name",
      "outputs": [
        {
          "internalType": "string",
          "name": "",
          "type": "string"
        }
      ],
      "stateMutability": "view",
      "type": "function"
    },
    {
      "inputs": [],
      "name": "rateCancel",
      "outputs": [
        {
          "internalType": "uint256",
          "name": "",
          "type": "uint256"
        }
      ],
      "stateMutability": "view",
      "type": "function"
    },
    {
      "inputs": [
        {
          "internalType": "uint256",
          "name": "requestId",
          "type": "uint256"
        },
        {
          "internalType": "uint256[]",
          "name": "randomWords",
          "type": "uint256[]"
        }
      ],
      "name": "rawFulfillRandomWords",
      "outputs": [],
      "stateMutability": "nonpayable",
      "type": "function"
    },
    {
      "inputs": [
        {
          "internalType": "bool",
          "name": "_canDraw",
          "type": "bool"
        }
      ],
      "name": "setCanDrawMiddle",
      "outputs": [],
      "stateMutability": "nonpayable",
      "type": "function"
    },
    {
      "inputs": [
        {
          "internalType": "uint256",
          "name": "_discount",
          "type": "uint256"
        }
      ],
      "name": "setDiscount10",
      "outputs": [],
      "stateMutability": "nonpayable",
      "type": "function"
    },
    {
      "inputs": [
        {
          "internalType": "uint256",
          "name": "_discount",
          "type": "uint256"
        }
      ],
      "name": "setDiscount5",
      "outputs": [],
      "stateMutability": "nonpayable",
      "type": "function"
    },
    {
      "inputs": [
        {
          "internalType": "address",
          "name": "_owner",
          "type": "address"
        }
      ],
      "name": "setOwner",
      "outputs": [],
      "stateMutability": "nonpayable",
      "type": "function"
    },
    {
      "inputs": [
        {
          "internalType": "uint256",
          "name": "_rate",
          "type": "uint256"
        }
      ],
      "name": "setRateCancel",
      "outputs": [],
      "stateMutability": "nonpayable",
      "type": "function"
    },
    {
      "inputs": [
        {
          "internalType": "address",
          "name": "_token",
          "type": "address"
        }
      ],
      "name": "setToken",
      "outputs": [],
      "stateMutability": "nonpayable",
      "type": "function"
    },
    {
      "inputs": [
        {
          "internalType": "uint256",
          "name": "_id",
          "type": "uint256"
        },
        {
          "internalType": "uint256",
          "name": "_endTime",
          "type": "uint256"
        }
      ],
      "name": "start",
      "outputs": [],
      "stateMutability": "nonpayable",
      "type": "function"
    },
    {
      "inputs": [],
      "name": "symbol",
      "outputs": [
        {
          "internalType": "string",
          "name": "",
          "type": "string"
        }
      ],
      "stateMutability": "view",
      "type": "function"
    },
    {
      "inputs": [
        {
          "internalType": "address",
          "name": "",
          "type": "address"
        },
        {
          "internalType": "uint256",
          "name": "",
          "type": "uint256"
        }
      ],
      "name": "ticketPerson",
      "outputs": [
        {
          "internalType": "uint32",
          "name": "",
          "type": "uint32"
        }
      ],
      "stateMutability": "view",
      "type": "function"
    },
    {
      "inputs": [
        {
          "internalType": "address",
          "name": "_account",
          "type": "address"
        },
        {
          "internalType": "uint256",
          "name": "_id",
          "type": "uint256"
        }
      ],
      "name": "tickets",
      "outputs": [
        {
          "internalType": "uint32",
          "name": "",
          "type": "uint32"
        }
      ],
      "stateMutability": "view",
      "type": "function"
    },
    {
      "inputs": [],
      "name": "token",
      "outputs": [
        {
          "internalType": "address",
          "name": "",
          "type": "address"
        }
      ],
      "stateMutability": "view",
      "type": "function"
    },
    {
      "inputs": [],
      "name": "totalSupply",
      "outputs": [
        {
          "internalType": "uint256",
          "name": "",
          "type": "uint256"
        }
      ],
      "stateMutability": "view",
      "type": "function"
    },
    {
      "inputs": [
        {
          "internalType": "address",
          "name": "to",
          "type": "address"
        },
        {
          "internalType": "uint256",
          "name": "amount",
          "type": "uint256"
        }
      ],
      "name": "transfer",
      "outputs": [
        {
          "internalType": "bool",
          "name": "",
          "type": "bool"
        }
      ],
      "stateMutability": "nonpayable",
      "type": "function"
    },
    {
      "inputs": [
        {
          "internalType": "address",
          "name": "from",
          "type": "address"
        },
        {
          "internalType": "address",
          "name": "to",
          "type": "address"
        },
        {
          "internalType": "uint256",
          "name": "amount",
          "type": "uint256"
        }
      ],
      "name": "transferFrom",
      "outputs": [
        {
          "internalType": "bool",
          "name": "",
          "type": "bool"
        }
      ],
      "stateMutability": "nonpayable",
      "type": "function"
    },
    {
      "inputs": [
        {
          "internalType": "uint256",
          "name": "id",
          "type": "uint256"
        },
        {
          "internalType": "uint32",
          "name": "countTotal",
          "type": "uint32"
        },
        {
          "internalType": "uint256",
          "name": "price",
          "type": "uint256"
        },
        {
          "internalType": "uint32",
          "name": "maxPerPerson",
          "type": "uint32"
        },
        {
          "internalType": "string",
          "name": "url",
          "type": "string"
        }
      ],
      "name": "update",
      "outputs": [],
      "stateMutability": "nonpayable",
      "type": "function"
    },
    {
      "inputs": [
        {
          "internalType": "address",
          "name": "_coordinatior",
          "type": "address"
        },
        {
          "internalType": "uint64",
          "name": "_sub",
          "type": "uint64"
        },
        {
          "internalType": "bytes32",
          "name": "_hash",
          "type": "bytes32"
        }
      ],
      "name": "updateVRF",
      "outputs": [],
      "stateMutability": "nonpayable",
      "type": "function"
    },
    {
      "inputs": [
        {
          "internalType": "uint256",
          "name": "",
          "type": "uint256"
        }
      ],
      "name": "winning",
      "outputs": [
        {
          "internalType": "address",
          "name": "account",
          "type": "address"
        },
        {
          "internalType": "uint32",
          "name": "index",
          "type": "uint32"
        },
        {
          "internalType": "uint32",
          "name": "amount",
          "type": "uint32"
        },
        {
          "internalType": "uint32",
          "name": "time",
          "type": "uint32"
        }
      ],
      "stateMutability": "view",
      "type": "function"
    },
    {
      "inputs": [
        {
          "internalType": "uint256",
          "name": "_amount",
          "type": "uint256"
        },
        {
          "internalType": "address",
          "name": "_recipient",
          "type": "address"
        }
      ],
      "name": "withdraw",
      "outputs": [],
      "stateMutability": "nonpayable",
      "type": "function"
    }
  ],
  "bytecode": "0x608060405234801561001057600080fd5b50613c21806100206000396000f3fe60806040526004361061025b5760003560e01c806370a0823111610144578063c4d66de8116100b6578063dae7a13c1161007a578063dae7a13c146107c4578063dd62ed3e1461080d578063de16017a1461082d578063f1db03311461084d578063fc0c546a14610867578063fcd187501461089f57600080fd5b8063c4d66de8146106c1578063cc62f617146106e1578063d05f2a7c14610771578063d353a1cb14610784578063d503a2bf146107a457600080fd5b80639cf9a4f8116101085780639cf9a4f8146105e85780639f6828d9146106085780639f6c0ce31461063f578063a318fad814610661578063a457c2d714610681578063a9059cbb146106a157600080fd5b806370a0823114610547578063889085491461057d5780638fb4b5731461059357806395d89b41146105b35780639c99775a146105c857600080fd5b806321b81063116101dd578063346f6739116101a1578063346f67391461049b5780633470b2c4146104bb57806339509351146104db5780633b304147146104fb578063518989791461051b578063566f05521461053157600080fd5b806321b81063146103ff5780632380283e1461041f57806323b872dd1461043f5780633108f25e1461045f578063313ce5671461047f57600080fd5b806313af40351161022457806313af403514610350578063144fa6d71461037057806318160ddd146103905780631fe543e3146103af578063214296e8146103cf57600080fd5b8062f714ce1461026057806302e7d1d01461028257806306fdde03146102a2578063095ea7b3146102cd57806311eca765146102fd575b600080fd5b34801561026c57600080fd5b5061028061027b3660046133e4565b6108bf565b005b34801561028e57600080fd5b5061028061029d366004613410565b610a28565b3480156102ae57600080fd5b506102b7610a57565b6040516102c49190613476565b60405180910390f35b3480156102d957600080fd5b506102ed6102e8366004613490565b610ae9565b60405190151581526020016102c4565b34801561030957600080fd5b5061033b610318366004613490565b606860209081526000928352604080842090915290825290205463ffffffff1681565b60405163ffffffff90911681526020016102c4565b34801561035c57600080fd5b5061028061036b3660046134ba565b610b01565b34801561037c57600080fd5b5061028061038b3660046134ba565b610b4d565b34801561039c57600080fd5b506035545b6040519081526020016102c4565b3480156103bb57600080fd5b506102806103ca36600461351c565b610b99565b3480156103db57600080fd5b506102ed6103ea366004613410565b606b6020526000908152604090205460ff1681565b34801561040b57600080fd5b5061028061041a366004613410565b610c97565b34801561042b57600080fd5b5061028061043a366004613410565b610cdc565b34801561044b57600080fd5b506102ed61045a3660046135ce565b610d0b565b34801561046b57600080fd5b5061028061047a366004613618565b610d2f565b34801561048b57600080fd5b50604051601281526020016102c4565b3480156104a757600080fd5b506102806104b6366004613649565b610d6c565b3480156104c757600080fd5b506102806104d636600461366c565b611219565b3480156104e757600080fd5b506102ed6104f6366004613490565b611776565b34801561050757600080fd5b50610280610516366004613410565b611798565b34801561052757600080fd5b506103a1606f5481565b34801561053d57600080fd5b506103a1606e5481565b34801561055357600080fd5b506103a16105623660046134ba565b6001600160a01b031660009081526033602052604090205490565b34801561058957600080fd5b506103a1606d5481565b34801561059f57600080fd5b506102806105ae3660046136a8565b61185d565b3480156105bf57600080fd5b506102b7611aac565b3480156105d457600080fd5b506102806105e3366004613410565b611abb565b3480156105f457600080fd5b506102806106033660046136ca565b611aea565b34801561061457600080fd5b50610628610623366004613410565b611b51565b6040516102c49b9a99989796959493929190613716565b34801561064b57600080fd5b50610654611c63565b6040516102c49190613799565b34801561066d57600080fd5b5061028061067c36600461389d565b611ea8565b34801561068d57600080fd5b506102ed61069c366004613490565b612011565b3480156106ad57600080fd5b506102ed6106bc366004613490565b61208c565b3480156106cd57600080fd5b506102806106dc3660046134ba565b61209a565b3480156106ed57600080fd5b5061073b6106fc366004613410565b606a602052600090815260409020546001600160a01b0381169063ffffffff600160a01b8204811691600160c01b8104821691600160e01b9091041684565b604080516001600160a01b03909516855263ffffffff9384166020860152918316918401919091521660608201526080016102c4565b61028061077f366004613928565b6121dc565b34801561079057600080fd5b5061028061079f366004613410565b612598565b3480156107b057600080fd5b506102806107bf366004613990565b612a33565b3480156107d057600080fd5b5061033b6107df366004613490565b6001600160a01b03919091166000908152606860209081526040808320938352929052205463ffffffff1690565b34801561081957600080fd5b506103a1610828366004613a02565b612d44565b34801561083957600080fd5b5061073b6108483660046136a8565b612d6f565b34801561085957600080fd5b506074546102ed9060ff1681565b34801561087357600080fd5b50606c54610887906001600160a01b031681565b6040516001600160a01b0390911681526020016102c4565b3480156108ab57600080fd5b506102ed6108ba366004613410565b612dc8565b6065546001600160a01b031633146108f25760405162461bcd60e51b81526004016108e990613a2c565b60405180910390fd5b606c546040516370a0823160e01b815230600482015283916001600160a01b0316906370a0823190602401602060405180830381865afa15801561093a573d6000803e3d6000fd5b505050506040513d601f19601f8201168201806040525081019061095e9190613a63565b10156109ac5760405162461bcd60e51b815260206004820152601e60248201527f57697468647261773a20496e737566666963656e742062616c616e63652e000060448201526064016108e9565b606c5460405163a9059cbb60e01b81526001600160a01b038381166004830152602482018590529091169063a9059cbb906044016020604051808303816000875af11580156109ff573d6000803e3d6000fd5b505050506040513d601f19601f82011682018060405250810190610a239190613a7c565b505050565b6065546001600160a01b03163314610a525760405162461bcd60e51b81526004016108e990613a2c565b606d55565b606060368054610a6690613a99565b80601f0160208091040260200160405190810160405280929190818152602001828054610a9290613a99565b8015610adf5780601f10610ab457610100808354040283529160200191610adf565b820191906000526020600020905b815481529060010190602001808311610ac257829003601f168201915b5050505050905090565b600033610af7818585612fe6565b5060019392505050565b6065546001600160a01b03163314610b2b5760405162461bcd60e51b81526004016108e990613a2c565b606580546001600160a01b0319166001600160a01b0392909216919091179055565b6065546001600160a01b03163314610b775760405162461bcd60e51b81526004016108e990613a2c565b606c80546001600160a01b0319166001600160a01b0392909216919091179055565b6070546001600160a01b03163303610c93576000828152607260205260409020548015610a235760006067610bcf600184613ae3565b81548110610bdf57610bdf613afa565b90600052602060002090600a0201905082600081518110610c0257610c02613afa565b6020908102919091018101516000848152607383526040808220929092558681526072909252812081905560098201805460ff19166002179055835183917ff7736569faeed844709ca4a22ad56604f54d41203ae8181a6a4b71717b10153d91869190610c7157610c71613afa565b6020026020010151604051610c8891815260200190565b60405180910390a250505b5050565b6065546001600160a01b03163314610cc15760405162461bcd60e51b81526004016108e990613a2c565b6000908152606b60205260409020805460ff19166001179055565b6065546001600160a01b03163314610d065760405162461bcd60e51b81526004016108e990613a2c565b606e55565b600033610d1985828561310a565b610d24858585613184565b506001949350505050565b6065546001600160a01b03163314610d595760405162461bcd60e51b81526004016108e990613a2c565b6074805460ff1916911515919091179055565b600082118015610d7e57506067548211155b610dbe5760405162461bcd60e51b815260206004820152601160248201527029b2b6361d1024b73b30b634b21034b21760791b60448201526064016108e9565b60006067610dcd600185613ae3565b81548110610ddd57610ddd613afa565b600091825260209091206009600a909202019081015490915060ff16600114610e525760405162461bcd60e51b815260206004820152602160248201527f53656c6c3a20436f6d7065746974696f6e206973206e6f742070656e64696e676044820152601760f91b60648201526084016108e9565b42816005015411610ea55760405162461bcd60e51b815260206004820152601d60248201527f53656c6c3a20436f6d7065746974696f6e2069732074696d656f75742e00000060448201526064016108e9565b33600090815260686020908152604080832086845290915290205463ffffffff80841691161015610f185760405162461bcd60e51b815260206004820152601d60248201527f53656c6c3a20596f75206469646e6f7420707572636861736520736f2e00000060448201526064016108e9565b6000612710606f548463ffffffff168460020154610f369190613b10565b610f409190613b10565b610f4a9190613b45565b606c5460405163a9059cbb60e01b8152336004820152602481018390529192506001600160a01b03169063a9059cbb906044016020604051808303816000875af1158015610f9c573d6000803e3d6000fd5b505050506040513d601f19601f82011682018060405250810190610fc09190613a7c565b5033600090815260686020908152604080832087845290915281208054859290610ff190849063ffffffff16613b59565b92506101000a81548163ffffffff021916908363ffffffff160217905550828260010160048282829054906101000a900463ffffffff166110329190613b59565b92506101000a81548163ffffffff021916908363ffffffff1602179055506000606960006001876110639190613ae3565b8152602001908152602001600020905060005b81548110156112115781818154811061109157611091613afa565b6000918252602090912001546001600160a01b0316331480156110de575060008282815481106110c3576110c3613afa565b600091825260209091200154600160c01b900463ffffffff16115b156111ff578181815481106110f5576110f5613afa565b60009182526020909120015463ffffffff600160c01b909104811690861611156111945781818154811061112b5761112b613afa565b60009182526020909120015461114e90600160c01b900463ffffffff1686613b59565b9450600082828154811061116457611164613afa565b9060005260206000200160000160186101000a81548163ffffffff021916908363ffffffff1602179055506111f2565b848282815481106111a7576111a7613afa565b600091825260209091200180546018906111cf908490600160c01b900463ffffffff16613b59565b92506101000a81548163ffffffff021916908363ffffffff160217905550600094505b63ffffffff851615611211575b8061120981613b7e565b915050611076565b505050505050565b60008311801561122b57506067548311155b61126a5760405162461bcd60e51b815260206004820152601060248201526f213abc9d1024b73b30b634b21034b21760811b60448201526064016108e9565b60006067611279600186613ae3565b8154811061128957611289613afa565b600091825260209091206009600a909202019081015490915060ff166001146112f45760405162461bcd60e51b815260206004820181905260248201527f4275793a20436f6d7065746974696f6e206973206e6f742070656e64696e672e60448201526064016108e9565b428160050154116113475760405162461bcd60e51b815260206004820152601c60248201527f4275793a20436f6d7065746974696f6e2069732074696d656f75742e0000000060448201526064016108e9565b60008363ffffffff16826002015461135f9190613b10565b9050600a8463ffffffff161061139b57612710606e54826113809190613b10565b61138a9190613b45565b6113949082613ae3565b90506113d1565b60058463ffffffff16106113d157612710606d54826113ba9190613b10565b6113c49190613b45565b6113ce9082613ae3565b90505b6066546001600160a01b0316331461152057606c546040516370a0823160e01b81523360048201819052945082916001600160a01b0316906370a0823190602401602060405180830381865afa15801561142f573d6000803e3d6000fd5b505050506040513d601f19601f820116820180604052508101906114539190613a63565b10156114a15760405162461bcd60e51b815260206004820152601960248201527f4275793a20496e737566666963656e742062616c616e63652e0000000000000060448201526064016108e9565b606c546040516323b872dd60e01b81526001600160a01b03858116600483015230602483015260448201849052909116906323b872dd906064016020604051808303816000875af11580156114fa573d6000803e3d6000fd5b505050506040513d601f19601f8201168201806040525081019061151e9190613a7c565b505b6001600160a01b03831660009081526068602090815260408083208884529091528120805486929061155990849063ffffffff16613b97565b92506101000a81548163ffffffff021916908363ffffffff160217905550838260010160048282829054906101000a900463ffffffff1661159a9190613b97565b82546101009290920a63ffffffff81810219909316918316021790915560018401548082166401000000009091049091161115905061161b5760405162461bcd60e51b815260206004820152601e60248201527f4275793a205468657265206973206e6f20656e6f756768207469636b6574000060448201526064016108e9565b60038201546001600160a01b038416600090815260686020908152604080832089845290915290205463ffffffff918216911611156116b05760405162461bcd60e51b815260206004820152602b60248201527f4275793a20596f752063616e6e6f7420627579206d6f7265207468616e204d6160448201526a3c2832b92832b939b7b71760a91b60648201526084016108e9565b60006069816116c0600189613ae3565b81526020808201929092526040908101600090812082516080810184526001600160a01b03988916815280850183815263ffffffff9a8b16948201948552428b16606083019081528354600181018555938552959093209051910180549251935194518a16600160e01b026001600160e01b03958b16600160c01b02959095166001600160c01b0394909a16600160a01b026001600160c01b031990931691909816171716959095179490941790925550505050565b600033610af78185856117898383612d44565b6117939190613bbf565b612fe6565b6117a181612dc8565b1561185a576070546071546040516305d3b1d360e41b81526004810191909152600160a01b820467ffffffffffffffff16602482015260036044820152620186a06064820152600160848201526000916001600160a01b031690635d3b1d309060a4016020604051808303816000875af1158015611823573d6000803e3d6000fd5b505050506040513d601f19601f820116820180604052508101906118479190613a63565b6000908152607260205260409020829055505b50565b60008211801561186f57506067548211155b6118b05760405162461bcd60e51b815260206004820152601260248201527129ba30b93a1d1024b73b30b634b21034b21760711b60448201526064016108e9565b600060676118bf600185613ae3565b815481106118cf576118cf613afa565b60009182526020909120606554600a9092020191506001600160a01b0316331480611906575060078101546001600160a01b031633145b6119525760405162461bcd60e51b815260206004820152601760248201527f4f6e6c792073706f6e7365722063616e2073746172742e00000000000000000060448201526064016108e9565b6065546001600160a01b031633148061197957506000838152606b602052604090205460ff165b6119da5760405162461bcd60e51b815260206004820152602c60248201527f53746172743a20436f6d7065746974696f6e20776173206e6f7420616c6c6f7760448201526b32b210313c9037bbb732b91760a11b60648201526084016108e9565b600981015460ff1615611a2f5760405162461bcd60e51b815260206004820152601f60248201527f53746172743a20436f6d7065746974696f6e2077617320737461727465642e0060448201526064016108e9565b428211611a8d5760405162461bcd60e51b815260206004820152602660248201527f53746172743a20456e6454696d65206d757374206265206c617465722074686160448201526537103737bb9760d11b60648201526084016108e9565b4260048201556005810191909155600901805460ff1916600117905550565b606060378054610a6690613a99565b6065546001600160a01b03163314611ae55760405162461bcd60e51b81526004016108e990613a2c565b606f55565b6065546001600160a01b03163314611b145760405162461bcd60e51b81526004016108e990613a2c565b6070805467ffffffffffffffff909316600160a01b026001600160e01b03199093166001600160a01b039094169390931791909117909155607155565b60678181548110611b6157600080fd5b60009182526020909120600a9091020180546001820154600283015460038401546004850154600586015460068701546007880154600889018054989a5063ffffffff8089169a6401000000009099048116999798961696949593946001600160a01b03938416949290931692611bd790613a99565b80601f0160208091040260200160405190810160405280929190818152602001828054611c0390613a99565b8015611c505780601f10611c2557610100808354040283529160200191611c50565b820191906000526020600020905b815481529060010190602001808311611c3357829003601f168201915b5050506009909301549192505060ff168b565b60675460609060009067ffffffffffffffff811115611c8457611c846134d5565b604051908082528060200260200182016040528015611d0a57816020015b60408051610160810182526000808252602080830182905292820181905260608083018290526080830182905260a0830182905260c0830182905260e0830182905261010083018290526101208301526101408201528252600019909201910181611ca25790505b50905060005b606754811015611ea257600060678281548110611d2f57611d2f613afa565b60009182526020918290206040805161016081018252600a90930290910180548352600181015463ffffffff8082169585019590955264010000000090048416918301919091526002810154606083015260038101549092166080820152600482015460a0820152600582015460c082015260068201546001600160a01b0390811660e083015260078301541661010082015260088201805492935090918391610120840191611dde90613a99565b80601f0160208091040260200160405190810160405280929190818152602001828054611e0a90613a99565b8015611e575780601f10611e2c57610100808354040283529160200191611e57565b820191906000526020600020905b815481529060010190602001808311611e3a57829003601f168201915b50505091835250506009919091015460ff166020909101528351849084908110611e8357611e83613afa565b6020026020010181905250508080611e9a90613b7e565b915050611d10565b50919050565b60008163ffffffff16118015611ec6575060675463ffffffff821611155b611f075760405162461bcd60e51b815260206004820152601260248201527121b637b9b29d1024b73b30b634b21034b21760711b60448201526064016108e9565b60006067611f16600184613b59565b63ffffffff1681548110611f2c57611f2c613afa565b60009182526020909120600a90910201600981015490915060ff16600314611f965760405162461bcd60e51b815260206004820152601c60248201527f436f6d7065746974696f6e206973206e6f742066696e69736865642e0000000060448201526064016108e9565b6065546001600160a01b0316331480611fbb575060068101546001600160a01b031633145b6120005760405162461bcd60e51b815260206004820152601660248201527527b7363c903bb4b73732b91031b0b71031b637b9b29760511b60448201526064016108e9565b600901805460ff1916600417905550565b6000338161201f8286612d44565b90508381101561207f5760405162461bcd60e51b815260206004820152602560248201527f45524332303a2064656372656173656420616c6c6f77616e63652062656c6f77604482015264207a65726f60d81b60648201526084016108e9565b610d248286868403612fe6565b600033610af7818585613184565b600054610100900460ff16158080156120ba5750600054600160ff909116105b806120d45750303b1580156120d4575060005460ff166001145b6121375760405162461bcd60e51b815260206004820152602e60248201527f496e697469616c697a61626c653a20636f6e747261637420697320616c72656160448201526d191e481a5b9a5d1a585b1a5e995960921b60648201526084016108e9565b6000805460ff19166001179055801561215a576000805461ff0019166101001790555b60658054336001600160a01b031991821617909155606c80549091166001600160a01b0384161790556000606d819055606e55611388606f558015610c93576000805461ff0019169055604051600181527f7f26b83ff96e1f2b6a682f133852f6798a09c465da95921460cefb38474024989060200160405180910390a15050565b60008463ffffffff161161223e5760405162461bcd60e51b8152602060048201526024808201527f4372656174653a20436f756e74546f74616c206d75737420626520706f73697460448201526334bb329760e11b60648201526084016108e9565b60008263ffffffff1611801561226057508363ffffffff168263ffffffff1611155b6122ac5760405162461bcd60e51b815260206004820181905260248201527f4372656174653a204d6178506572506572736f6e20697320696e76616c69642e60448201526064016108e9565b600083116122f55760405162461bcd60e51b815260206004820152601660248201527521b932b0ba329d1024b73b30b634b210283934b1b29760511b60448201526064016108e9565b606754600090612306906001613bbf565b604080516101608101825282815263ffffffff88811660208084019182526000948401858152606085018b81528a85166080870190815260a0870188815260c0880189815260e089018a8152336101008b019081526101208b018f81526101408c018d9052606780546001810182559d528b517f9787eeb91fe3101235e4a76063c7023ecb40f923f97916639c598592fa30d6ae600a909e029d8e0190815599517f9787eeb91fe3101235e4a76063c7023ecb40f923f97916639c598592fa30d6af8e0180549951918d1667ffffffffffffffff19909a1699909917640100000000918d16919091021790975594517f9787eeb91fe3101235e4a76063c7023ecb40f923f97916639c598592fa30d6b08c015592517f9787eeb91fe3101235e4a76063c7023ecb40f923f97916639c598592fa30d6b18b01805463ffffffff19169190991617909755517f9787eeb91fe3101235e4a76063c7023ecb40f923f97916639c598592fa30d6b289015594517f9787eeb91fe3101235e4a76063c7023ecb40f923f97916639c598592fa30d6b388015593517f9787eeb91fe3101235e4a76063c7023ecb40f923f97916639c598592fa30d6b4870180546001600160a01b03199081166001600160a01b039384161790915594517f9787eeb91fe3101235e4a76063c7023ecb40f923f97916639c598592fa30d6b5880180549096169116179093559151805195965092949093612547937f9787eeb91fe3101235e4a76063c7023ecb40f923f97916639c598592fa30d6b690910192019061332f565b5061014091909101516009909101805460ff191660ff90921691909117905560405181907f06acbfb32bcf8383f3b0a768b70ac9ec234ea0f2d3b9c77fa6a2de69b919aad190600090a25050505050565b6000811180156125aa57506067548111155b6125ec5760405162461bcd60e51b81526020600482015260136024820152722334b734b9b41d1024b73b30b634b21034b21760691b60448201526064016108e9565b6000818152607360205260409020546126475760405162461bcd60e51b815260206004820152601e60248201527f46696e6973683a20446f6573206e6f7420647261776e206279205652462e000060448201526064016108e9565b60006067612656600184613ae3565b8154811061266657612666613afa565b60009182526020909120606554600a9092020191506001600160a01b031633148061269d575060078101546001600160a01b031633145b6126e95760405162461bcd60e51b815260206004820152601860248201527f4f6e6c792073706f6e7365722063616e2066696e6973682e000000000000000060448201526064016108e9565b600981015460ff1660021461274b5760405162461bcd60e51b815260206004820152602260248201527f46696e6973683a20436f6d7065746974696f6e20776173206e6f742064726177604482015261371760f11b60648201526084016108e9565b60068101546001600160a01b0316156127b85760405162461bcd60e51b815260206004820152602960248201527f46696e6973683a20436f6d7065746974696f6e2077617320616c7265616479206044820152683334b734b9b432b21760b91b60648201526084016108e9565b60098101805460ff1916600317905560006069816127d7600186613ae3565b8152602001908152602001600020905060008260010160049054906101000a900463ffffffff1663ffffffff1660736000868152602001908152602001600020546128229190613bd7565b90506000805b83548110156112115783818154811061284357612843613afa565b600091825260209091200154600160c01b900463ffffffff1615612a215783818154811061287357612873613afa565b60009182526020909120015461289690600160c01b900463ffffffff1683613bbf565b915082821115612a21578381815481106128b2576128b2613afa565b6000918252602090912001546006860180546001600160a01b0319166001600160a01b0390921691909117905583548490829081106128f3576128f3613afa565b60009182526020808320898452606a90915260409092209101805482546001600160a01b031981166001600160a01b039092169182178455825463ffffffff600160a01b9182900481169091026001600160c01b0319909216909217178084558254600160c01b9081900483160263ffffffff60c01b198216811785559254600160e01b908190049092169091026001600160e01b039092166001600160c01b03909116171790556129a58383613ae3565b6000878152606a6020908152604091829020805463ffffffff94909416600160a01b0263ffffffff60a01b1990941693909317909255600687015490516001600160a01b03909116815287917fb2772b0a9b60e0baea329bfc7c5640358b525dbc853d660c041c43a0abe95293910160405180910390a2611211565b80612a2b81613b7e565b915050612828565b600085118015612a4557506067548511155b612a875760405162461bcd60e51b81526020600482015260136024820152722ab83230ba329d1024b73b30b634b21034b21760691b60448201526064016108e9565b60008463ffffffff1611612ae95760405162461bcd60e51b8152602060048201526024808201527f5570646174653a20436f756e74546f74616c206d75737420626520706f73697460448201526334bb329760e11b60648201526084016108e9565b60008263ffffffff16118015612b0b57508363ffffffff168263ffffffff1611155b612b575760405162461bcd60e51b815260206004820181905260248201527f5570646174653a204d6178506572506572736f6e20697320696e76616c69642e60448201526064016108e9565b60008311612ba05760405162461bcd60e51b81526020600482015260166024820152752ab83230ba329d1024b73b30b634b210283934b1b29760511b60448201526064016108e9565b60006067612baf600188613ae3565b81548110612bbf57612bbf613afa565b60009182526020909120606554600a9092020191506001600160a01b0316331480612bf6575060078101546001600160a01b031633145b612c425760405162461bcd60e51b815260206004820152601860248201527f4f6e6c792073706f6e7365722063616e207570646174652e000000000000000060448201526064016108e9565b80548614612c9c5760405162461bcd60e51b815260206004820152602160248201527f5570646174653a20556e7265676973746572656420636f6d7065746974696f6e6044820152601760f91b60648201526084016108e9565b600981015460ff1615612cf15760405162461bcd60e51b815260206004820181905260248201527f5570646174653a20436f6d7065746974696f6e2077617320737461727465642e60448201526064016108e9565b60018101805463ffffffff80881663ffffffff199283161790925560028301869055600383018054928616929091169190911790558151612d3b906008830190602085019061332f565b50505050505050565b6001600160a01b03918216600090815260346020908152604080832093909416825291909152205490565b60696020528160005260406000208181548110612d8b57600080fd5b6000918252602090912001546001600160a01b038116925063ffffffff600160a01b820481169250600160c01b8204811691600160e01b90041684565b60008082118015612ddb57506067548211155b612e1b5760405162461bcd60e51b8152602060048201526011602482015270223930bb9d1024b73b30b634b21034b21760791b60448201526064016108e9565b60006067612e2a600185613ae3565b81548110612e3a57612e3a613afa565b60009182526020909120606554600a9092020191506001600160a01b0316331480612e71575060078101546001600160a01b031633145b612eb65760405162461bcd60e51b815260206004820152601660248201527527b7363c9039b837b739b2b91031b0b710323930bb9760511b60448201526064016108e9565b600981015460ff16600114612f185760405162461bcd60e51b815260206004820152602260248201527f447261773a20436f6d7065746974696f6e20776173206e6f7420737461727465604482015261321760f11b60648201526084016108e9565b6001810154640100000000900463ffffffff16612f735760405162461bcd60e51b8152602060048201526019602482015278223930bb9d102737903a34b1b5b2ba103bb0b99039b7b6321760391b60448201526064016108e9565b6000606981612f83600187613ae3565b815260208101919091526040016000205411612fdd5760405162461bcd60e51b8152602060048201526019602482015278223930bb9d102737903a34b1b5b2ba103bb0b99039b7b6321760391b60448201526064016108e9565b50600192915050565b6001600160a01b0383166130485760405162461bcd60e51b8152602060048201526024808201527f45524332303a20617070726f76652066726f6d20746865207a65726f206164646044820152637265737360e01b60648201526084016108e9565b6001600160a01b0382166130a95760405162461bcd60e51b815260206004820152602260248201527f45524332303a20617070726f766520746f20746865207a65726f206164647265604482015261737360f01b60648201526084016108e9565b6001600160a01b0383811660008181526034602090815260408083209487168084529482529182902085905590518481527f8c5be1e5ebec7d5bd14f71427d1e84f3dd0314c0f7b2291e5b200ac8c7c3b925910160405180910390a3505050565b60006131168484612d44565b9050600019811461317e57818110156131715760405162461bcd60e51b815260206004820152601d60248201527f45524332303a20696e73756666696369656e7420616c6c6f77616e636500000060448201526064016108e9565b61317e8484848403612fe6565b50505050565b6001600160a01b0383166131e85760405162461bcd60e51b815260206004820152602560248201527f45524332303a207472616e736665722066726f6d20746865207a65726f206164604482015264647265737360d81b60648201526084016108e9565b6001600160a01b03821661324a5760405162461bcd60e51b815260206004820152602360248201527f45524332303a207472616e7366657220746f20746865207a65726f206164647260448201526265737360e81b60648201526084016108e9565b6001600160a01b038316600090815260336020526040902054818110156132c25760405162461bcd60e51b815260206004820152602660248201527f45524332303a207472616e7366657220616d6f756e7420657863656564732062604482015265616c616e636560d01b60648201526084016108e9565b6001600160a01b0380851660008181526033602052604080822086860390559286168082529083902080548601905591517fddf252ad1be2c89b69c2b068fc378daa952ba7f163c4a11628f55a4df523b3ef906133229086815260200190565b60405180910390a361317e565b82805461333b90613a99565b90600052602060002090601f01602090048101928261335d57600085556133a3565b82601f1061337657805160ff19168380011785556133a3565b828001600101855582156133a3579182015b828111156133a3578251825591602001919060010190613388565b506133af9291506133b3565b5090565b5b808211156133af57600081556001016133b4565b80356001600160a01b03811681146133df57600080fd5b919050565b600080604083850312156133f757600080fd5b82359150613407602084016133c8565b90509250929050565b60006020828403121561342257600080fd5b5035919050565b6000815180845260005b8181101561344f57602081850181015186830182015201613433565b81811115613461576000602083870101525b50601f01601f19169290920160200192915050565b6020815260006134896020830184613429565b9392505050565b600080604083850312156134a357600080fd5b6134ac836133c8565b946020939093013593505050565b6000602082840312156134cc57600080fd5b613489826133c8565b634e487b7160e01b600052604160045260246000fd5b604051601f8201601f1916810167ffffffffffffffff81118282101715613514576135146134d5565b604052919050565b6000806040838503121561352f57600080fd5b8235915060208084013567ffffffffffffffff8082111561354f57600080fd5b818601915086601f83011261356357600080fd5b813581811115613575576135756134d5565b8060051b91506135868483016134eb565b81815291830184019184810190898411156135a057600080fd5b938501935b838510156135be578435825293850193908501906135a5565b8096505050505050509250929050565b6000806000606084860312156135e357600080fd5b6135ec846133c8565b92506135fa602085016133c8565b9150604084013590509250925092565b801515811461185a57600080fd5b60006020828403121561362a57600080fd5b81356134898161360a565b803563ffffffff811681146133df57600080fd5b6000806040838503121561365c57600080fd5b8235915061340760208401613635565b60008060006060848603121561368157600080fd5b8335925061369160208501613635565b915061369f604085016133c8565b90509250925092565b600080604083850312156136bb57600080fd5b50508035926020909101359150565b6000806000606084860312156136df57600080fd5b6136e8846133c8565b9250602084013567ffffffffffffffff8116811461370557600080fd5b929592945050506040919091013590565b8b815263ffffffff8b811660208301528a81166040830152606082018a90528816608082015260a0810187905260c081018690526001600160a01b0385811660e08301528416610100820152610160610120820181905260009061377c83820186613429565b91505060ff83166101408301529c9b505050505050505050505050565b60006020808301818452808551808352604092508286019150828160051b87010184880160005b8381101561388f57603f198984030185528151805184528781015163ffffffff9081168986015287820151811688860152606080830151908601526080808301519091169085015260a0808201519085015260c0808201519085015260e0808201516001600160a01b0390811691860191909152610100808301519091169085015261012080820151610160828701819052919061386083880182613429565b9250505061014080830151925061387b8187018460ff169052565b5095880195935050908601906001016137c0565b509098975050505050505050565b6000602082840312156138af57600080fd5b61348982613635565b600082601f8301126138c957600080fd5b813567ffffffffffffffff8111156138e3576138e36134d5565b6138f6601f8201601f19166020016134eb565b81815284602083860101111561390b57600080fd5b816020850160208301376000918101602001919091529392505050565b6000806000806080858703121561393e57600080fd5b61394785613635565b93506020850135925061395c60408601613635565b9150606085013567ffffffffffffffff81111561397857600080fd5b613984878288016138b8565b91505092959194509250565b600080600080600060a086880312156139a857600080fd5b853594506139b860208701613635565b9350604086013592506139cd60608701613635565b9150608086013567ffffffffffffffff8111156139e957600080fd5b6139f5888289016138b8565b9150509295509295909350565b60008060408385031215613a1557600080fd5b613a1e836133c8565b9150613407602084016133c8565b6020808252601a908201527f4d6f6469666965723a204f6e6c79206f776e65722063616c6c2e000000000000604082015260600190565b600060208284031215613a7557600080fd5b5051919050565b600060208284031215613a8e57600080fd5b81516134898161360a565b600181811c90821680613aad57607f821691505b602082108103611ea257634e487b7160e01b600052602260045260246000fd5b634e487b7160e01b600052601160045260246000fd5b600082821015613af557613af5613acd565b500390565b634e487b7160e01b600052603260045260246000fd5b6000816000190483118215151615613b2a57613b2a613acd565b500290565b634e487b7160e01b600052601260045260246000fd5b600082613b5457613b54613b2f565b500490565b600063ffffffff83811690831681811015613b7657613b76613acd565b039392505050565b600060018201613b9057613b90613acd565b5060010190565b600063ffffffff808316818516808303821115613bb657613bb6613acd565b01949350505050565b60008219821115613bd257613bd2613acd565b500190565b600082613be657613be6613b2f565b50069056fea264697066735822122074ae4a7e4825544a537514bfc570c11748a8a580be9c1a6378ed39e1d913e61c64736f6c634300080d0033",
  "linkReferences": {},
  "deployedLinkReferences": {}
}