{
  "_format": "hh-sol-artifact-1",
  "contractName": "CompetitionFacet1",
  "sourceName": "contracts/facets/CompetitionFacet1.sol",
  "abi": [
    {
      "inputs": [
        {
          "internalType": "uint32",
          "name": "_index",
          "type": "uint32"
        }
      ],
      "name": "info",
      "outputs": [
        {
          "internalType": "uint32",
          "name": "",
          "type": "uint32"
        },
        {
          "internalType": "uint32",
          "name": "",
          "type": "uint32"
        },
        {
          "internalType": "uint256",
          "name": "",
          "type": "uint256"
        },
        {
          "internalType": "address",
          "name": "",
          "type": "address"
        },
        {
          "internalType": "uint32",
          "name": "",
          "type": "uint32"
        },
        {
          "internalType": "uint32",
          "name": "",
          "type": "uint32"
        },
        {
          "internalType": "uint8",
          "name": "",
          "type": "uint8"
        }
      ],
      "stateMutability": "view",
      "type": "function"
    }
  ],
  "bytecode": "0x608060405234801561001057600080fd5b50610165806100206000396000f3fe608060405234801561001057600080fd5b506004361061002b5760003560e01c80632847910214610030575b600080fd5b6100b061003e366004610102565b63ffffffff9081166000908152600160205260409020805460028201546009909201546401000000008204841694680100000000000000008304851694600160601b9093046001600160a01b031692600160a01b8304811692600160c01b810490911691600160e01b90910460ff1690565b6040805163ffffffff988916815296881660208801528601949094526001600160a01b039092166060850152841660808401529290921660a082015260ff90911660c082015260e00160405180910390f35b60006020828403121561011457600080fd5b813563ffffffff8116811461012857600080fd5b939250505056fea2646970667358221220e0ed227e1f2fdf564be650555e757affe8f49abec5f3703662003a57ac93093464736f6c634300080d0033",
  "linkReferences": {},
  "deployedLinkReferences": {}
}