{
  "_format": "hh-sol-artifact-1",
  "contractName": "WinGame",
  "sourceName": "contracts/WinGame.sol",
  "abi": [
    {
      "inputs": [],
      "name": "DiamondBase__NoFacetForSignature",
      "type": "error"
    },
    {
      "inputs": [],
      "name": "DiamondWritable__InvalidInitializationParameters",
      "type": "error"
    },
    {
      "inputs": [],
      "name": "DiamondWritable__RemoveTargetNotZeroAddress",
      "type": "error"
    },
    {
      "inputs": [],
      "name": "DiamondWritable__ReplaceTargetIsIdentical",
      "type": "error"
    },
    {
      "inputs": [],
      "name": "DiamondWritable__SelectorAlreadyAdded",
      "type": "error"
    },
    {
      "inputs": [],
      "name": "DiamondWritable__SelectorIsImmutable",
      "type": "error"
    },
    {
      "inputs": [],
      "name": "DiamondWritable__SelectorNotFound",
      "type": "error"
    },
    {
      "inputs": [],
      "name": "DiamondWritable__SelectorNotSpecified",
      "type": "error"
    },
    {
      "inputs": [],
      "name": "DiamondWritable__TargetHasNoCode",
      "type": "error"
    },
    {
      "inputs": [],
      "name": "ERC165Storage__InvalidInterfaceId",
      "type": "error"
    },
    {
      "inputs": [],
      "name": "Ownable__NotOwner",
      "type": "error"
    },
    {
      "inputs": [],
      "name": "Ownable__NotTransitiveOwner",
      "type": "error"
    },
    {
      "inputs": [],
      "name": "Proxy__ImplementationIsNotContract",
      "type": "error"
    },
    {
      "inputs": [],
      "name": "SafeOwnable__NotNomineeOwner",
      "type": "error"
    },
    {
      "anonymous": false,
      "inputs": [
        {
          "components": [
            {
              "internalType": "address",
              "name": "target",
              "type": "address"
            },
            {
              "internalType": "enum IDiamondWritableInternal.FacetCutAction",
              "name": "action",
              "type": "uint8"
            },
            {
              "internalType": "bytes4[]",
              "name": "selectors",
              "type": "bytes4[]"
            }
          ],
          "indexed": false,
          "internalType": "struct IDiamondWritableInternal.FacetCut[]",
          "name": "facetCuts",
          "type": "tuple[]"
        },
        {
          "indexed": false,
          "internalType": "address",
          "name": "target",
          "type": "address"
        },
        {
          "indexed": false,
          "internalType": "bytes",
          "name": "data",
          "type": "bytes"
        }
      ],
      "name": "DiamondCut",
      "type": "event"
    },
    {
      "anonymous": false,
      "inputs": [
        {
          "indexed": true,
          "internalType": "address",
          "name": "previousOwner",
          "type": "address"
        },
        {
          "indexed": true,
          "internalType": "address",
          "name": "newOwner",
          "type": "address"
        }
      ],
      "name": "OwnershipTransferred",
      "type": "event"
    },
    {
      "stateMutability": "payable",
      "type": "fallback"
    },
    {
      "inputs": [],
      "name": "acceptOwnership",
      "outputs": [],
      "stateMutability": "nonpayable",
      "type": "function"
    },
    {
      "inputs": [
        {
          "components": [
            {
              "internalType": "address",
              "name": "target",
              "type": "address"
            },
            {
              "internalType": "enum IDiamondWritableInternal.FacetCutAction",
              "name": "action",
              "type": "uint8"
            },
            {
              "internalType": "bytes4[]",
              "name": "selectors",
              "type": "bytes4[]"
            }
          ],
          "internalType": "struct IDiamondWritableInternal.FacetCut[]",
          "name": "facetCuts",
          "type": "tuple[]"
        },
        {
          "internalType": "address",
          "name": "target",
          "type": "address"
        },
        {
          "internalType": "bytes",
          "name": "data",
          "type": "bytes"
        }
      ],
      "name": "diamondCut",
      "outputs": [],
      "stateMutability": "nonpayable",
      "type": "function"
    },
    {
      "inputs": [
        {
          "internalType": "bytes4",
          "name": "selector",
          "type": "bytes4"
        }
      ],
      "name": "facetAddress",
      "outputs": [
        {
          "internalType": "address",
          "name": "facet",
          "type": "address"
        }
      ],
      "stateMutability": "view",
      "type": "function"
    },
    {
      "inputs": [],
      "name": "facetAddresses",
      "outputs": [
        {
          "internalType": "address[]",
          "name": "addresses",
          "type": "address[]"
        }
      ],
      "stateMutability": "view",
      "type": "function"
    },
    {
      "inputs": [
        {
          "internalType": "address",
          "name": "facet",
          "type": "address"
        }
      ],
      "name": "facetFunctionSelectors",
      "outputs": [
        {
          "internalType": "bytes4[]",
          "name": "selectors",
          "type": "bytes4[]"
        }
      ],
      "stateMutability": "view",
      "type": "function"
    },
    {
      "inputs": [],
      "name": "facets",
      "outputs": [
        {
          "components": [
            {
              "internalType": "address",
              "name": "target",
              "type": "address"
            },
            {
              "internalType": "bytes4[]",
              "name": "selectors",
              "type": "bytes4[]"
            }
          ],
          "internalType": "struct IDiamondReadable.Facet[]",
          "name": "diamondFacets",
          "type": "tuple[]"
        }
      ],
      "stateMutability": "view",
      "type": "function"
    },
    {
      "inputs": [],
      "name": "getFallbackAddress",
      "outputs": [
        {
          "internalType": "address",
          "name": "",
          "type": "address"
        }
      ],
      "stateMutability": "view",
      "type": "function"
    },
    {
      "inputs": [],
      "name": "init",
      "outputs": [],
      "stateMutability": "nonpayable",
      "type": "function"
    },
    {
      "inputs": [],
      "name": "nomineeOwner",
      "outputs": [
        {
          "internalType": "address",
          "name": "",
          "type": "address"
        }
      ],
      "stateMutability": "view",
      "type": "function"
    },
    {
      "inputs": [],
      "name": "owner",
      "outputs": [
        {
          "internalType": "address",
          "name": "",
          "type": "address"
        }
      ],
      "stateMutability": "view",
      "type": "function"
    },
    {
      "inputs": [
        {
          "internalType": "address",
          "name": "fallbackAddress",
          "type": "address"
        }
      ],
      "name": "setFallbackAddress",
      "outputs": [],
      "stateMutability": "nonpayable",
      "type": "function"
    },
    {
      "inputs": [
        {
          "internalType": "bytes4",
          "name": "interfaceId",
          "type": "bytes4"
        }
      ],
      "name": "supportsInterface",
      "outputs": [
        {
          "internalType": "bool",
          "name": "",
          "type": "bool"
        }
      ],
      "stateMutability": "view",
      "type": "function"
    },
    {
      "inputs": [
        {
          "internalType": "address",
          "name": "account",
          "type": "address"
        }
      ],
      "name": "transferOwnership",
      "outputs": [],
      "stateMutability": "nonpayable",
      "type": "function"
    },
    {
      "stateMutability": "payable",
      "type": "receive"
    }
  ],
  "bytecode": "0x60806040523480156200001157600080fd5b506000620000296200046260201b62000ca31760201c565b60408051600c8082526101a08201909252919250600091906020820161018080368337019050509050631f931c1c60e01b8160008151811062000070576200007062000d19565b6001600160e01b0319909216602092830291909101820152620000aa9083906307e4c70760e21b9060019062000cc762000486821b17901c565b637a0ed62760e01b81600181518110620000c857620000c862000d19565b6001600160e01b03199092166020928302919091019091015280516356fe50af60e11b908290600290811062000102576200010262000d19565b6001600160e01b03199092166020928302919091019091015280516314bbdacb60e21b90829060039081106200013c576200013c62000d19565b6001600160e01b03199092166020928302919091019091015280516366ffd66360e11b908290600490811062000176576200017662000d19565b6001600160e01b0319909216602092830291909101820152620001b09083906348e2b09360e01b9060019062000cc762000486821b17901c565b6301ffc9a760e01b81600581518110620001ce57620001ce62000d19565b6001600160e01b0319909216602092830291909101820152620002089083906301ffc9a760e01b9060019062000cc762000486821b17901c565b638da5cb5b60e01b8160068151811062000226576200022662000d19565b6001600160e01b031990921660209283029190910190910152805163455a8a8560e11b908290600790811062000260576200026062000d19565b6001600160e01b031990921660209283029190910190910152805163f2fde38b60e01b90829060089081106200029a576200029a62000d19565b6001600160e01b03199092166020928302919091019091015280516379ba509760e01b9082906009908110620002d457620002d462000d19565b6001600160e01b03199092166020928302919091018201526200030e9083906307f5828d60e41b9060019062000cc762000486821b17901c565b632c40805960e01b81600a815181106200032c576200032c62000d19565b6001600160e01b0319909216602092830291909101909101528051639142376560e01b908290600b90811062000366576200036662000d19565b6001600160e01b03199290921660209283029190910190910152604080516001808252818301909252600091816020015b604080516060808201835260008083526020830152918101919091528152602001906001900390816200039757905050604080516060810190915230815290915060208101600081526020018381525081600081518110620003fd57620003fd62000d19565b60200260200101819052506200042b81600060405180602001604052806000815250620004e060201b60201c565b620004593362000445620006bc60201b62000d201760201c565b620006e060201b62000d441790919060201c565b50505062000ecb565b7f326d0c59a7612f6a9919e2a8ee333c80ba689d8ba2634de89c85cbb04832e70590565b6001600160e01b03198083169003620004b25760405163f31e8ca960e01b815260040160405180910390fd5b6001600160e01b03199190911660009081526020929092526040909120805460ff1916911515919091179055565b6000620004f7620006fd60201b62000d611760201c565b600181015490915061ffff8116908190600090600716156200052b5750600381901c60009081526002840160205260409020545b60005b87518110156200062a5760008882815181106200054f576200054f62000d19565b60200260200101519050600081602001519050816040015151600003620005895760405163eb6c3aeb60e01b815260040160405180910390fd5b6000816002811115620005a057620005a062000d2f565b03620005bf57620005b48786868562000721565b90955093506200061f565b6001816002811115620005d657620005d662000d2f565b03620005ee57620005e8878362000880565b6200061f565b600281600281111562000605576200060562000d2f565b036200061f576200061987868685620009e6565b90955093505b50506001016200052e565b50828214620006475760018401805461ffff191661ffff84161790555b60078216156200066a57600382901c600090815260028501602052604090208190555b7f8faa70878671ccd212d20771b795c50af8fd3ff6cf27f4bde57e5d4de0aeb6738787876040516200069f9392919062000da6565b60405180910390a1620006b3868662000c12565b50505050505050565b7f8a22373512790c48b83a1fe2efdd2888d4a917bcdc24d0adf63e60f67168046090565b81546001600160a01b0319166001600160a01b0391909116179055565b7f177481ac65e4292921c69f62d1cc7f57541261e5d61c8175cf4e36a01c9bfc9390565b805160009081906001600160a01b031630148015906200076157506200075f83600001516001600160a01b031662000d1360201b620003771760201c565b155b156200078057604051633ddc5cab60e21b815260040160405180910390fd5b60005b8360400151518110156200087357600084604001518281518110620007ac57620007ac62000d19565b6020908102919091018101516001600160e01b031981166000908152918a9052604090912054909150606081901c15620007f957604051634923a77160e11b815260040160405180910390fd5b85516001600160e01b0319838116600081815260208d90526040902060609390931b6001600160601b0319168b1790925560058a901b60e090811692831c91831c199990991617978190036200086357600389901c600090815260028b0160205260408120989098555b5050506001958601950162000783565b5093959294509192505050565b620008a381600001516001600160a01b031662000d1360201b620003771760201c565b620008c157604051633ddc5cab60e21b815260040160405180910390fd5b60005b816040015151811015620009e157600082604001518281518110620008ed57620008ed62000d19565b6020908102919091018101516001600160e01b03198116600090815291869052604090912054909150606081901c806200093a576040516337e25a9760e11b815260040160405180910390fd5b306001600160a01b03821603620009645760405163e983573160e01b815260040160405180910390fd5b84600001516001600160a01b0316816001600160a01b0316036200099b576040516330baabf360e11b815260040160405180910390fd5b5083516001600160e01b031992909216600090815260208690526040902060609290921b6001600160601b0319166001600160601b0391909116179055600101620008c4565b505050565b805160009081906001600160a01b03161562000a1557604051633ab3490960e21b815260040160405180910390fd5b600385901c6007861660005b85604001515181101562000bfe5760008660400151828151811062000a4a5762000a4a62000d19565b6020908102919091018101516001600160e01b031981166000908152918c9052604090912054909150606081901c62000a96576040516337e25a9760e11b815260040160405180910390fd5b30606082901c0362000abb5760405163e983573160e01b815260040160405180910390fd5b600089900362000ae957600019909401600081815260028c0160205260409020549850936007935062000af1565b600019909301925b600584901b89901b6000806001600160e01b03198084169086161462000b44576001600160e01b03198316600090815260208f90526040902080546001600160601b0319166001600160601b0386161790555b50506001600160e01b03198316600090815260208d90526040812055611fff600383901c1660e0600584901b1687821462000ba957600082815260028f016020526040902080546001600160e01b031980841c19909116908516831c17905562000bcd565b80836001600160e01b031916901c816001600160e01b031960001b901c198d16179b505b8660000362000bec57600088815260028f01602052604081208190559b505b50506001909301925062000a21915050565b5060039190911b1796939550929350505050565b8051156001600160a01b038316151462000c3f576040516326df4ccd60e01b815260040160405180910390fd5b6001600160a01b0382161562000d0f576001600160a01b038216301462000c9d5762000c7f826001600160a01b031662000d1360201b620003771760201c565b62000c9d57604051633ddc5cab60e21b815260040160405180910390fd5b6000826001600160a01b03168260405162000cb9919062000ead565b600060405180830381855af49150503d806000811462000cf6576040519150601f19603f3d011682016040523d82523d6000602084013e62000cfb565b606091505b5050905080620009e1573d6000803e3d6000fd5b5050565b3b151590565b634e487b7160e01b600052603260045260246000fd5b634e487b7160e01b600052602160045260246000fd5b60005b8381101562000d6257818101518382015260200162000d48565b8381111562000d72576000848401525b50505050565b6000815180845262000d9281602086016020860162000d45565b601f01601f19169290920160200192915050565b60006060808301818452808751808352608092508286019150828160051b8701016020808b0160005b8481101562000e7b57898403607f19018652815180516001600160a01b0316855283810151898601906003811062000e1757634e487b7160e01b600052602160045260246000fd5b868601526040918201519186018a905281519081905290840190600090898701905b8083101562000e655783516001600160e01b031916825292860192600192909201919086019062000e39565b5097850197955050509082019060010162000dcf565b50506001600160a01b038a1690880152868103604088015262000e9f818962000d78565b9a9950505050505050505050565b6000825162000ec181846020870162000d45565b9190910192915050565b611c288062000edb6000396000f3fe6080604052600436106100c65760003560e01c80638ab5150a1161007f578063adfca15e11610059578063adfca15e1461024c578063cdffacc614610279578063e1c7392a14610299578063f2fde38b146102de576100cd565b80638ab5150a146102025780638da5cb5b14610217578063914237651461022c576100cd565b806301ffc9a7146101275780631f931c1c1461015c5780632c4080591461017c57806352ef6b2c146101a957806379ba5097146101cb5780637a0ed627146101e0576100cd565b366100cd57005b60006100d76102fe565b90506001600160a01b0381163b610101576040516321f27f0d60e21b815260040160405180910390fd5b3660008037600080366000845af43d6000803e808015610120573d6000f35b3d6000fd5b005b34801561013357600080fd5b506101476101423660046115d6565b61037d565b60405190151581526020015b60405180910390f35b34801561016857600080fd5b50610125610177366004611651565b6103b2565b34801561018857600080fd5b5061019161043c565b6040516001600160a01b039091168152602001610153565b3480156101b557600080fd5b506101be610458565b6040516101539190611703565b3480156101d757600080fd5b506101256105fb565b3480156101ec57600080fd5b506101f561063e565b6040516101539190611795565b34801561020e57600080fd5b50610191610a66565b34801561022357600080fd5b50610191610a75565b34801561023857600080fd5b50610125610247366004611812565b610a7f565b34801561025857600080fd5b5061026c610267366004611812565b610ae5565b604051610153919061182d565b34801561028557600080fd5b506101916102943660046115d6565b610c31565b3480156102a557600080fd5b5061012560007f5f2618c96bfb516c1a8886bd6b719d052ed1a24d9568ca8750c42f88e1849e1e805463ffffffff191661232817905550565b3480156102ea57600080fd5b506101256102f9366004611812565b610c5e565b600080356001600160e01b03191681527f177481ac65e4292921c69f62d1cc7f57541261e5d61c8175cf4e36a01c9bfc9360208190526040822054819060601c80610370575060038201546001600160a01b03168061037057604051634be71a1b60e11b815260040160405180910390fd5b9392505050565b3b151590565b60006103ac8261038b610ca3565b906001600160e01b0319166000908152602091909152604090205460ff1690565b92915050565b6103ba610d85565b6001600160a01b0316336001600160a01b0316146103eb57604051632f7a8ee160e01b815260040160405180910390fd5b6104356103f88587611903565b8484848080601f016020809104026020016040519081016040528093929190818152602001838380828437600092019190915250610d9e92505050565b5050505050565b6000610446610d61565b600301546001600160a01b0316919050565b60606000610464610d61565b600181015490915061ffff1667ffffffffffffffff8111156104885761048861186f565b6040519080825280602002602001820160405280156104b1578160200160208202803683370190505b50915060008060005b600184015461ffff168210156105f3576000818152600285016020526040812054905b60088110156105de57836104f081611a4d565b600188015490955061ffff16851190506105de57600581901b82901b6001600160e01b0319811660009081526020889052604081205460601c90805b88811015610581578a818151811061054657610546611a66565b60200260200101516001600160a01b0316836001600160a01b03160361056f5760019150610581565b8061057981611a4d565b91505061052c565b508015610590575050506105cc565b818a89815181106105a3576105a3611a66565b6001600160a01b0390921660209283029190910190910152876105c581611a4d565b9850505050505b806105d681611a4d565b9150506104dd565b505080806105eb90611a4d565b9150506104ba565b505082525090565b610603610f4c565b6001600160a01b0316336001600160a01b0316146106345760405163efd1052d60e01b815260040160405180910390fd5b61063c610f74565b565b6060600061064a610d61565b600181015490915061ffff1667ffffffffffffffff81111561066e5761066e61186f565b6040519080825280602002602001820160405280156106b457816020015b60408051808201909152600081526060602082015281526020019060019003908161068c5790505b50600182015490925060009061ffff1667ffffffffffffffff8111156106dc576106dc61186f565b604051908082528060200260200182016040528015610705578160200160208202803683370190505b50905060008060005b600185015461ffff168210156109f4576000818152600286016020526040812054905b60088110156109df578361074481611a4d565b600189015490955061ffff16851190506109df57600581901b82901b6001600160e01b0319811660009081526020899052604081205460601c90805b8881101561089d57826001600160a01b03168c82815181106107a4576107a4611a66565b6020026020010151600001516001600160a01b03160361088b57838c82815181106107d1576107d1611a66565b6020026020010151602001518b83815181106107ef576107ef611a66565b602002602001015160ff168151811061080a5761080a611a66565b60200260200101906001600160e01b03191690816001600160e01b0319168152505060ff8a828151811061084057610840611a66565b602002602001015160ff161061085557600080fd5b89818151811061086757610867611a66565b60200260200101805180919061087c90611a7c565b60ff169052506001915061089d565b8061089581611a4d565b915050610780565b5080156108ac575050506109cd565b818b89815181106108bf576108bf611a66565b60209081029190910101516001600160a01b03909116905260018a015461ffff1667ffffffffffffffff8111156108f8576108f861186f565b604051908082528060200260200182016040528015610921578160200160208202803683370190505b508b898151811061093457610934611a66565b602002602001015160200181905250828b898151811061095657610956611a66565b60200260200101516020015160008151811061097457610974611a66565b60200260200101906001600160e01b03191690816001600160e01b0319168152505060018989815181106109aa576109aa611a66565b60ff90921660209283029190910190910152876109c681611a4d565b9850505050505b806109d781611a4d565b915050610731565b505080806109ec90611a4d565b91505061070e565b5060005b82811015610a5b576000848281518110610a1457610a14611a66565b602002602001015160ff1690506000878381518110610a3557610a35611a66565b602002602001015160200151905081815250508080610a5390611a4d565b9150506109f8565b508185525050505090565b6000610a70610f4c565b905090565b6000610a70610d85565b610a87610d85565b6001600160a01b0316336001600160a01b031614610ab857604051632f7a8ee160e01b815260040160405180910390fd5b80610ac1610d61565b60030180546001600160a01b0319166001600160a01b039290921691909117905550565b60606000610af1610d61565b600181015490915061ffff1667ffffffffffffffff811115610b1557610b1561186f565b604051908082528060200260200182016040528015610b3e578160200160208202803683370190505b50915060008060005b600184015461ffff16821015610c27576000818152600285016020526040812054905b6008811015610c125783610b7d81611a4d565b600188015490955061ffff1685119050610c1257600581901b82901b6001600160e01b0319811660009081526020889052604090205460601c6001600160a01b038a1603610bff5780888781518110610bd857610bd8611a66565b6001600160e01b03199092166020928302919091019091015285610bfb81611a4d565b9650505b5080610c0a81611a4d565b915050610b6a565b50508080610c1f90611a4d565b915050610b47565b5050825250919050565b6000610c3b610d61565b6001600160e01b0319909216600090815260209290925250604090205460601c90565b610c66610d85565b6001600160a01b0316336001600160a01b031614610c9757604051632f7a8ee160e01b815260040160405180910390fd5b610ca081610ff1565b50565b7f326d0c59a7612f6a9919e2a8ee333c80ba689d8ba2634de89c85cbb04832e70590565b6001600160e01b03198083169003610cf25760405163f31e8ca960e01b815260040160405180910390fd5b6001600160e01b03199190911660009081526020929092526040909120805460ff1916911515919091179055565b7f8a22373512790c48b83a1fe2efdd2888d4a917bcdc24d0adf63e60f67168046090565b81546001600160a01b0319166001600160a01b0391909116179055565b7f177481ac65e4292921c69f62d1cc7f57541261e5d61c8175cf4e36a01c9bfc9390565b6000610d8f610d20565b546001600160a01b0316919050565b6000610da8610d61565b600181015490915061ffff811690819060009060071615610ddb5750600381901c60009081526002840160205260409020545b60005b8751811015610ec0576000888281518110610dfb57610dfb611a66565b60200260200101519050600081602001519050816040015151600003610e345760405163eb6c3aeb60e01b815260040160405180910390fd5b6000816002811115610e4857610e48611a9b565b03610e6357610e5987868685610ffa565b9095509350610eb6565b6001816002811115610e7757610e77611a9b565b03610e8b57610e868783611139565b610eb6565b6002816002811115610e9f57610e9f611a9b565b03610eb657610eb087868685611284565b90955093505b5050600101610dde565b50828214610edc5760018401805461ffff191661ffff84161790555b6007821615610efe57600382901c600090815260028501602052604090208190555b7f8faa70878671ccd212d20771b795c50af8fd3ff6cf27f4bde57e5d4de0aeb673878787604051610f3193929190611b0d565b60405180910390a1610f4386866114a7565b50505050505050565b60007f24aa1f7b31fd188a8d3ecfb06bc55c806040e59b03bd4396283442fce6617890610d8f565b6000610f7e610d20565b805460405191925033916001600160a01b03909116907f8be0079c531659141344cd1fd0a4f28419497f9722a3daafe3b4186f6b6457e090600090a3610fc48133610d44565b610ca060007f24aa1f7b31fd188a8d3ecfb06bc55c806040e59b03bd4396283442fce66178905b90610d44565b610ca08161158b565b805160009081906001600160a01b03163014801590611022575082516001600160a01b03163b155b1561104057604051633ddc5cab60e21b815260040160405180910390fd5b60005b83604001515181101561112c5760008460400151828151811061106857611068611a66565b6020908102919091018101516001600160e01b031981166000908152918a9052604090912054909150606081901c156110b457604051634923a77160e11b815260040160405180910390fd5b85516001600160e01b0319838116600081815260208d90526040902060609390931b6001600160601b0319168b1790925560058a901b60e090811692831c91831c1999909916179781900361111d57600389901c600090815260028b0160205260408120989098555b50505060019586019501611043565b5093959294509192505050565b80516001600160a01b03163b61116257604051633ddc5cab60e21b815260040160405180910390fd5b60005b81604001515181101561127f5760008260400151828151811061118a5761118a611a66565b6020908102919091018101516001600160e01b03198116600090815291869052604090912054909150606081901c806111d6576040516337e25a9760e11b815260040160405180910390fd5b306001600160a01b038216036111ff5760405163e983573160e01b815260040160405180910390fd5b84600001516001600160a01b0316816001600160a01b031603611235576040516330baabf360e11b815260040160405180910390fd5b5083516001600160e01b031992909216600090815260208690526040902060609290921b6001600160601b0319166bffffffffffffffffffffffff91909116179055600101611165565b505050565b805160009081906001600160a01b0316156112b257604051633ab3490960e21b815260040160405180910390fd5b600385901c6007861660005b856040015151811015611493576000866040015182815181106112e3576112e3611a66565b6020908102919091018101516001600160e01b031981166000908152918c9052604090912054909150606081901c61132e576040516337e25a9760e11b815260040160405180910390fd5b30606082901c036113525760405163e983573160e01b815260040160405180910390fd5b600089900361137e57600019909401600081815260028c01602052604090205498509360079350611386565b600019909301925b600584901b89901b6000806001600160e01b0319808416908616146113dd576001600160e01b03198316600090815260208f90526040902080546001600160601b0319166bffffffffffffffffffffffff86161790555b50506001600160e01b03198316600090815260208d90526040812055611fff600383901c1660e0600584901b1687821461144057600082815260028f016020526040902080546001600160e01b031980841c19909116908516831c179055611464565b80836001600160e01b031916901c816001600160e01b031960001b901c198d16179b505b8660000361148257600088815260028f01602052604081208190559b505b5050600190930192506112be915050565b5060039190911b1796939550929350505050565b8051156001600160a01b03831615146114d3576040516326df4ccd60e01b815260040160405180910390fd5b6001600160a01b03821615611587576001600160a01b038216301461151a576001600160a01b0382163b61151a57604051633ddc5cab60e21b815260040160405180910390fd5b6000826001600160a01b0316826040516115349190611bd6565b600060405180830381855af49150503d806000811461156f576040519150601f19603f3d011682016040523d82523d6000602084013e611574565b606091505b505090508061127f573d6000803e3d6000fd5b5050565b610ca081610ca0817f24aa1f7b31fd188a8d3ecfb06bc55c806040e59b03bd4396283442fce6617890610feb565b80356001600160e01b0319811681146115d157600080fd5b919050565b6000602082840312156115e857600080fd5b610370826115b9565b80356001600160a01b03811681146115d157600080fd5b60008083601f84011261161a57600080fd5b50813567ffffffffffffffff81111561163257600080fd5b60208301915083602082850101111561164a57600080fd5b9250929050565b60008060008060006060868803121561166957600080fd5b853567ffffffffffffffff8082111561168157600080fd5b818801915088601f83011261169557600080fd5b8135818111156116a457600080fd5b8960208260051b85010111156116b957600080fd5b602083019750809650506116cf602089016115f1565b945060408801359150808211156116e557600080fd5b506116f288828901611608565b969995985093965092949392505050565b6020808252825182820181905260009190848201906040850190845b818110156117445783516001600160a01b03168352928401929184019160010161171f565b50909695505050505050565b600081518084526020808501945080840160005b8381101561178a5781516001600160e01b03191687529582019590820190600101611764565b509495945050505050565b60006020808301818452808551808352604092508286019150828160051b87010184880160005b8381101561180457888303603f19018552815180516001600160a01b031684528701518784018790526117f187850182611750565b95880195935050908601906001016117bc565b509098975050505050505050565b60006020828403121561182457600080fd5b610370826115f1565b6020808252825182820181905260009190848201906040850190845b818110156117445783516001600160e01b03191683529284019291840191600101611849565b634e487b7160e01b600052604160045260246000fd5b6040516060810167ffffffffffffffff811182821017156118a8576118a861186f565b60405290565b604051601f8201601f1916810167ffffffffffffffff811182821017156118d7576118d761186f565b604052919050565b600067ffffffffffffffff8211156118f9576118f961186f565b5060051b60200190565b6000611916611911846118df565b6118ae565b83815260208082019190600586811b86013681111561193457600080fd5b865b81811015611a2a57803567ffffffffffffffff808211156119575760008081fd5b818a0191506060823603121561196d5760008081fd5b611975611885565b61197e836115f1565b815286830135600381106119925760008081fd5b81880152604083810135838111156119aa5760008081fd5b939093019236601f8501126119c157600092508283fd5b833592506119d1611911846118df565b83815292871b840188019288810190368511156119ee5760008081fd5b948901945b84861015611a1357611a04866115b9565b825294890194908901906119f3565b918301919091525088525050948301948301611936565b5092979650505050505050565b634e487b7160e01b600052601160045260246000fd5b600060018201611a5f57611a5f611a37565b5060010190565b634e487b7160e01b600052603260045260246000fd5b600060ff821660ff8103611a9257611a92611a37565b60010192915050565b634e487b7160e01b600052602160045260246000fd5b60005b83811015611acc578181015183820152602001611ab4565b83811115611adb576000848401525b50505050565b60008151808452611af9816020860160208601611ab1565b601f01601f19169290920160200192915050565b6000606080830181845280875180835260808601915060808160051b87010192506020808a016000805b84811015611ba657898703607f19018652825180516001600160a01b031688528481015160038110611b7757634e487b7160e01b84526021600452602484fd5b88860152604090810151908801899052611b9389890182611750565b9750509483019491830191600101611b37565b5050506001600160a01b0389169087015250508381036040850152611bcb8186611ae1565b979650505050505050565b60008251611be8818460208701611ab1565b919091019291505056fea2646970667358221220f94fd76070d6292fa9be9e83dfed8fc87a08357f3dc884c6aff9e147b85eccb564736f6c634300080d0033",
  "linkReferences": {},
  "deployedLinkReferences": {}
}