{
  "_format": "hh-sol-artifact-1",
  "contractName": "CompetitionFacet",
  "sourceName": "contracts/facets/CompetitionFacet.sol",
  "abi": [
    {
      "anonymous": false,
      "inputs": [
        {
          "indexed": true,
          "internalType": "uint32",
          "name": "",
          "type": "uint32"
        }
      ],
      "name": "Closed",
      "type": "event"
    },
    {
      "anonymous": false,
      "inputs": [
        {
          "indexed": true,
          "internalType": "uint32",
          "name": "",
          "type": "uint32"
        }
      ],
      "name": "Created",
      "type": "event"
    },
    {
      "anonymous": false,
      "inputs": [
        {
          "indexed": true,
          "internalType": "uint32",
          "name": "",
          "type": "uint32"
        }
      ],
      "name": "Drawn",
      "type": "event"
    },
    {
      "anonymous": false,
      "inputs": [
        {
          "indexed": true,
          "internalType": "uint32",
          "name": "",
          "type": "uint32"
        }
      ],
      "name": "Finished",
      "type": "event"
    },
    {
      "anonymous": false,
      "inputs": [
        {
          "indexed": true,
          "internalType": "uint32",
          "name": "",
          "type": "uint32"
        },
        {
          "indexed": true,
          "internalType": "address",
          "name": "",
          "type": "address"
        },
        {
          "indexed": false,
          "internalType": "uint32",
          "name": "",
          "type": "uint32"
        }
      ],
      "name": "Sold",
      "type": "event"
    },
    {
      "anonymous": false,
      "inputs": [
        {
          "indexed": true,
          "internalType": "uint32",
          "name": "",
          "type": "uint32"
        }
      ],
      "name": "Started",
      "type": "event"
    },
    {
      "anonymous": false,
      "inputs": [
        {
          "indexed": true,
          "internalType": "uint32",
          "name": "",
          "type": "uint32"
        }
      ],
      "name": "Updated",
      "type": "event"
    },
    {
      "inputs": [
        {
          "internalType": "uint32",
          "name": "_index",
          "type": "uint32"
        }
      ],
      "name": "buy",
      "outputs": [],
      "stateMutability": "payable",
      "type": "function"
    },
    {
      "inputs": [
        {
          "internalType": "uint32",
          "name": "_index",
          "type": "uint32"
        }
      ],
      "name": "claim",
      "outputs": [],
      "stateMutability": "nonpayable",
      "type": "function"
    },
    {
      "inputs": [
        {
          "internalType": "uint32",
          "name": "_countTotal",
          "type": "uint32"
        },
        {
          "internalType": "uint256",
          "name": "_price",
          "type": "uint256"
        },
        {
          "internalType": "address",
          "name": "_currency",
          "type": "address"
        }
      ],
      "name": "create",
      "outputs": [],
      "stateMutability": "nonpayable",
      "type": "function"
    },
    {
      "inputs": [
        {
          "internalType": "uint32",
          "name": "_index",
          "type": "uint32"
        }
      ],
      "name": "draw",
      "outputs": [],
      "stateMutability": "nonpayable",
      "type": "function"
    },
    {
      "inputs": [
        {
          "internalType": "uint32",
          "name": "_index",
          "type": "uint32"
        }
      ],
      "name": "finish",
      "outputs": [],
      "stateMutability": "nonpayable",
      "type": "function"
    },
    {
      "inputs": [
        {
          "internalType": "uint32",
          "name": "_index",
          "type": "uint32"
        }
      ],
      "name": "mine",
      "outputs": [
        {
          "internalType": "uint32[]",
          "name": "",
          "type": "uint32[]"
        },
        {
          "internalType": "uint32[]",
          "name": "",
          "type": "uint32[]"
        },
        {
          "internalType": "uint256",
          "name": "",
          "type": "uint256"
        }
      ],
      "stateMutability": "view",
      "type": "function"
    },
    {
      "inputs": [
        {
          "internalType": "uint32",
          "name": "_index",
          "type": "uint32"
        }
      ],
      "name": "prizes",
      "outputs": [
        {
          "internalType": "uint256[]",
          "name": "",
          "type": "uint256[]"
        }
      ],
      "stateMutability": "view",
      "type": "function"
    },
    {
      "inputs": [
        {
          "internalType": "uint256",
          "name": "_requestId",
          "type": "uint256"
        },
        {
          "internalType": "uint256[]",
          "name": "_randomWords",
          "type": "uint256[]"
        }
      ],
      "name": "rawFulfillRandomWords",
      "outputs": [],
      "stateMutability": "nonpayable",
      "type": "function"
    },
    {
      "inputs": [
        {
          "internalType": "uint32",
          "name": "_index",
          "type": "uint32"
        }
      ],
      "name": "remains",
      "outputs": [
        {
          "internalType": "uint32[]",
          "name": "",
          "type": "uint32[]"
        }
      ],
      "stateMutability": "view",
      "type": "function"
    },
    {
      "inputs": [
        {
          "internalType": "uint32",
          "name": "_index",
          "type": "uint32"
        }
      ],
      "name": "result",
      "outputs": [
        {
          "internalType": "uint32[]",
          "name": "",
          "type": "uint32[]"
        }
      ],
      "stateMutability": "view",
      "type": "function"
    },
    {
      "inputs": [
        {
          "internalType": "uint32",
          "name": "_index",
          "type": "uint32"
        }
      ],
      "name": "start",
      "outputs": [],
      "stateMutability": "nonpayable",
      "type": "function"
    },
    {
      "inputs": [
        {
          "internalType": "uint32",
          "name": "_index",
          "type": "uint32"
        },
        {
          "internalType": "uint32",
          "name": "_countTotal",
          "type": "uint32"
        },
        {
          "internalType": "uint256",
          "name": "_price",
          "type": "uint256"
        },
        {
          "internalType": "address",
          "name": "_currency",
          "type": "address"
        }
      ],
      "name": "update",
      "outputs": [],
      "stateMutability": "nonpayable",
      "type": "function"
    },
    {
      "inputs": [
        {
          "internalType": "address",
          "name": "_token",
          "type": "address"
        },
        {
          "internalType": "uint256",
          "name": "_threshold",
          "type": "uint256"
        }
      ],
      "name": "updateThreshold",
      "outputs": [],
      "stateMutability": "nonpayable",
      "type": "function"
    },
    {
      "inputs": [
        {
          "internalType": "address",
          "name": "_coordinator",
          "type": "address"
        },
        {
          "internalType": "uint64",
          "name": "_subscription",
          "type": "uint64"
        },
        {
          "internalType": "bytes32",
          "name": "_hash",
          "type": "bytes32"
        }
      ],
      "name": "updateVRF",
      "outputs": [],
      "stateMutability": "nonpayable",
      "type": "function"
    }
  ],
  "bytecode": "0x608060405234801561001057600080fd5b50612625806100206000396000f3fe6080604052600436106100dd5760003560e01c8063924af1bc1161007f578063b63e0cd811610059578063b63e0cd814610249578063c305163d14610269578063e6f3632814610289578063fef5016c146102a957600080fd5b8063924af1bc146101da5780639cf9a4f8146101fa5780639dbdadee1461021a57600080fd5b806354efc139116100bb57806354efc1391461014457806372ab8441146101645780637bb9f9ef1461019a5780637db5bd52146101c757600080fd5b806304951891146100e25780631fe543e31461010457806336ceea0d14610124575b600080fd5b3480156100ee57600080fd5b506101026100fd366004612110565b6102c9565b005b34801561011057600080fd5b5061010261011f366004612148565b610597565b34801561013057600080fd5b5061010261013f366004612110565b6106e7565b34801561015057600080fd5b5061010261015f366004612229565b610ade565b34801561017057600080fd5b5061018461017f366004612110565b610cb3565b6040516101919190612276565b60405180910390f35b3480156101a657600080fd5b506101ba6101b5366004612110565b611030565b60405161019191906122fb565b6101026101d5366004612110565b611178565b3480156101e657600080fd5b506101026101f536600461230e565b611759565b34801561020657600080fd5b50610102610215366004612338565b611796565b34801561022657600080fd5b5061023a610235366004612110565b6117db565b60405161019193929190612384565b34801561025557600080fd5b50610102610264366004612110565b611a3a565b34801561027557600080fd5b506101026102843660046123ba565b611b4c565b34801561029557600080fd5b506101026102a4366004612110565b611ce9565b3480156102b557600080fd5b506101ba6102c4366004612110565b611e26565b60005463ffffffff90811690821611156103225760405162461bcd60e51b815260206004820152601560248201527421b630b4b69d1034b73b30b634b2103937bab7321760591b60448201526064015b60405180910390fd5b63ffffffff811660009081526001602052604090206009810154600160e01b900460ff166003146103955760405162461bcd60e51b815260206004820152601e60248201527f436c61696d3a20726f756e6420776173206e6f742066696e69736865642e00006044820152606401610319565b33600090815260038201602052604090205460ff16156103f75760405162461bcd60e51b815260206004820152601760248201527f436c61696d3a20616c726561647920636c61696d65642e0000000000000000006044820152606401610319565b33600090815260048201602052604090205463ffffffff1661045b5760405162461bcd60e51b815260206004820152601a60248201527f436c61696d3a20646964206e6f7420627579207469636b65742e0000000000006044820152606401610319565b6000610466836117db565b92505050600081116104b15760405162461bcd60e51b815260206004820152601460248201527321b630b4b69d1037379031b630b4b6b0b136329760611b6044820152606401610319565b8154600160601b90046001600160a01b03166104fa57604051339082156108fc029083906000818181858888f193505050501580156104f4573d6000803e3d6000fd5b50610576565b815460405163a9059cbb60e01b815233600482015260248101839052600160601b9091046001600160a01b03169063a9059cbb906044016020604051808303816000875af1158015610550573d6000803e3d6000fd5b505050506040513d601f19601f8201168201806040525081019061057491906123f6565b505b50336000908152600390910160205260409020805460ff1916600117905550565b6005546001600160a01b0316331480156105c4575060008281526002602052604090205463ffffffff1615155b156106e3576000828152600260205260408120546105ea9060019063ffffffff1661242e565b63ffffffff811660009081526001602052604081209192505b815461061e90600190600160401b900463ffffffff1661242e565b63ffffffff168163ffffffff16101561068057838163ffffffff168151811061064957610649612453565b60209081029190910181015163ffffffff83166000908152600885019092526040909120558061067881612469565b915050610603565b5060098101805460ff60e01b1916600160e11b179055600084815260026020526040808220805463ffffffff191690558254905163ffffffff909116917fd17f1b6062bdec6b66d7c7202aa93ca5242807f46aa32c20fdd8f6d0586293ed91a250505b5050565b6106ef611f3f565b60005463ffffffff90811690821611156107445760405162461bcd60e51b81526020600482015260166024820152752334b734b9b41d1034b73b30b634b2103937bab7321760511b6044820152606401610319565b63ffffffff811660009081526001602052604090206009810154600160e01b900460ff166002146107b75760405162461bcd60e51b815260206004820152601c60248201527f46696e6973683a20726f756e6420776173206e6f7420647261776e2e000000006044820152606401610319565b60098101805463ffffffff428116600160c01b0264ffffffffff60c01b1990921691909117600360e01b1790915581546000918291600160401b90041667ffffffffffffffff81111561080c5761080c612132565b604051908082528060200260200182016040528015610835578160200160208202803683370190505b50905060005b835463ffffffff600160201b909104811690821610156108cc5763ffffffff811660009081526005850160205260409020546001600160a01b0316156108ba5780828461088781612469565b955063ffffffff168151811061089f5761089f612453565b602002602001019063ffffffff16908163ffffffff16815250505b806108c481612469565b91505061083b565b5060005b835463ffffffff600160401b90910481169082161015610aa35783546000908290610909908290600160401b900463ffffffff1661242e565b63ffffffff848116600090815260088901602052604090205461092f92909116906124a2565b61093991906124b6565b9050828163ffffffff168151811061095357610953612453565b6020026020010151838363ffffffff168151811061097357610973612453565b6020026020010151848463ffffffff168151811061099357610993612453565b60200260200101858463ffffffff16815181106109b2576109b2612453565b63ffffffff93841660209182029290920101529181169091528351849184169081106109e0576109e0612453565b60200260200101518560060160008460016109fb91906124b6565b63ffffffff90811682526020820192909252604001600020805463ffffffff191692909116919091179055610a318260016124b6565b856007016000858563ffffffff1681518110610a4f57610a4f612453565b602002602001015163ffffffff1663ffffffff16815260200190815260200160002060006101000a81548163ffffffff021916908363ffffffff160217905550508080610a9b90612469565b9150506108d0565b50825460405163ffffffff909116907f0b4aae5dcd713cfbcaf3e6aa1be4e9e01a579e6c5e930d1aef33ab13fd5002d790600090a250505050565b610ae6611f3f565b60005463ffffffff90811690851610610b415760405162461bcd60e51b815260206004820152601d60248201527f5570646174653a20726f756e6420646f6573206e6f742065786973742e0000006044820152606401610319565b60008363ffffffff1611610ba15760405162461bcd60e51b815260206004820152602160248201527f5570646174653a207469636b657420636f756e74206973206e656761746976656044820152601760f91b6064820152608401610319565b60008211610bf15760405162461bcd60e51b815260206004820152601a60248201527f5570646174653a207072696365206973206e656761746976652e0000000000006044820152606401610319565b63ffffffff841660009081526001602052604090206009810154600160e01b900460ff1615610c325760405162461bcd60e51b8152600401610319906124de565b8054600282018490556bffffffff00000000ffffffff16600160201b63ffffffff868116919091026bffffffffffffffffffffffff1691909117600160601b6001600160a01b03851602178083556040519116907f4dac4ac23a642d0ff36b603f2bf73fd8163de4e86d607db04b40edd8ec0eb50890600090a25050505050565b63ffffffff81166000908152600160205260409020600981015460609190600160e01b900460ff16600314610d2a5760405162461bcd60e51b815260206004820152601c60248201527f5072697a653a20726f756e64206973206e6f742066696e697365642e000000006044820152606401610319565b600354815460028301546000926127109263ffffffff91821692610d5992600160401b90920490911690612528565b610d639190612528565b610d6d9190612547565b8254909150600090600160401b900463ffffffff1667ffffffffffffffff811115610d9a57610d9a612132565b604051908082528060200260200182016040528015610dc3578160200160208202803683370190505b50905060005b835463ffffffff600160401b9091048116908216108015610df0575060038163ffffffff16105b15610e6357610e00600284612547565b828263ffffffff1681518110610e1857610e18612453565b602002602001018181525050818163ffffffff1681518110610e3c57610e3c612453565b602002602001015183610e4f919061255b565b925080610e5b81612469565b915050610dc9565b5082546004600160401b90910463ffffffff161115610fce576000612710610e8c84600a612528565b610e97906008612528565b610ea19190612547565b8454909150600090610ec290600490600160401b900463ffffffff1661242e565b855463ffffffff91821691610ee291600391600160401b9091041661242e565b865463ffffffff9182169161271091610f0591600160401b909104166014612572565b610f1190610a0061242e565b63ffffffff16610f22886008612528565b610f2c9190612528565b610f369190612547565b610f409190612547565b610f4a9190612547565b8554909150600090610f6b90600290600160401b900463ffffffff1661242e565b90505b60038163ffffffff1610610fca57610f86828461259e565b925082848263ffffffff1681518110610fa157610fa1612453565b6020908102919091010152610fb6838661255b565b945080610fc2816125b6565b915050610f6e565b5050505b82546003600160401b90910463ffffffff1611156110285782548290829061100590600190600160401b900463ffffffff1661242e565b63ffffffff168151811061101b5761101b612453565b6020026020010181815250505b949350505050565b63ffffffff8082166000908152600160205260408120805460609391929161106a91600160401b8104821691600160201b9091041661242e565b63ffffffff1667ffffffffffffffff81111561108857611088612132565b6040519080825280602002602001820160405280156110b1578160200160208202803683370190505b50825490915063ffffffff600160401b82048116600160201b90920416036110da579392505050565b6000805b835463ffffffff600160201b9091048116908216101561116e5763ffffffff811660009081526005850160205260409020546001600160a01b031661115c5780838361112981612469565b945063ffffffff168151811061114157611141612453565b602002602001019063ffffffff16908163ffffffff16815250505b8061116681612469565b9150506110de565b5090949350505050565b60005463ffffffff90811690821611156111ca5760405162461bcd60e51b8152602060048201526013602482015272213abc9d1034b73b30b634b2103937bab7321760691b6044820152606401610319565b63ffffffff8116600090815260016020819052604090912060098101549091600160e01b90910460ff16146112415760405162461bcd60e51b815260206004820152601b60248201527f4275793a20726f756e6420776173206e6f7420737461727465642e00000000006044820152606401610319565b805463ffffffff600160401b82048116600160201b90920416116112b15760405162461bcd60e51b815260206004820152602160248201527f4275793a20616c6c207469636b6574206861766520616c726561647920736f6c6044820152601960fa1b6064820152608401610319565b600181015433600090815260048301602052604090205463ffffffff9182169116106113175760405162461bcd60e51b8152602060048201526015602482015274213abc9d1031b0b73737ba10313abc9036b7b9329760591b6044820152606401610319565b600354600160401b90046001600160a01b031615801590611339575060045415155b1561140657600480546003546040516370a0823160e01b815233938101939093529091600160401b9091046001600160a01b0316906370a0823190602401602060405180830381865afa158015611394573d6000803e3d6000fd5b505050506040513d601f19601f820116820180604052508101906113b891906125d6565b10156114065760405162461bcd60e51b815260206004820152601d60248201527f4275793a20696e73756666696369656e74206d656d626572736869702e0000006044820152606401610319565b8054600160601b90046001600160a01b031661146d57806002015434146114685760405162461bcd60e51b8152602060048201526016602482015275213abc9d1034b739bab33334b1b4b2b73a1022aa241760511b6044820152606401610319565b6115b9565b600281015481546040516370a0823160e01b8152336004820152600160601b9091046001600160a01b0316906370a0823190602401602060405180830381865afa1580156114bf573d6000803e3d6000fd5b505050506040513d601f19601f820116820180604052508101906114e391906125d6565b10156115315760405162461bcd60e51b815260206004820152601960248201527f4275793a20696e737566666963656e742062616c616e63652e000000000000006044820152606401610319565b805460028201546040516323b872dd60e01b81523360048201523060248201526044810191909152600160601b9091046001600160a01b0316906323b872dd906064016020604051808303816000875af1158015611593573d6000803e3d6000fd5b505050506040513d601f19601f820116820180604052508101906115b791906123f6565b505b80546000906115de9063ffffffff600160401b8204811691600160201b90041661242e565b825460408051426020820152449181019190915263ffffffff918216606082015233608082015291169060a0016040516020818303038152906040528051906020012060001c61162e91906124a2565b9050600061163b84611030565b9050600081838151811061165157611651612453565b6020908102919091018101513360009081526004870190925260408220805491935063ffffffff9091169161168583612469565b82546101009290920a63ffffffff818102199093169183160217909155828116600090815260058701602052604090208054336001600160a01b03199091161790558554600160401b90041690508460086116df83612469565b91906101000a81548163ffffffff021916908363ffffffff16021790555050336001600160a01b03168563ffffffff167ffddd5b9f0be592b6fbf70226cba434658b6522ec30a80e30101fb43f1fb148428360405161174a919063ffffffff91909116815260200190565b60405180910390a35050505050565b611761611f3f565b600380546001600160a01b03909316600160401b0268010000000000000000600160e01b031990931692909217909155600455565b61179e611f3f565b6005805467ffffffffffffffff909316600160a01b026001600160e01b03199093166001600160a01b039094169390931791909117909155600655565b63ffffffff8082166000908152600160209081526040808320338452600481019092528220546060938493929116820361183257505060408051600080825260208201818152828401909352909350909150611a33565b33600090815260048201602052604081205463ffffffff1667ffffffffffffffff81111561186257611862612132565b60405190808252806020026020018201604052801561188b578160200160208202803683370190505b503360009081526004840160205260408120549192509063ffffffff1667ffffffffffffffff8111156118c0576118c0612132565b6040519080825280602002602001820160405280156118e9578160200160208202803683370190505b50905060006118f788610cb3565b905060008060005b865463ffffffff600160201b90910481169082161015611a255763ffffffff81166000908152600588016020526040902054336001600160a01b0390911603611a135780868363ffffffff168151811061195b5761195b612453565b63ffffffff928316602091820292909201810191909152828216600090815260078a01909152604090205486519082169187919085169081106119a0576119a0612453565b63ffffffff928316602091820292909201810191909152828216600090815260078a01909152604090205485916119da916001911661242e565b63ffffffff16815181106119f0576119f0612453565b602002602001015183611a03919061259e565b925081611a0f81612469565b9250505b80611a1d81612469565b9150506118ff565b509397509195509093505050505b9193909250565b611a42611f3f565b60005463ffffffff90811690821610611a9d5760405162461bcd60e51b815260206004820152601c60248201527f53746172743a20726f756e6420646f6573206e6f742065786973742e000000006044820152606401610319565b63ffffffff811660009081526001602052604090206009810154600160e01b900460ff1615611ade5760405162461bcd60e51b8152600401610319906124de565b60098101805460ff60e01b1963ffffffff428116600160a01b029190911668ff00000000ffffffff60a01b1990921691909117600160e01b1790915581546040519116907f44fab5c68287771a7158cdf4fe25913e0913501736be127ee0c8525fd0ae03f290600090a25050565b611b54611f3f565b60008363ffffffff1611611bb45760405162461bcd60e51b815260206004820152602160248201527f4372656174653a207469636b657420636f756e74206973206e656761746976656044820152601760f91b6064820152608401610319565b60008211611c045760405162461bcd60e51b815260206004820152601a60248201527f4372656174653a207072696365206973206e656761746976652e0000000000006044820152606401610319565b60008054600190829063ffffffff168180611c1e83612469565b82546101009290920a63ffffffff8181021990931691831602179091559081168252602082019290925260409081016000908120815481546002830189905590851667ffffffffffffffff1990911617600160201b89861602176bffffffffffffffffffffffff8116600160601b6001600160a01b0389160290811783556001838101805463ffffffff19169091179055935191955084169290931691909117917fbe18715b5860cd7b6bc97c775900d5482d00c1cce75dd8f7186b527757006d989190a250505050565b611cf1611f3f565b611cfa81611fc8565b5063ffffffff81811660009081526001602081905260408220600554600654825492956001600160a01b03831695948694635d3b1d3094600160a01b900467ffffffffffffffff1692600392620186a092611d5d92600160401b9091041661242e565b6040516001600160e01b031960e088901b168152600481019590955267ffffffffffffffff909316602485015261ffff909116604484015263ffffffff908116606484015216608482015260a4016020604051808303816000875af1158015611dca573d6000803e3d6000fd5b505050506040513d601f19601f82011682018060405250810190611dee91906125d6565b9050611dfb8460016124b6565b600091825260026020526040909120805463ffffffff191663ffffffff909216919091179055505050565b63ffffffff80821660009081526001602052604081208054606093919291600160401b9091041667ffffffffffffffff811115611e6557611e65612132565b604051908082528060200260200182016040528015611e8e578160200160208202803683370190505b506009830154909150600160e01b900460ff16600314611eaf579392505050565b60005b825463ffffffff600160401b90910481169082161015611f3757600683016000611edd8360016124b6565b63ffffffff90811682526020820192909252604001600020548351908216918491908416908110611f1057611f10612453565b63ffffffff9092166020928302919091019091015280611f2f81612469565b915050611eb2565b509392505050565b7fc8fcad8db84d3cc18b4c41d551ea0ee66dd599cde068d998e57d5e09332c131c600401546001600160a01b03163314611fc65760405162461bcd60e51b815260206004820152602260248201527f4c69624469616d6f6e643a204d75737420626520636f6e7472616374206f776e60448201526132b960f11b6064820152608401610319565b565b6000805463ffffffff908116908316111561201c5760405162461bcd60e51b8152602060048201526014602482015273223930bb9d1034b73b30b634b2103937bab7321760611b6044820152606401610319565b63ffffffff8216600090815260016020819052604090912060098101549091600160e01b90910460ff16146120935760405162461bcd60e51b815260206004820152601c60248201527f447261773a20726f756e6420776173206e6f7420737461727465642e000000006044820152606401610319565b8054600160401b900463ffffffff166120ee5760405162461bcd60e51b815260206004820152601960248201527f447261773a204e6f207469636b65742077617320736f6c642e000000000000006044820152606401610319565b50600192915050565b803563ffffffff8116811461210b57600080fd5b919050565b60006020828403121561212257600080fd5b61212b826120f7565b9392505050565b634e487b7160e01b600052604160045260246000fd5b6000806040838503121561215b57600080fd5b8235915060208084013567ffffffffffffffff8082111561217b57600080fd5b818601915086601f83011261218f57600080fd5b8135818111156121a1576121a1612132565b8060051b604051601f19603f830116810181811085821117156121c6576121c6612132565b6040529182528482019250838101850191898311156121e457600080fd5b938501935b82851015612202578435845293850193928501926121e9565b8096505050505050509250929050565b80356001600160a01b038116811461210b57600080fd5b6000806000806080858703121561223f57600080fd5b612248856120f7565b9350612256602086016120f7565b92506040850135915061226b60608601612212565b905092959194509250565b6020808252825182820181905260009190848201906040850190845b818110156122ae57835183529284019291840191600101612292565b50909695505050505050565b600081518084526020808501945080840160005b838110156122f057815163ffffffff16875295820195908201906001016122ce565b509495945050505050565b60208152600061212b60208301846122ba565b6000806040838503121561232157600080fd5b61232a83612212565b946020939093013593505050565b60008060006060848603121561234d57600080fd5b61235684612212565b9250602084013567ffffffffffffffff8116811461237357600080fd5b929592945050506040919091013590565b60608152600061239760608301866122ba565b82810360208401526123a981866122ba565b915050826040830152949350505050565b6000806000606084860312156123cf57600080fd5b6123d8846120f7565b9250602084013591506123ed60408501612212565b90509250925092565b60006020828403121561240857600080fd5b8151801515811461212b57600080fd5b634e487b7160e01b600052601160045260246000fd5b600063ffffffff8381169083168181101561244b5761244b612418565b039392505050565b634e487b7160e01b600052603260045260246000fd5b600063ffffffff80831681810361248257612482612418565b6001019392505050565b634e487b7160e01b600052601260045260246000fd5b6000826124b1576124b161248c565b500690565b600063ffffffff8083168185168083038211156124d5576124d5612418565b01949350505050565b6020808252602a908201527f5570646174653a20726f756e64207761732073746172746564206f722066696e60408201526934b9b432b2103cb2ba1760b11b606082015260800190565b600081600019048311821515161561254257612542612418565b500290565b6000826125565761255661248c565b500490565b60008282101561256d5761256d612418565b500390565b600063ffffffff8083168185168183048111821515161561259557612595612418565b02949350505050565b600082198211156125b1576125b1612418565b500190565b600063ffffffff8216806125cc576125cc612418565b6000190192915050565b6000602082840312156125e857600080fd5b505191905056fea26469706673582212209c1367973f8065dfb7a579c2afda2c1a5abfbc1173a604ae31f2d5a147e7f97664736f6c634300080d0033",
  "linkReferences": {},
  "deployedLinkReferences": {}
}