{
  "_format": "hh-sol-artifact-1",
  "contractName": "CompetitionFacet",
  "sourceName": "contracts/facets/CompetitionFacet.sol",
  "abi": [
    {
      "inputs": [],
      "name": "Ownable__NotOwner",
      "type": "error"
    },
    {
      "inputs": [],
      "name": "Ownable__NotTransitiveOwner",
      "type": "error"
    },
    {
      "anonymous": false,
      "inputs": [
        {
          "indexed": true,
          "internalType": "uint32",
          "name": "",
          "type": "uint32"
        }
      ],
      "name": "Closed",
      "type": "event"
    },
    {
      "anonymous": false,
      "inputs": [
        {
          "indexed": true,
          "internalType": "uint32",
          "name": "",
          "type": "uint32"
        }
      ],
      "name": "Created",
      "type": "event"
    },
    {
      "anonymous": false,
      "inputs": [
        {
          "indexed": true,
          "internalType": "uint32",
          "name": "",
          "type": "uint32"
        }
      ],
      "name": "Drawn",
      "type": "event"
    },
    {
      "anonymous": false,
      "inputs": [
        {
          "indexed": true,
          "internalType": "uint32",
          "name": "",
          "type": "uint32"
        }
      ],
      "name": "Finished",
      "type": "event"
    },
    {
      "anonymous": false,
      "inputs": [
        {
          "indexed": true,
          "internalType": "address",
          "name": "previousOwner",
          "type": "address"
        },
        {
          "indexed": true,
          "internalType": "address",
          "name": "newOwner",
          "type": "address"
        }
      ],
      "name": "OwnershipTransferred",
      "type": "event"
    },
    {
      "anonymous": false,
      "inputs": [
        {
          "indexed": true,
          "internalType": "uint32",
          "name": "",
          "type": "uint32"
        },
        {
          "indexed": true,
          "internalType": "address",
          "name": "",
          "type": "address"
        },
        {
          "indexed": false,
          "internalType": "uint32",
          "name": "",
          "type": "uint32"
        }
      ],
      "name": "Sold",
      "type": "event"
    },
    {
      "anonymous": false,
      "inputs": [
        {
          "indexed": true,
          "internalType": "uint32",
          "name": "",
          "type": "uint32"
        }
      ],
      "name": "Started",
      "type": "event"
    },
    {
      "anonymous": false,
      "inputs": [
        {
          "indexed": true,
          "internalType": "uint32",
          "name": "",
          "type": "uint32"
        }
      ],
      "name": "Updated",
      "type": "event"
    },
    {
      "inputs": [
        {
          "internalType": "uint32",
          "name": "_index",
          "type": "uint32"
        }
      ],
      "name": "buy",
      "outputs": [],
      "stateMutability": "payable",
      "type": "function"
    },
    {
      "inputs": [
        {
          "internalType": "uint32",
          "name": "_index",
          "type": "uint32"
        }
      ],
      "name": "claim",
      "outputs": [],
      "stateMutability": "nonpayable",
      "type": "function"
    },
    {
      "inputs": [
        {
          "internalType": "uint32",
          "name": "_countTotal",
          "type": "uint32"
        },
        {
          "internalType": "uint256",
          "name": "_price",
          "type": "uint256"
        },
        {
          "internalType": "address",
          "name": "_currency",
          "type": "address"
        }
      ],
      "name": "create",
      "outputs": [],
      "stateMutability": "nonpayable",
      "type": "function"
    },
    {
      "inputs": [
        {
          "internalType": "uint32",
          "name": "_index",
          "type": "uint32"
        }
      ],
      "name": "draw",
      "outputs": [],
      "stateMutability": "nonpayable",
      "type": "function"
    },
    {
      "inputs": [
        {
          "internalType": "uint32",
          "name": "_index",
          "type": "uint32"
        }
      ],
      "name": "finish",
      "outputs": [],
      "stateMutability": "nonpayable",
      "type": "function"
    },
    {
      "inputs": [
        {
          "internalType": "uint32",
          "name": "_index",
          "type": "uint32"
        }
      ],
      "name": "mine",
      "outputs": [
        {
          "internalType": "uint32[]",
          "name": "",
          "type": "uint32[]"
        },
        {
          "internalType": "uint32[]",
          "name": "",
          "type": "uint32[]"
        },
        {
          "internalType": "uint256",
          "name": "",
          "type": "uint256"
        }
      ],
      "stateMutability": "view",
      "type": "function"
    },
    {
      "inputs": [
        {
          "internalType": "uint32",
          "name": "_index",
          "type": "uint32"
        }
      ],
      "name": "prizes",
      "outputs": [
        {
          "internalType": "uint256[]",
          "name": "",
          "type": "uint256[]"
        }
      ],
      "stateMutability": "view",
      "type": "function"
    },
    {
      "inputs": [
        {
          "internalType": "uint256",
          "name": "_requestId",
          "type": "uint256"
        },
        {
          "internalType": "uint256[]",
          "name": "_randomWords",
          "type": "uint256[]"
        }
      ],
      "name": "rawFulfillRandomWords",
      "outputs": [],
      "stateMutability": "nonpayable",
      "type": "function"
    },
    {
      "inputs": [
        {
          "internalType": "uint32",
          "name": "_index",
          "type": "uint32"
        }
      ],
      "name": "remains",
      "outputs": [
        {
          "internalType": "uint32[]",
          "name": "",
          "type": "uint32[]"
        }
      ],
      "stateMutability": "view",
      "type": "function"
    },
    {
      "inputs": [
        {
          "internalType": "uint32",
          "name": "_index",
          "type": "uint32"
        }
      ],
      "name": "result",
      "outputs": [
        {
          "internalType": "uint32[]",
          "name": "",
          "type": "uint32[]"
        }
      ],
      "stateMutability": "view",
      "type": "function"
    },
    {
      "inputs": [
        {
          "internalType": "uint32",
          "name": "_index",
          "type": "uint32"
        }
      ],
      "name": "start",
      "outputs": [],
      "stateMutability": "nonpayable",
      "type": "function"
    },
    {
      "inputs": [
        {
          "internalType": "uint32",
          "name": "_index",
          "type": "uint32"
        },
        {
          "internalType": "uint32",
          "name": "_countTotal",
          "type": "uint32"
        },
        {
          "internalType": "uint256",
          "name": "_price",
          "type": "uint256"
        },
        {
          "internalType": "address",
          "name": "_currency",
          "type": "address"
        }
      ],
      "name": "update",
      "outputs": [],
      "stateMutability": "nonpayable",
      "type": "function"
    },
    {
      "inputs": [
        {
          "internalType": "address",
          "name": "_token",
          "type": "address"
        },
        {
          "internalType": "uint256",
          "name": "_threshold",
          "type": "uint256"
        }
      ],
      "name": "updateThreshold",
      "outputs": [],
      "stateMutability": "nonpayable",
      "type": "function"
    },
    {
      "inputs": [
        {
          "internalType": "address",
          "name": "_coordinator",
          "type": "address"
        },
        {
          "internalType": "uint64",
          "name": "_subscription",
          "type": "uint64"
        },
        {
          "internalType": "bytes32",
          "name": "_hash",
          "type": "bytes32"
        }
      ],
      "name": "updateVRF",
      "outputs": [],
      "stateMutability": "nonpayable",
      "type": "function"
    },
    {
      "inputs": [
        {
          "internalType": "address",
          "name": "_token",
          "type": "address"
        },
        {
          "internalType": "address",
          "name": "_to",
          "type": "address"
        },
        {
          "internalType": "uint256",
          "name": "_amount",
          "type": "uint256"
        }
      ],
      "name": "withdraw",
      "outputs": [],
      "stateMutability": "nonpayable",
      "type": "function"
    }
  ],
  "bytecode": "0x608060405234801561001057600080fd5b50612c97806100206000396000f3fe6080604052600436106100e85760003560e01c8063924af1bc1161008a578063c305163d11610059578063c305163d14610274578063d9caed1214610294578063e6f36328146102b4578063fef5016c146102d457600080fd5b8063924af1bc146101e55780639cf9a4f8146102055780639dbdadee14610225578063b63e0cd81461025457600080fd5b806354efc139116100c657806354efc1391461014f57806372ab84411461016f5780637bb9f9ef146101a55780637db5bd52146101d257600080fd5b806304951891146100ed5780631fe543e31461010f57806336ceea0d1461012f575b600080fd5b3480156100f957600080fd5b5061010d6101083660046126e3565b6102f4565b005b34801561011b57600080fd5b5061010d61012a36600461271b565b6105d3565b34801561013b57600080fd5b5061010d61014a3660046126e3565b61075b565b34801561015b57600080fd5b5061010d61016a3660046127fc565b610b94565b34801561017b57600080fd5b5061018f61018a3660046126e3565b610dab565b60405161019c9190612849565b60405180910390f35b3480156101b157600080fd5b506101c56101c03660046126e3565b611168565b60405161019c91906128ce565b61010d6101e03660046126e3565b6112cc565b3480156101f157600080fd5b5061010d6102003660046128e1565b6118df565b34801561021157600080fd5b5061010d61022036600461290b565b61198c565b34801561023157600080fd5b506102456102403660046126e3565b611a42565b60405161019c93929190612957565b34801561026057600080fd5b5061010d61026f3660046126e3565b611d42565b34801561028057600080fd5b5061010d61028f36600461298d565b611e96565b3480156102a057600080fd5b5061010d6102af3660046129c9565b612082565b3480156102c057600080fd5b5061010d6102cf3660046126e3565b612178565b3480156102e057600080fd5b506101c56102ef3660046126e3565b61234c565b600080516020612c42833981519152805463ffffffff908116908316111561035b5760405162461bcd60e51b815260206004820152601560248201527421b630b4b69d1034b73b30b634b2103937bab7321760591b60448201526064015b60405180910390fd5b63ffffffff8216600090815260018201602052604090206009810154600160e01b900460ff166003146103d05760405162461bcd60e51b815260206004820152601e60248201527f436c61696d3a20726f756e6420776173206e6f742066696e69736865642e00006044820152606401610352565b33600090815260038201602052604090205460ff16156104325760405162461bcd60e51b815260206004820152601760248201527f436c61696d3a20616c726561647920636c61696d65642e0000000000000000006044820152606401610352565b33600090815260048201602052604090205463ffffffff166104965760405162461bcd60e51b815260206004820152601a60248201527f436c61696d3a20646964206e6f7420627579207469636b65742e0000000000006044820152606401610352565b60006104a184611a42565b92505050600081116104ec5760405162461bcd60e51b815260206004820152601460248201527321b630b4b69d1037379031b630b4b6b0b136329760611b6044820152606401610352565b8154600160601b90046001600160a01b031661053557604051339082156108fc029083906000818181858888f1935050505015801561052f573d6000803e3d6000fd5b506105b1565b815460405163a9059cbb60e01b815233600482015260248101839052600160601b9091046001600160a01b03169063a9059cbb906044016020604051808303816000875af115801561058b573d6000803e3d6000fd5b505050506040513d601f19601f820116820180604052508101906105af9190612a05565b505b50336000908152600390910160205260409020805460ff191660011790555050565b7f9a569dfe937290c7cc4b064b1c5c9d803cc792cf94eb5177ec566d8725a4b22f80546001600160a01b0316331480156106225750600083815260028201602052604090205463ffffffff1615155b15610756576000838152600282016020526040812054600080516020612c428339815191529190600080516020612c2283398151915290829061066d9060019063ffffffff16612a3d565b63ffffffff1663ffffffff168152602001908152602001600020905060005b81546106a790600190600160401b900463ffffffff16612a3d565b63ffffffff168163ffffffff16101561070957848163ffffffff16815181106106d2576106d2612a62565b60209081029190910181015163ffffffff83166000908152600885019092526040909120558061070181612a78565b91505061068c565b5060098101805460ff60e01b1916600160e11b179055805460405163ffffffff909116907fd17f1b6062bdec6b66d7c7202aa93ca5242807f46aa32c20fdd8f6d0586293ed90600090a250505b505050565b6107636124f0565b6001600160a01b0316336001600160a01b03161461079457604051632f7a8ee160e01b815260040160405180910390fd5b600080516020612c42833981519152805463ffffffff90811690831611156107f75760405162461bcd60e51b81526020600482015260166024820152752334b734b9b41d1034b73b30b634b2103937bab7321760511b6044820152606401610352565b63ffffffff8216600090815260018201602052604090206009810154600160e01b900460ff1660021461086c5760405162461bcd60e51b815260206004820152601c60248201527f46696e6973683a20726f756e6420776173206e6f7420647261776e2e000000006044820152606401610352565b60098101805463ffffffff428116600160c01b0264ffffffffff60c01b1990921691909117600360e01b1790915581546000918291600160401b90041667ffffffffffffffff8111156108c1576108c1612705565b6040519080825280602002602001820160405280156108ea578160200160208202803683370190505b50905060005b835463ffffffff600160201b909104811690821610156109815763ffffffff811660009081526005850160205260409020546001600160a01b03161561096f5780828461093c81612a78565b955063ffffffff168151811061095457610954612a62565b602002602001019063ffffffff16908163ffffffff16815250505b8061097981612a78565b9150506108f0565b5060005b835463ffffffff600160401b90910481169082161015610b5857835460009082906109be908290600160401b900463ffffffff16612a3d565b63ffffffff84811660009081526008890160205260409020546109e49290911690612ab1565b6109ee9190612ac5565b9050828163ffffffff1681518110610a0857610a08612a62565b6020026020010151838363ffffffff1681518110610a2857610a28612a62565b6020026020010151848463ffffffff1681518110610a4857610a48612a62565b60200260200101858463ffffffff1681518110610a6757610a67612a62565b63ffffffff9384166020918202929092010152918116909152835184918416908110610a9557610a95612a62565b6020026020010151856006016000846001610ab09190612ac5565b63ffffffff90811682526020820192909252604001600020805463ffffffff191692909116919091179055610ae6826001612ac5565b856007016000858563ffffffff1681518110610b0457610b04612a62565b602002602001015163ffffffff1663ffffffff16815260200190815260200160002060006101000a81548163ffffffff021916908363ffffffff160217905550508080610b5090612a78565b915050610985565b50825460405163ffffffff909116907f0b4aae5dcd713cfbcaf3e6aa1be4e9e01a579e6c5e930d1aef33ab13fd5002d790600090a25050505050565b610b9c6124f0565b6001600160a01b0316336001600160a01b031614610bcd57604051632f7a8ee160e01b815260040160405180910390fd5b600080516020612c42833981519152805463ffffffff90811690861610610c365760405162461bcd60e51b815260206004820152601d60248201527f5570646174653a20726f756e6420646f6573206e6f742065786973742e0000006044820152606401610352565b60008463ffffffff1611610c965760405162461bcd60e51b815260206004820152602160248201527f5570646174653a207469636b657420636f756e74206973206e656761746976656044820152601760f91b6064820152608401610352565b60008311610ce65760405162461bcd60e51b815260206004820152601a60248201527f5570646174653a207072696365206973206e656761746976652e0000000000006044820152606401610352565b63ffffffff8516600090815260018201602052604090206009810154600160e01b900460ff1615610d295760405162461bcd60e51b815260040161035290612aed565b8054600282018590556bffffffff00000000ffffffff16600160201b63ffffffff878116919091026bffffffffffffffffffffffff1691909117600160601b6001600160a01b03861602178083556040519116907f4dac4ac23a642d0ff36b603f2bf73fd8163de4e86d607db04b40edd8ec0eb50890600090a2505050505050565b63ffffffff81166000908152600080516020612c228339815191526020526040902060098101546060917f5f2618c96bfb516c1a8886bd6b719d052ed1a24d9568ca8750c42f88e1849e1e91600080516020612c428339815191529190600160e01b900460ff16600314610e615760405162461bcd60e51b815260206004820152601c60248201527f5072697a653a20726f756e64206973206e6f742066696e697365642e000000006044820152606401610352565b8254815460028301546000926127109263ffffffff91821692610e8f92600160401b90920490911690612b37565b610e999190612b37565b610ea39190612b56565b8254909150600090600160401b900463ffffffff1667ffffffffffffffff811115610ed057610ed0612705565b604051908082528060200260200182016040528015610ef9578160200160208202803683370190505b50905060005b835463ffffffff600160401b9091048116908216108015610f26575060038163ffffffff16105b15610f9957610f36600284612b56565b828263ffffffff1681518110610f4e57610f4e612a62565b602002602001018181525050818163ffffffff1681518110610f7257610f72612a62565b602002602001015183610f859190612b6a565b925080610f9181612a78565b915050610eff565b5082546004600160401b90910463ffffffff161115611104576000612710610fc284600a612b37565b610fcd906008612b37565b610fd79190612b56565b8454909150600090610ff890600490600160401b900463ffffffff16612a3d565b855463ffffffff9182169161101891600391600160401b90910416612a3d565b865463ffffffff918216916127109161103b91600160401b909104166014612b81565b61104790610a00612a3d565b63ffffffff16611058886008612b37565b6110629190612b37565b61106c9190612b56565b6110769190612b56565b6110809190612b56565b85549091506000906110a190600290600160401b900463ffffffff16612a3d565b90505b60038163ffffffff1610611100576110bc8284612bad565b925082848263ffffffff16815181106110d7576110d7612a62565b60209081029190910101526110ec8386612b6a565b9450806110f881612bc5565b9150506110a4565b5050505b82546003600160401b90910463ffffffff16111561115e5782548290829061113b90600190600160401b900463ffffffff16612a3d565b63ffffffff168151811061115157611151612a62565b6020026020010181815250505b9695505050505050565b63ffffffff8181166000908152600080516020612c22833981519152602052604081208054606093600080516020612c4283398151915293916111bc91600160401b8204811691600160201b900416612a3d565b63ffffffff1667ffffffffffffffff8111156111da576111da612705565b604051908082528060200260200182016040528015611203578160200160208202803683370190505b50825490915063ffffffff600160401b82048116600160201b909204160361122d57949350505050565b6000805b835463ffffffff600160201b909104811690821610156112c15763ffffffff811660009081526005850160205260409020546001600160a01b03166112af5780838361127c81612a78565b945063ffffffff168151811061129457611294612a62565b602002602001019063ffffffff16908163ffffffff16815250505b806112b981612a78565b915050611231565b509095945050505050565b600080516020612c4283398151915280547f5f2618c96bfb516c1a8886bd6b719d052ed1a24d9568ca8750c42f88e1849e1e919063ffffffff908116908416111561134f5760405162461bcd60e51b8152602060048201526013602482015272213abc9d1034b73b30b634b2103937bab7321760691b6044820152606401610352565b63ffffffff831660009081526001828101602052604090912060098101549091600160e01b90910460ff16146113c75760405162461bcd60e51b815260206004820152601b60248201527f4275793a20726f756e6420776173206e6f7420737461727465642e00000000006044820152606401610352565b805463ffffffff600160401b82048116600160201b90920416116114375760405162461bcd60e51b815260206004820152602160248201527f4275793a20616c6c207469636b6574206861766520616c726561647920736f6c6044820152601960fa1b6064820152608401610352565b600181015433600090815260048301602052604090205463ffffffff91821691161061149d5760405162461bcd60e51b8152602060048201526015602482015274213abc9d1031b0b73737ba10313abc9036b7b9329760591b6044820152606401610352565b8254600160401b90046001600160a01b0316158015906114c1575060008360010154115b1561158a57600183015483546040516370a0823160e01b8152336004820152600160401b9091046001600160a01b0316906370a0823190602401602060405180830381865afa158015611518573d6000803e3d6000fd5b505050506040513d601f19601f8201168201806040525081019061153c9190612be5565b101561158a5760405162461bcd60e51b815260206004820152601d60248201527f4275793a20696e73756666696369656e74206d656d626572736869702e0000006044820152606401610352565b8054600160601b90046001600160a01b03166115f157806002015434146115ec5760405162461bcd60e51b8152602060048201526016602482015275213abc9d1034b739bab33334b1b4b2b73a1022aa241760511b6044820152606401610352565b61173d565b600281015481546040516370a0823160e01b8152336004820152600160601b9091046001600160a01b0316906370a0823190602401602060405180830381865afa158015611643573d6000803e3d6000fd5b505050506040513d601f19601f820116820180604052508101906116679190612be5565b10156116b55760405162461bcd60e51b815260206004820152601960248201527f4275793a20696e737566666963656e742062616c616e63652e000000000000006044820152606401610352565b805460028201546040516323b872dd60e01b81523360048201523060248201526044810191909152600160601b9091046001600160a01b0316906323b872dd906064016020604051808303816000875af1158015611717573d6000803e3d6000fd5b505050506040513d601f19601f8201168201806040525081019061173b9190612a05565b505b80546000906117629063ffffffff600160401b8204811691600160201b900416612a3d565b825460408051426020820152449181019190915263ffffffff918216606082015233608082015291169060a0016040516020818303038152906040528051906020012060001c6117b29190612ab1565b905060006117bf86611168565b905060008183815181106117d5576117d5612a62565b6020908102919091018101513360009081526004870190925260408220805491935063ffffffff9091169161180983612a78565b82546101009290920a63ffffffff818102199093169183160217909155828116600090815260058701602052604090208054336001600160a01b03199091161790558554600160401b900416905084600861186383612a78565b91906101000a81548163ffffffff021916908363ffffffff16021790555050336001600160a01b03168763ffffffff167ffddd5b9f0be592b6fbf70226cba434658b6522ec30a80e30101fb43f1fb14842836040516118ce919063ffffffff91909116815260200190565b60405180910390a350505050505050565b6118e76124f0565b6001600160a01b0316336001600160a01b03161461191857604051632f7a8ee160e01b815260040160405180910390fd5b7f5f2618c96bfb516c1a8886bd6b719d052ed1a24d9568ca8750c42f88e1849e1e80546001600160a01b0393909316600160401b0268010000000000000000600160e01b0319909316929092179091557f5f2618c96bfb516c1a8886bd6b719d052ed1a24d9568ca8750c42f88e1849e1f55565b6119946124f0565b6001600160a01b0316336001600160a01b0316146119c557604051632f7a8ee160e01b815260040160405180910390fd5b7f9a569dfe937290c7cc4b064b1c5c9d803cc792cf94eb5177ec566d8725a4b22f805467ffffffffffffffff93909316600160a01b026001600160e01b03199093166001600160a01b039490941693909317919091179091557f9a569dfe937290c7cc4b064b1c5c9d803cc792cf94eb5177ec566d8725a4b23055565b63ffffffff8181166000908152600080516020612c228339815191526020908152604080832033845260048101909252822054606093849392600080516020612c42833981519152929091168303611ab9575050604080516000808252602082018181528284019093529094509092509050611d3b565b33600090815260048201602052604081205463ffffffff1667ffffffffffffffff811115611ae957611ae9612705565b604051908082528060200260200182016040528015611b12578160200160208202803683370190505b503360009081526004840160205260408120549192509063ffffffff1667ffffffffffffffff811115611b4757611b47612705565b604051908082528060200260200182016040528015611b70578160200160208202803683370190505b5090506000611b7e89610dab565b90506000806000603c8760090160189054906101000a900463ffffffff1642611ba79190612a3d565b611bb19190612bfe565b875490915063ffffffff600160401b90910481169082161115611bdf57508554600160401b900463ffffffff165b60005b875463ffffffff600160201b90910481169082161015611d2c5763ffffffff81166000908152600589016020526040902054336001600160a01b0390911603611d1a5780878463ffffffff1681518110611c3e57611c3e612a62565b63ffffffff928316602091820292909201810191909152828216600090815260078b019091526040902054838216911611611d0c5763ffffffff808216600090815260078a0160205260409020548751908216918891908616908110611ca657611ca6612a62565b63ffffffff928316602091820292909201810191909152828216600090815260078b0190915260409020548691611ce09160019116612a3d565b63ffffffff1681518110611cf657611cf6612a62565b602002602001015184611d099190612bad565b93505b82611d1681612a78565b9350505b80611d2481612a78565b915050611be2565b50949950929750955050505050505b9193909250565b611d4a6124f0565b6001600160a01b0316336001600160a01b031614611d7b57604051632f7a8ee160e01b815260040160405180910390fd5b600080516020612c42833981519152805463ffffffff90811690831610611de45760405162461bcd60e51b815260206004820152601c60248201527f53746172743a20726f756e6420646f6573206e6f742065786973742e000000006044820152606401610352565b63ffffffff8216600090815260018201602052604090206009810154600160e01b900460ff1615611e275760405162461bcd60e51b815260040161035290612aed565b60098101805460ff60e01b1963ffffffff428116600160a01b029190911668ff00000000ffffffff60a01b1990921691909117600160e01b1790915581546040519116907f44fab5c68287771a7158cdf4fe25913e0913501736be127ee0c8525fd0ae03f290600090a2505050565b611e9e6124f0565b6001600160a01b0316336001600160a01b031614611ecf57604051632f7a8ee160e01b815260040160405180910390fd5b60008363ffffffff1611611f2f5760405162461bcd60e51b815260206004820152602160248201527f4372656174653a207469636b657420636f756e74206973206e656761746976656044820152601760f91b6064820152608401610352565b60008211611f7f5760405162461bcd60e51b815260206004820152601a60248201527f4372656174653a207072696365206973206e656761746976652e0000000000006044820152606401610352565b600080516020612c428339815191528054600090600080516020612c2283398151915290829063ffffffff168482611fb683612a78565b82546101009290920a63ffffffff818102199093169183160217909155908116825260208201929092526040908101600090812085548154600283018a905590851667ffffffffffffffff1990911617600160201b8a861602176bffffffffffffffffffffffff8116600160601b6001600160a01b038a160290811783556001838101805463ffffffff19169091179055935191955084169290931691909117917fbe18715b5860cd7b6bc97c775900d5482d00c1cce75dd8f7186b527757006d989190a25050505050565b61208a6124f0565b6001600160a01b0316336001600160a01b0316146120bb57604051632f7a8ee160e01b815260040160405180910390fd5b6001600160a01b038316612105576040516001600160a01b0383169082156108fc029083906000818181858888f193505050501580156120ff573d6000803e3d6000fd5b50505050565b60405163a9059cbb60e01b81526001600160a01b0383811660048301526024820183905284169063a9059cbb906044016020604051808303816000875af1158015612154573d6000803e3d6000fd5b505050506040513d601f19601f820116820180604052508101906120ff9190612a05565b6121806124f0565b6001600160a01b0316336001600160a01b0316146121b157604051632f7a8ee160e01b815260040160405180910390fd5b6121ba8161251e565b5063ffffffff8181166000908152600080516020612c22833981519152602052604081207f9a569dfe937290c7cc4b064b1c5c9d803cc792cf94eb5177ec566d8725a4b22f80547f9a569dfe937290c7cc4b064b1c5c9d803cc792cf94eb5177ec566d8725a4b230548354600080516020612c428339815191529693956001600160a01b0384169490938593635d3b1d30939092600160a01b90920467ffffffffffffffff1691600391620186a09161227e91600191600160401b90910416612a3d565b6040516001600160e01b031960e088901b168152600481019590955267ffffffffffffffff909316602485015261ffff909116604484015263ffffffff908116606484015216608482015260a4016020604051808303816000875af11580156122eb573d6000803e3d6000fd5b505050506040513d601f19601f8201168201806040525081019061230f9190612be5565b905061231c866001612ac5565b600091825260029490940160205260409020805463ffffffff191663ffffffff9094169390931790925550505050565b63ffffffff8181166000908152600080516020612c22833981519152602052604081206009810154606093600080516020612c428339815191529391603c9161239d91600160c01b90041642612a3d565b6123a79190612bfe565b60098301549091506123cc90429063ffffffff600160c01b9091048116908416612660565b815463ffffffff600160401b909104811690821611156123f757508054600160401b900463ffffffff165b60008163ffffffff1667ffffffffffffffff81111561241857612418612705565b604051908082528060200260200182016040528015612441578160200160208202803683370190505b506009840154909150600160e01b900460ff166003146124645795945050505050565b60005b8263ffffffff168163ffffffff1610156124e65760068401600061248c836001612ac5565b63ffffffff908116825260208201929092526040016000205483519082169184919084169081106124bf576124bf612a62565b63ffffffff90921660209283029190910190910152806124de81612a78565b915050612467565b5095945050505050565b7f8a22373512790c48b83a1fe2efdd2888d4a917bcdc24d0adf63e60f671680460546001600160a01b031690565b600080516020612c4283398151915280546000919063ffffffff90811690841611156125835760405162461bcd60e51b8152602060048201526014602482015273223930bb9d1034b73b30b634b2103937bab7321760611b6044820152606401610352565b63ffffffff831660009081526001828101602052604090912060098101549091600160e01b90910460ff16146125fb5760405162461bcd60e51b815260206004820152601c60248201527f447261773a20726f756e6420776173206e6f7420737461727465642e000000006044820152606401610352565b8054600160401b900463ffffffff166126565760405162461bcd60e51b815260206004820152601960248201527f447261773a204e6f207469636b65742077617320736f6c642e000000000000006044820152606401610352565b5060019392505050565b6040516024810184905260448101839052606481018290526107569060840160408051601f198184030181529190526020810180516001600160e01b031663347b5e8f60e21b17905280516a636f6e736f6c652e6c6f67602083016000808483855afa5050505050565b803563ffffffff811681146126de57600080fd5b919050565b6000602082840312156126f557600080fd5b6126fe826126ca565b9392505050565b634e487b7160e01b600052604160045260246000fd5b6000806040838503121561272e57600080fd5b8235915060208084013567ffffffffffffffff8082111561274e57600080fd5b818601915086601f83011261276257600080fd5b81358181111561277457612774612705565b8060051b604051601f19603f8301168101818110858211171561279957612799612705565b6040529182528482019250838101850191898311156127b757600080fd5b938501935b828510156127d5578435845293850193928501926127bc565b8096505050505050509250929050565b80356001600160a01b03811681146126de57600080fd5b6000806000806080858703121561281257600080fd5b61281b856126ca565b9350612829602086016126ca565b92506040850135915061283e606086016127e5565b905092959194509250565b6020808252825182820181905260009190848201906040850190845b8181101561288157835183529284019291840191600101612865565b50909695505050505050565b600081518084526020808501945080840160005b838110156128c357815163ffffffff16875295820195908201906001016128a1565b509495945050505050565b6020815260006126fe602083018461288d565b600080604083850312156128f457600080fd5b6128fd836127e5565b946020939093013593505050565b60008060006060848603121561292057600080fd5b612929846127e5565b9250602084013567ffffffffffffffff8116811461294657600080fd5b929592945050506040919091013590565b60608152600061296a606083018661288d565b828103602084015261297c818661288d565b915050826040830152949350505050565b6000806000606084860312156129a257600080fd5b6129ab846126ca565b9250602084013591506129c0604085016127e5565b90509250925092565b6000806000606084860312156129de57600080fd5b6129e7846127e5565b92506129f5602085016127e5565b9150604084013590509250925092565b600060208284031215612a1757600080fd5b815180151581146126fe57600080fd5b634e487b7160e01b600052601160045260246000fd5b600063ffffffff83811690831681811015612a5a57612a5a612a27565b039392505050565b634e487b7160e01b600052603260045260246000fd5b600063ffffffff808316818103612a9157612a91612a27565b6001019392505050565b634e487b7160e01b600052601260045260246000fd5b600082612ac057612ac0612a9b565b500690565b600063ffffffff808316818516808303821115612ae457612ae4612a27565b01949350505050565b6020808252602a908201527f5570646174653a20726f756e64207761732073746172746564206f722066696e60408201526934b9b432b2103cb2ba1760b11b606082015260800190565b6000816000190483118215151615612b5157612b51612a27565b500290565b600082612b6557612b65612a9b565b500490565b600082821015612b7c57612b7c612a27565b500390565b600063ffffffff80831681851681830481118215151615612ba457612ba4612a27565b02949350505050565b60008219821115612bc057612bc0612a27565b500190565b600063ffffffff821680612bdb57612bdb612a27565b6000190192915050565b600060208284031215612bf757600080fd5b5051919050565b600063ffffffff80841680612c1557612c15612a9b565b9216919091049291505056fe290d8ff3f305e35b56d2de81e3f658b7cfd1f4dab67f08a123a085998da7f568290d8ff3f305e35b56d2de81e3f658b7cfd1f4dab67f08a123a085998da7f567a264697066735822122090935db18a040f70cd129543064a9745e3e4cadd33114063f457ed94d4c09ac264736f6c634300080d0033",
  "linkReferences": {},
  "deployedLinkReferences": {}
}