{
  "_format": "hh-sol-artifact-1",
  "contractName": "VRFCoordinator",
  "sourceName": "contracts/VRFCoordinator.sol",
  "abi": [
    {
      "anonymous": false,
      "inputs": [
        {
          "indexed": false,
          "internalType": "uint64",
          "name": "",
          "type": "uint64"
        },
        {
          "indexed": false,
          "internalType": "uint64",
          "name": "",
          "type": "uint64"
        }
      ],
      "name": "Request",
      "type": "event"
    },
    {
      "inputs": [
        {
          "internalType": "address",
          "name": "_consumer",
          "type": "address"
        }
      ],
      "name": "createSubscription",
      "outputs": [
        {
          "internalType": "uint64",
          "name": "",
          "type": "uint64"
        }
      ],
      "stateMutability": "nonpayable",
      "type": "function"
    },
    {
      "inputs": [
        {
          "internalType": "uint64",
          "name": "_sub",
          "type": "uint64"
        },
        {
          "internalType": "uint64",
          "name": "_requestId",
          "type": "uint64"
        }
      ],
      "name": "fulfillRandomWords",
      "outputs": [],
      "stateMutability": "nonpayable",
      "type": "function"
    },
    {
      "inputs": [
        {
          "internalType": "uint64",
          "name": "_sub",
          "type": "uint64"
        }
      ],
      "name": "getSubscription",
      "outputs": [
        {
          "internalType": "address",
          "name": "",
          "type": "address"
        },
        {
          "internalType": "bytes32",
          "name": "",
          "type": "bytes32"
        }
      ],
      "stateMutability": "view",
      "type": "function"
    },
    {
      "inputs": [
        {
          "internalType": "bytes32",
          "name": "_hash",
          "type": "bytes32"
        },
        {
          "internalType": "uint64",
          "name": "_sub",
          "type": "uint64"
        },
        {
          "internalType": "uint16",
          "name": "_confirmations",
          "type": "uint16"
        },
        {
          "internalType": "uint32",
          "name": "_gas",
          "type": "uint32"
        },
        {
          "internalType": "uint32",
          "name": "_count",
          "type": "uint32"
        }
      ],
      "name": "requestRandomWords",
      "outputs": [
        {
          "internalType": "uint256",
          "name": "",
          "type": "uint256"
        }
      ],
      "stateMutability": "nonpayable",
      "type": "function"
    },
    {
      "inputs": [
        {
          "internalType": "uint64",
          "name": "_sub",
          "type": "uint64"
        },
        {
          "internalType": "bytes32",
          "name": "_hash",
          "type": "bytes32"
        },
        {
          "internalType": "address",
          "name": "_consumer",
          "type": "address"
        }
      ],
      "name": "setSubscription",
      "outputs": [],
      "stateMutability": "nonpayable",
      "type": "function"
    }
  ],
  "bytecode": "0x608060405234801561001057600080fd5b506106b0806100206000396000f3fe608060405234801561001057600080fd5b50600436106100575760003560e01c80635d3b1d301461005c57806383b69fea14610082578063a47c769614610097578063e375c0d6146100f6578063f73f8d2014610121575b600080fd5b61006f61006a366004610477565b610175565b6040519081526020015b60405180910390f35b6100956100903660046104de565b61030e565b005b6100d76100a5366004610511565b6001600160401b03166000908152600160209081526040808320546002909252909120546001600160a01b0390911691565b604080516001600160a01b039093168352602083019190915201610079565b61010961010436600461054a565b61039e565b6040516001600160401b039091168152602001610079565b61009561012f366004610565565b6001600160401b0392909216600090815260016020908152604080832080546001600160a01b0319166001600160a01b0390961695909517909455600290529190912055565b6001600160401b03841660009081526002602052604081205486146101d95760405162461bcd60e51b81526020600482015260166024820152752ab73932b3b4b9ba32b932b21031b7b739bab6b2b91760511b604482015260640160405180910390fd5b600080546801000000000000000090046001600160401b03168160086101fe836105b7565b82546101009290920a6001600160401b03818102199093169183160217909155811660009081526003602052604081209192505b8463ffffffff168163ffffffff1610156102b6576040805142602082015261ffff89169181019190915263ffffffff80881660608301528216608082015260009060a00160408051601f19818403018152919052805160209182012084546001810186556000868152929092209091015550806102ae816105dd565b915050610232565b50604080516001600160401b03808a168252841660208201527f02928b0a1a0132f760011cb96522d0f8f6197bf40f272292f1f5d1b835981cf2910160405180910390a1506001600160401b03169695505050505050565b6001600160401b0380821660009081526003602090815260408083209386168352600190915290819020549051631fe543e360e01b81526001600160a01b0390911690631fe543e39061036790859085906004016105f6565b600060405180830381600087803b15801561038157600080fd5b505af1158015610395573d6000803e3d6000fd5b50505050505050565b600080546001600160401b03908116825260016020908152604080842080546001600160a01b0319166001600160a01b038716908117909155815180840191909152815180820384018152908201825280519083012084548416855260029092528320558154168180610410836105b7565b82546101009290920a6001600160401b03818102199093169183160217909155600054610441925060019116610652565b92915050565b80356001600160401b038116811461045e57600080fd5b919050565b803563ffffffff8116811461045e57600080fd5b600080600080600060a0868803121561048f57600080fd5b8535945061049f60208701610447565b9350604086013561ffff811681146104b657600080fd5b92506104c460608701610463565b91506104d260808701610463565b90509295509295909350565b600080604083850312156104f157600080fd5b6104fa83610447565b915061050860208401610447565b90509250929050565b60006020828403121561052357600080fd5b61052c82610447565b9392505050565b80356001600160a01b038116811461045e57600080fd5b60006020828403121561055c57600080fd5b61052c82610533565b60008060006060848603121561057a57600080fd5b61058384610447565b92506020840135915061059860408501610533565b90509250925092565b634e487b7160e01b600052601160045260246000fd5b60006001600160401b038083168181036105d3576105d36105a1565b6001019392505050565b600063ffffffff8083168181036105d3576105d36105a1565b6000604082016001600160401b038516835260206040818501528185548084526060860191508660005282600020935060005b8181101561064557845483526001948501949284019201610629565b5090979650505050505050565b60006001600160401b0383811690831681811015610672576106726105a1565b03939250505056fea2646970667358221220675b3b96eae1a2797048cd491f1807c31007692af6e6a1ce789a30ef96a89c3464736f6c634300080d0033",
  "linkReferences": {},
  "deployedLinkReferences": {}
}